:020000040800F2
:10000000B008002049010008510100085301000810
:1000100055010008570100085901000800000000C0
:100020000000000000000000000000005B0100086C
:100030005D010008000000005F0100085D1F00086E
:100040006301000863010008630100086301000800
:1000500063010008630100086301000863010008F0
:1000600063010008630100086301000863010008E0
:1000700063010008630100086301000863010008D0
:1000800063010008630100086301000863010008C0
:1000900063010008630100086301000863010008B0
:1000A00063010008092300086301000863010008D8
:1000B0006301000863010008630100086301000890
:1000C0006301000863010008630100086301000880
:1000D000630100088D2C000863010008012D000851
:1000E0006301000863010008630100086301000860
:1000F0006301000863010008630100086301000850
:10010000630100086301000863010008630100083F
:10011000630100086301000863010008630100082F
:10012000630100086301000863010008630100081F
:10013000DFF810D000F09CFA00480047E9300008D2
:10014000AFF30080B008002006488047064800470B
:10015000FEE7FEE7FEE7FEE7FEE7FEE7FEE7FEE777
:10016000FEE7FEE7F91F00083101000880EA0102FE
:1001700010B502F00043400022D04A001FD0010E0B
:1001800001EB1261C0F35600C2F3560240F40000C6
:1001900042F40002A0FB022000047F39140400D0C6
:1001A000401C50EA124001D44000491EC2B20C0665
:1001B00004EBD010401C4008802A02D003E000204D
:1001C00010BD20F00100002900DA0020184310BD06
:1001D0002DE9FE4F81EA030404F0004421F00041C0
:1001E00000944FF0000B23F0004350EA01045ED06E
:1001F00052EA03045BD0C3F30A54C1F30A552C44FA
:10020000A4F2F3340194A0FB0254C1F3130141F4AE
:100210008011C3F3130343F4801301FB024400FB7A
:10022000034E840A970A44EA815447EA8357A4FBA1
:10023000076802958D0A05FB07854FEA932C04FB9E
:100240000C542705029D4FEA065847EA1637B5EBCE
:1002500008056EEB070C870E920E47EA811742EAFB
:100260008312A7FB0201B6EB0B0164EB00042B0D1C
:1002700043EA0C335E1844EB1C50DA465146E7FB68
:100280000201C5F313044FEA0B3343EA14534FEA58
:100290000432019C43EA0603A4F10C040294009C7E
:1002A000CDE900B400F096F903B0BDE8F08F00206E
:1002B0000146F9E72DE9F04D81EA030404F0004B13
:1002C00021F0004514464FF0000A23F0004150EAA7
:1002D000050220D054EA01021DD0C5F30A57024698
:1002E000C5F31303C1F31300C1F30A5640F480159C
:1002F00043F48013A7EB0608101BD64608F2FD381E
:1003000073EB050002D308F1010801E092185B418C
:10031000B8F1000F03DA00200146BDE8F08D00209F
:100320004FF48011064684460EE0171B73EB050759
:1003300005D3121B63EB050306434CEA010C490885
:100340004FEA300092185B4150EA0107EDD152EAC2
:10035000030012D082EA040083EA0501084305D0B5
:10036000101BAB4106D20122002306E000224FF011
:10037000004302E06FF0010253101AEB06004CEB51
:10038000085110EB0A0041EB0B01BDE8F04D00F005
:1003900012B9C10F80EAE0700844CA079623002111
:1003A00000F0DBB896230022114600F0D6B80EB557
:1003B000C10F80EAE0700844CA07002140F23343CD
:1003C0008DE80E000A460B4600F004F903B000BDAC
:1003D00000F0004220F00040C10DC0F3160040F4D0
:1003E00000007F2901DA00207047962903DCC1F163
:1003F0009601C84001E096398840002AF4D0404276
:10040000704770B5C1F30A5201F000450024C1F3F2
:10041000130140F2FF3341F480119A4201DA0020C7
:1004200070BD40F233439A42A2F2334203DC52429F
:1004300000F07AF800E090402C43F1D0404270BDCB
:10044000C1F30A5210B5C1F3130140F2FF3341F476
:1004500080119A4201DA002010BD40F233439A42E3
:10046000A2F2334203DC524200F05EF810BD90402D
:1004700010BD00F0004230F000400AD0C10D01F57F
:100480006071C0F3160042EA0151C20840071143EF
:10049000704700200146704730B5041E71F100041A
:1004A00004DB4FF00044404264EB0101141E73F181
:1004B000000405DB1C464FF00043524263EB04038B
:1004C0008B4208BF824230BD01F0004330B421F0BE
:1004D000004150EA010206D00A0DA2F56072C1F394
:1004E0001301002A02DC30BC00207047440F44EAAC
:1004F000C104C100E01830BC00EBC25000F024B8C9
:10050000002801DBC0F10040002901DBC1F10041FE
:1005100081427047002801DBC0F10040002901DB67
:10052000C1F1004188427047202A04DB203A21FAB9
:1005300002F00021704721FA02F3D040C2F12002FC
:1005400091400843194670470029A8BF7047401CD6
:10055000490008BF20F00100704710B4B0FA80FCD9
:1005600000FA0CF050EA010404BF10BC704749B116
:10057000CCF1200421FA04F411FA0CF118BF012186
:1005800021430843A3EB0C01CB1D4FEA00614FEA66
:10059000102042BF002010BC704700EBC350104435
:1005A0000029A4BF10BC7047401C490008BF20F0C0
:1005B000010010BC704710B5141E73F1000408DA76
:1005C000401C41F1000192185B411A4301D120F017
:1005D000010010BD2DE9F04D92469B4611B1B1FAD4
:1005E00081F202E0B0FA80F22032904600F052F838
:1005F00004460F4640EA0A0041EA0B0153465A46B8
:10060000084313D0114653EA010019D0C8F1400243
:100610005046FFF789FF05460E465046594642466A
:1006200000F038F8084305D0012004E020463946A0
:10063000BDE8F08D0020054346EAE0762C433743C1
:100640000A986305E40AA0EB08000022FD0A44EAC8
:1006500047540A3002D500200146E9E70105101988
:100660006941DDE9084500196941BDE8F04DA2E79F
:10067000064C074D06E0E06840F0010394E80700EF
:1006800098471034AC42F6D3FFF756FDDC31000832
:10069000FC310008202A04DB203A00FA02F1002095
:1006A00070479140C2F1200320FA03F319439040B0
:1006B000704770B58C1810F8015B15F0070301D175
:1006C00010F8013B2A1106D110F8012B03E010F8B5
:1006D000016B01F8016B5B1EF9D12B0705D40023D8
:1006E000521E0DD401F8013BFAE710F8013BCB1A7A
:1006F000921C03E013F8015B01F8015B521EF9D56F
:10070000A142D8D3002070BD21B1826842F001021D
:10071000826003E0826822F001028260704700007C
:1007200010B504461248844208D10121401501F059
:10073000C5FA0021601501F0C1FA17E00D488442A6
:1007400008D10121001501F0B9FA0021201501F0AE
:10075000B5FA0BE00848844208D10121C80301F032
:10076000ADFA00214FF4004001F0A8FA10BD0000DE
:100770000024014000280140003C014001460020C7
:100780008A6802F004020AB1012000E000207047EC
:100790000146C86C80B270470246002013680B40C7
:1007A0000BB1012000E000207047014600208A685C
:1007B00002F008020AB1012000E0002070470000AA
:1007C00030B502460020002350680F4C20400D79C0
:1007D0000C6844EA05242043506090680B4C20408C
:1007E000D1E902542C434D7944EA450420439060FA
:1007F000D06A20F470000C7C641EE4B2234340EA0B
:100800000350D06230BD0000FFFEF0FFFDF7F1FFA6
:10081000F0B504460D4600200021092D11DDE068E9
:10082000A5F10A0606EB4607072606FA07F18843F4
:10083000A5F10A0606EB460603FA06F10843E06056
:100840000CE0206905EB4507072606FA07F1884307
:1008500005EB450603FA06F108432061072A0FDA83
:10086000606B561E06EB86071F2606FA07F18843C3
:10087000561E06EB860605FA06F10843606322E081
:100880000D2A0FDA206BD61F06EB86071F2606FA05
:1008900007F18843D61F06EB860605FA06F10843E2
:1008A000206310E0E06AA2F10D0606EB86071F2622
:1008B00006FA07F18843A2F10D0606EB860605FA53
:1008C00006F10843E062F0BD816841F008018160F3
:1008D000704721B1826842F4A002826003E082681E
:1008E00022F4A00282607047816841F004018160B7
:1008F000704700007CB5002000900190002528483A
:1009000000788DF8000026480088000A8DF8010064
:10091000234880788DF8020021484088000A8DF82D
:1009200003001F4800798DF804001D488088000AE4
:100930008DF80500002405E01DF804002844C5B228
:10094000601CC4B2062CF7DBE8B28DF80600552017
:1009500002F00AF9032002F007F9062002F004F978
:100960009DF8000002F000F99DF8010002F0FCF88B
:100970009DF8020002F0F8F89DF8030002F0F4F888
:100980009DF8040002F0F0F89DF8050002F0ECF884
:100990009DF8060002F0E8F8BB2002F0E5F87CBD07
:1009A000B40000202DE9F04107460C460025002642
:1009B00005E0384600F0E4FB0544701CC6B2A642D0
:1009C000F7DBB5FBF4F080B2BDE8F08110B500F0C4
:1009D0000BF8044603492046FFF7C8FB04462046AF
:1009E00010BD00000000A04070B505210420FFF7F5
:1009F000D9FF05462846FFF7D5FC06460249FFF712
:100A0000B5FB0446204670BD3333533A00B587B07A
:100A100001214FF4017001F041F94FF4004001F061
:100A200011F91020ADF8040000208DF8070001A98D
:100A3000174800F015FB1748FFF772FE00200290E0
:100A40008DF80C008DF80D004FF46020049000200C
:100A5000059001208DF8180002A90E48FFF7B0FE9E
:100A600001210C48FFF750FE0A48FFF72DFF00BF99
:100A70000848FFF79AFE0028FAD10648FFF734FF2E
:100A800000BF0448FFF77AFE0028FAD107B000BD86
:100A900000080140002401407CB500200090019036
:100AA0000025284800788DF8000026480088000AB4
:100AB0008DF80100234880788DF802002148408895
:100AC000000A8DF803001F4800798DF804001D48C6
:100AD0008088000A8DF80500002405E01DF8040058
:100AE0002844C5B2601CC4B2062CF7DBE8B28DF80E
:100AF0000600552002F038F8052002F035F80620EF
:100B000002F032F89DF8000002F02EF89DF8010086
:100B100002F02AF89DF8020002F026F89DF8030082
:100B200002F022F89DF8040002F01EF89DF805007E
:100B300002F01AF89DF8060002F016F8BB2002F049
:100B400013F87CBDC400002010B54FF400510248DA
:100B500000F011FB10BD0000000C014010B54FF477
:100B60000051024800F009FB10BD0000000C0140DC
:100B70000348007808B9012070470020FCE7000016
:100B80002001002070B515480078F8B1FFF71EFF6E
:100B900005461349FFF7EAFA0446FFF719FC114925
:100BA000086008460068FFF7F4FB04460E49FFF7AB
:100BB000A7FC0CD20D480068401C0C490860084690
:100BC0000068642806DD00200449087002E0002067
:100BD000064908600148007870BD0000200100202F
:100BE0000000C842240100200100704428010020B8
:100BF000002004E00021074A1154411CC8B20649F4
:100C000009788842F6DB0020034908700349087020
:100C100070470000A4010020AB000020AA000020C3
:100C20003A490A780978491C384B19703849885470
:100C30000978552903D000211A46117070473349AD
:100C400009780B2900DAF9E73149497850390A293E
:100C500056D2DFE801F0050D151D252D353D454D1A
:100C60002C492B4A921C13680B6052684A6047E07B
:100C70002949274A921C13680B6052684A603FE07A
:100C80002649234A921C13680B6052684A6037E079
:100C900023491F4A921C13680B6052684A602FE078
:100CA00020491B4A921C13680B6052684A6027E077
:100CB0001D49174A921C13680B6052684A601FE076
:100CC0001A49134A921C13680B6052684A6017E075
:100CD00017490F4A921C13680B6052684A600FE074
:100CE00014490B4A921C13680B6052684A6007E073
:100CF0001149074A921C13680B6052684A6000BF92
:100D000000BF0021014A117000BF97E715010020C4
:100D1000B3010020AC000020B4000020BC00002083
:100D2000C4000020CC000020D4000020DC00002003
:100D3000E4000020EC000020F400002030B5034661
:100D40004FF0E024A169254C248803FB04F2002025
:100D50004FF0E0246469B2FBF4F4214D2C704FF0A5
:100D6000E0246469B2FBF4F504FB1520814215D937
:100D7000081A00BF1A4C2478002CFBD10A2806D28E
:100D800000BF4FF0E024A4690A2CFAD824E000BF89
:100D90004FF0E024A4698442FAD81DE0104C247876
:100DA000641C0F4D2C704FF0E02464690C44201A31
:100DB00000BF0B4C2478002CFBD10A2806D200BFC0
:100DC0004FF0E024A4690A2CFAD805E000BF4FF0E8
:100DD000E024A4698442FAD830BD00001801002044
:100DE0001B0100200146022902D105480068704716
:100DF000042902D103480068F9E70020F7E7000062
:100E00002C0100203001002010B500F003F800F0A4
:100E100063F810BD00B587B00121022000F01EFF6D
:100E20000121082000F03AFF4020ADF80000042026
:100E30008DF803006946264800F012F901210820C8
:100E400000F02CFF8020ADF8000004208DF8030096
:100E500069461F4800F004F904A801F0FDFD0020D8
:100E6000ADF810004FF6FF70ADF814000020ADF89B
:100E70001600ADF8120004A9164801F09BFD0023EE
:100E80001A460321134801F067FB01A801F0ECFBAF
:100E90000A20ADF80C0001A90E4801F08FFB0121DA
:100EA0000C4801F053FA012211460A4801F0E5FB13
:100EB0000021084801F04FFD47F6FF700549243135
:100EC00008800121034801F047FA07B000BD000087
:100ED000000C01400004004000B587B0012104204F
:100EE00000F0BCFE0121082000F0D8FE4020ADF843
:100EF000000004208DF803006946264800F0B0F891
:100F00000121082000F0CAFE8020ADF80000042076
:100F10008DF8030069461F4800F0A2F804A801F00C
:100F20009BFD0020ADF810004FF6FF70ADF81400E7
:100F30000020ADF81600ADF8120004A9164801F023
:100F400039FD00231A460321134801F005FB01A8CF
:100F500001F08AFB0A20ADF80C0001A90E4801F04F
:100F60002DFB01210C4801F0F1F9012211460A483C
:100F700001F083FB0021084801F0EDFC47F6FF700B
:100F80000549243108800121034801F0E5F907B043
:100F900000BD0000000C0140000800400146002098
:100FA000022902D0042914D109E00B4A128847F61D
:100FB000FF739A1A10B21A46074B1A800AE0074AC2
:100FC000128847F6FF739A1A10B21A46034B1A801A
:100FD00000E000BF00BF7047240400402408004028
:100FE00010B50446022C02D0042C12D108E00220D5
:100FF000FFF7D4FF08490968081A0749086009E0A3
:101000000420FFF7CBFF054909680844034908603D
:1010100000E000BF00BF10BD2C0100203001002007
:1010200008B50121112000F039FE0121092000F04E
:1010300035FE4FF40050ADF8000003208DF802009B
:1010400010208DF803006946034800F009F869464E
:10105000024800F005F808BD00100140000C0140F6
:101060002DE9F0410246002500260020002300243F
:10107000002791F803C00CF00F0591F803C00CF0A5
:10108000100CBCF1000F03D091F802C04CEA05052A
:1010900091F800C0BCF1000F31D0146800202BE0A3
:1010A0004FF0010C0CFA00F3B1F800C00CEA030693
:1010B0009E4220D183004FF00F0C0CFA03F7BC4383
:1010C00005FA03FC4CEA040491F803C0BCF1280FB4
:1010D00006D14FF0010C0CFA00FCC2F814C00AE073
:1010E00091F803C0BCF1480F05D14FF0010C0CFA88
:1010F00000FCC2F810C0401C0828D1D31460B1F81D
:1011000000C0BCF1FF0F34DD546800202EE000F178
:10111000080C4FF0010808FA0CF3B1F800C00CEA13
:1011200003069E4221D183004FF00F0C0CFA03F707
:10113000BC4305FA03FC4CEA040491F803C0BCF17B
:10114000280F05D100F1080C08FA0CF8C2F8148039
:1011500091F803C0BCF1480F07D100F1080C4FF023
:10116000010808FA0CF8C2F81080401C0828CED3F9
:101170005460BDE8F0814161704701617047000033
:1011800010B504460723012221460948FFF740FB1A
:1011900001210748FFF79DFB00BF02210448FFF72C
:1011A000FBFA0028F9D00248FFF7F2FA10BD000060
:1011B000002401400148007870470000AB00002087
:1011C0002DE9F047044689460220FFF709FF022077
:1011D000FFF708FE284908600420FFF701FF0420FC
:1011E000FFF700FE2549086023490968244A126870
:1011F000881AFFF7DCF80746224A234BFEF7E8FF80
:101200000546FFF7FEF820601C4909681F4A12686E
:10121000881AFFF7CCF805461A4A1B4BFEF7D8FF91
:101220000746FFF7EEF8C9F8000013490968144AA9
:101230001268881AFFF7BBF80546154A154BFEF7EA
:10124000C7FF154A03C20D490968104A1268881A77
:10125000FFF7ADF805460E4A0E4BFEF7B9FF0F4AF1
:1012600003C2054800680649086004480068074949
:101270000860BDE8F08700008000002084000020A6
:1012800088000020F701486DE25C35408C000020AA
:1012900061380B9F4242224098000020A0000020AD
:1012A00000487047A40100207CB500200090019008
:1012B0000025284800788DF8000026480088000A9C
:1012C0008DF80100234880788DF80200214840887D
:1012D000000A8DF803001F4800798DF804001D48AE
:1012E0008088000A8DF80500002405E01DF8040040
:1012F0002844C5B2601CC4B2062CF7DBE8B28DF8F6
:101300000600552001F030FC042001F02DFC0620E1
:1013100001F02AFC9DF8000001F026FC9DF8010078
:1013200001F022FC9DF8020001F01EFC9DF8030074
:1013300001F01AFC9DF8040001F016FC9DF8050070
:1013400001F012FC9DF8060001F00EFCBB2001F03C
:101350000BFC7CBDBC0000200148007870470000F9
:10136000AA00002010B54FF400510248FFF705FF16
:1013700010BD00000010014010B54FF400510248AC
:10138000FFF7F9FE10BD00000010014008B5012173
:10139000042000F083FC0F20ADF8000018208DF829
:1013A000030003208DF8020069460248FFF758FE4B
:1013B00008BD00000008014010B521492148FFF791
:1013C000FFFE2148006810B92048006818B31E4885
:1013D000008800B21E4908841C48008800B21D49DC
:1013E00008841848008800B21949488414480088C5
:1013F00000B218494884184818498268184800F013
:1014000045FB164801681648006800F0C1F8002046
:101410001449086012E01049886800F04FFA11483A
:1014200000680D2804D20F480068401C0D49086070
:101430000C480068032801D100F0FEF810BD000040
:101440007400002070000020780000207C00002044
:101450005C01002080010020500100206C00002071
:1014600068000020900000202DE9FC410020009041
:101470000190002500221346434903C9FFF70CF8E9
:1014800012D200208DF800003F49D1E9007121F00F
:1014900000413846FEF7D4FF86B2F0B28DF8010065
:1014A000300A8DF802000EE0FF208DF8000036496A
:1014B00003C9FEF7C5FF86B2F0B28DF80100300A0D
:1014C0008DF8020000BF00221346304903C9FEF721
:1014D000E3FF12D200208DF803002C49D1E90071FE
:1014E00021F000413846FEF7ABFF86B2F0B28DF82E
:1014F0000400300A8DF805000EE0FF208DF803008F
:10150000224903C9FEF79CFF86B2F0B28DF80400B1
:10151000300A8DF8050000BF002405E01DF8040026
:101520002844C5B2601CC4B2062CF7DBE8B28DF8C3
:101530000600552001F018FB022001F015FB0620E3
:1015400001F012FB9DF8000001F00EFB9DF8010078
:1015500001F00AFB9DF8020001F006FB9DF8030074
:1015600001F002FB9DF8040001F0FEFA9DF8050071
:1015700001F0FAFA9DF8060001F0F6FABB2001F03E
:10158000F3FABDE8FC81000098000020A0000020D4
:1015900070B504460D462146012000F0D3F82946D7
:1015A000022000F0CFF870BD2DE9F05F82460C46B6
:1015B000934699462046FEF7FAFE07464FF02D3235
:1015C0001A4BFEF705FE0546FEF71BFF04B2484620
:1015D000FEF7EDFE05464FF02D32144BFEF7F8FDF9
:1015E0000746FEF70EFF0FFA80F9B4F5616F01DDD3
:1015F0004FF46164B9F5616F01DD4FF46169BAF1CF
:10160000000F03D160420A49086001E00848046005
:10161000BBF1000F04D1C9F100000649086002E0E7
:101620000448C0F80090BDE8F09F00002D2D054053
:10163000780000207C0000204FF4616081068886DD
:1016400008878887014908807047000040000040F3
:1016500030B587B005460C460121084600F0FEFA79
:101660004FF0804000F084FE681E80B2ADF8140098
:10167000ADF810400020ADF81600ADF8120004A936
:101680004FF0804001F096F9684601F05AF9602069
:10169000ADF800000120ADF802000020ADF8060012
:1016A0000220ADF808006946400700F0EFFF08216E
:1016B000C80601F037F86020ADF800000120ADF851
:1016C00002000020ADF806000220ADF808006946CF
:1016D000400701F031F80821C80601F07FF86020CA
:1016E000ADF800000120ADF802000020ADF80600C2
:1016F0000220ADF808006946400701F07DF8082196
:10170000C80601F0C9F86020ADF800000120ADF86E
:1017100002000020ADF806000220ADF8080069467E
:10172000400701F0C3F80821C80601F0FDF80121C7
:10173000880700F0FFFD0121880700F00DFE07B0CB
:1017400030BD000070B505460C46B4F5616F01DD93
:101750004FF4616414F5616F00DA084C012D02D07A
:10176000022D08D103E0204600F00AF804E02046EC
:1017700000F01AF800E000BF00BF70BDF0F1FFFFFD
:1017800010B50446002C05DB00204FF08041888610
:101790000C8707E0204601F009FD4FF08041888664
:1017A0000020088710BD000010B50446002C06DBA1
:1017B0004FF080418C8700200649088008E0002017
:1017C0004FF080418887204601F0F0FC01490880F5
:1017D00010BD00004000004070B5002100230F2222
:1017E000C47804B3154C246804F4E064C4F5E064E0
:1017F000210AC1F10403CA40447804FA03F1847851
:101800001440214309010E4C0678A155047804F0D8
:101810001F050124AC4005786D11AD0005F1E025F0
:10182000C5F8004109E0047804F01F050124AC402C
:10183000044D0678761145F8264070BD0CED00E0A9
:1018400000E400E080E100E002490143024A116047
:10185000704700000000FA050CED00E000B56620BE
:1018600014490861002048614FF4805088614FF4AA
:10187000E100C8600020C8830120087700200884A8
:101880004884084601F099FC66200B490861002055
:1018900048614FF4805088614FF4E100C860002037
:1018A000C88301200877002008844884084601F096
:1018B00084FC00BD5C01002080010020024908601A
:1018C0000021024A11607047000000201C00002027
:1018D000F0B504460D4600210023291BD2E900077C
:1018E000CF1B166906FB0700566906FB010002279D
:1018F000566807FB161697683E44976907FB060370
:101900001360506890605160D068984200DAD368E4
:10191000D0684042984201DDD06843429812F0BD41
:101920002DE9F04F89B004460D460026032003E060
:10193000215C0E44411CC8B2A91E8142F8DCF6B2FB
:10194000601910F8027CBE4202D009B0BDE8F08FE9
:101950002078552800D0F8E760780890089801288A
:1019600004D0072819D008287ED13FE094F803A0BE
:1019700094F80590207940EA092994F806B094F883
:101980000880E07940EA08280FFA88F35A460FFAEF
:1019900089F15046FFF708FE73E0E0780790207960
:1019A0000690079830B1069810B1FFF7E5FC01E00A
:1019B000FFF7D8FC94F8058094F80690B8F1000F72
:1019C00007D0B9F1000F02D0FFF7C8F801E0FFF728
:1019D000BBF894F807A094F808B0BAF1000F04D04F
:1019E000BBF1000F01D001F043FB4AE094F8048002
:1019F000E07840EA082894F80690607940EA0929DE
:101A000094F808A0E07940EA0A2A4046FEF7CAFCAA
:101A10000190FEF72EFD00221B4BCDE90201FEF7DF
:101A200049FCCDE90401FEF74FFD83464846FEF729
:101A3000B9FC0190FEF71DFD0022134BCDE9020118
:101A4000FEF738FCCDE90401FEF73EFD0790504655
:101A5000FEF7A8FC0190FEF70CFD00220A4BCDE931
:101A60000201FEF727FC00E00AE0CDE90401FEF7E1
:101A70002BFD06905846DDE9062100F037F800E01E
:101A800000BF00BF00BF60E700408F402DE9F0417C
:101A900006460F46904634683D6842461049114854
:101AA00000F096F80F48B0F91E0004440C48B0F955
:101AB0001E000544B4F5616F01DD4FF4616414F557
:101AC000616F00DA084CB5F5616F01DD4FF46165B7
:101AD00015F5616F00DA044D34603D60BDE8F081BA
:101AE000800100205C010020F0F1FFFF2DE9F041B2
:101AF00006460C46154630493046FEF70BFD09D325
:101B00002D492046FEF706FD04D32B492846FEF753
:101B100001FD01D2BDE8F081284806602848046034
:101B200028480560254801684FF08940FEF71EFBF4
:101B30000746FEF74DFC24490861214801684FF033
:101B40008940FEF713FB0746FEF742FC1E49486139
:101B50001C4801684FF08940FEF708FB0746FEF776
:101B600037FC19498861084601F027FB13480168D2
:101B70004FF08940FEF7FAFA0746FEF729FC1349B1
:101B800008610F4801684FF08940FEF7EFFA0746F9
:101B9000FEF71EFC0D4948610A4801684FF0894074
:101BA000FEF7E4FA0746FEF713FC08498861084689
:101BB00001F003FB00BFADE7000020412000002042
:101BC00024000020280000205C010020800100206B
:101BD00070B505460C461646002019490860287F56
:101BE00001280DD1B5F92210B5F920002A46FFF7DA
:101BF0006FFE404212490988401A00B2E88306E0AD
:101C00000020E883284601F0D8FA02202877207FB8
:101C100001280DD1B4F92210B4F920002246FFF7B3
:101C200057FE404206490988084400B2E08306E0B6
:101C30000020E083204601F0C0FA0220207770BD2A
:101C40001C00002001460020034A506820F4404058
:101C500008435060704700000010024029B1064A56
:101C6000D2690243044BDA6104E0034AD269824339
:101C7000014BDA61704700000010024029B1064AAA
:101C800012690243044B1A6104E0034A1269824359
:101C9000014B1A61704700000010024029B1064A4A
:101CA00092690243044B9A6104E0034A92698243B9
:101CB000014B9A61704700000010024029B1064AAA
:101CC000D2680243044BDA6004E0034AD2688243DC
:101CD000014BDA60704700000010024030B500216F
:101CE0000022002400232D4D6D6805F00C0121B168
:101CF000042905D0082923D105E0294D056022E0FB
:101D0000274D05601FE0254D6D6805F47012234DC9
:101D10006D6805F48034022505EB92421CB9214D13
:101D2000554305600BE01D4D6D6805F400351DB190
:101D30001C4D5543056002E0194D5543056002E016
:101D4000174D056000BF00BF144D6D6805F0F00130
:101D50000909154D6B5C0568DD4045600F4D6D68E8
:101D600005F4E061090A104D6B5C4568DD40856053
:101D70000A4D6D6805F46051C90A0B4D6B5C4568EE
:101D8000DD40C560054D6D6805F44041890B074D88
:101D90006B5CC568B5FBF3F5056130BD0010024012
:101DA00000127A0000093D003C0100204C01002097
:101DB0002DE9FC4100200090019000250026FEF74F
:101DC00005FE80462A49FEF7D1F90746FEF700FBDB
:101DD0000646642096FBF0F0C0B28DF80000642047
:101DE00096FBF0F100FB1160C0B28DF801000020FD
:101DF0008DF802008DF803008DF804008DF80500C1
:101E0000002405E01DF804002844C5B2601CC4B2DB
:101E1000062CF7DBE8B28DF80600552000F0A4FE92
:101E2000062000F0A1FE062000F09EFE9DF80000B6
:101E300000F09AFE9DF8010000F096FE9DF8020069
:101E400000F092FE9DF8030000F08EFE9DF8040065
:101E500000F08AFE9DF8050000F086FE9DF8060061
:101E600000F082FEBB2000F07FFEBDE8FC81000098
:101E70000000C84210B500F001F810BD0CB50020FC
:101E8000019000903348006840F480303149086088
:101E900000BF3048006800F4003000900198401CFA
:101EA0000190009818B90198B0F5A06FF1D12948B8
:101EB000006800F4003010B10120009001E0002023
:101EC00000900098012843D12348006840F010009A
:101ED000214908600846006820F0030008600846B1
:101EE000006840F0020008601A48406819494860DC
:101EF0000846406848600846406840F48060486092
:101F00000846406820F47C1048600846406840F469
:101F1000E81048600846006840F08070086000BF24
:101F20000C48006800F000700028F9D009484068AB
:101F300020F00300074948600846406840F002006E
:101F4000486000BF0348406800F00C000828F9D141
:101F50000CBD000000100240002002400120054995
:101F600008700548007820B103480078401E0249F7
:101F7000087070471A0100201B01002038B5044684
:101F80000D4600204FF0E021886105FB04F000EBD6
:101F90004001C1EBC0104FF0E0214861032008610F
:101FA000E11704EB5171C1F3C701114A11701046DA
:101FB000007800EB4001C1EBC0104FF6FF7101EA61
:101FC000C0000C4908804FF4C060FFF73DFCFF20C3
:101FD0008DF8000003208DF8010000208DF802002C
:101FE00001208DF803006846FFF7F6FB38BD0000BE
:101FF000160100201801002010B51348006840F0B9
:1020000001001149086008464068104908400E491F
:102010004860084600680E4908400B4908600846B9
:10202000006820F4802008600846406820F4FE0024
:1020300048604FF41F008860FFF71CFF4FF00060FE
:102040000449086010BD0000001002400000FFF8C5
:10205000FFFFF6FE08ED00E0F0B50C461546002245
:102060000021068C4FF6FE773E400684028B018CE1
:102070004FF60C7632407E1C06EA03162E4332439E
:10208000104EB0420ED0104EB0420BD0B0F1804F87
:1020900008D00E4EB04205D00D4EB04202D00D4ECB
:1020A000B04206D14FF6FD76314044F0010631438F
:1020B00005E04FF6F576314044F0010631430283E6
:1020C0000184F0BD002C01400034014000040040B8
:1020D00000080040000C0040F0B50C4615460022F8
:1020E00000210026078C4FF6EF7C07EA0C070784D7
:1020F000028B018C4FF6FF7707EA041640F6FF4784
:102100003A404FF6FF7707EA03373A434FF6FF7737
:1021100007EA05273A43114FB8420ED0104FB84294
:102120000BD0B0F1804F08D00E4FB84205D00E4F03
:10213000B84202D00D4FB84206D14FF6DF77394092
:1021400046F01007394305E04FF65F77394044F019
:102150001007394302830184F0BD0000002C0140C8
:10216000003401400004004000080040000C004022
:10217000F0B50C461546002200210026078C4FF6CC
:10218000FF6C07EA0C070784828B018C4FF6FF7700
:1021900007EA04264FF60C773A404FF6FF7707EA36
:1021A00003172F433A43114FB8420ED0104FB84295
:1021B0000BD0B0F1804F08D00E4FB84205D00E4F73
:1021C000B84202D00D4FB84206D14FF6FF57394002
:1021D00046F48077394305E04FF2FF57394044F425
:1021E0008077394382830184F0BD0000002C0140D8
:1021F000003401400004004000080040000C004092
:10220000F0B50C461546002200210026078C4EF63C
:10221000FF7C07EA0C070784828B018C4FF6FF775F
:1022200007EA043640F6FF473A404FF6FF7707EAE1
:1022300005273A434FF6FF7707EA03373A43114F32
:10224000B8420ED0104FB8420BD0B0F1804F08D03A
:102250000E4FB84205D00E4FB84202D00D4FB842D3
:1022600006D14DF6FF77394046F48057394305E0F3
:1022700047F6FF57394044F480573943828301843D
:10228000F0BD0000002C014000340140000400407B
:1022900000080040000C00401FB50121C802FFF7F4
:1022A000FDFC00208DF80C006320ADF8080041F61D
:1022B0001F40ADF804000020ADF80A00ADF806009C
:1022C00001A9104800F076FB012211460D4800F0EC
:1022D000D4F94FF4A060FFF7B7FA19208DF8000089
:1022E00002208DF8010003208DF8020001208DF8F6
:1022F00003006846FFF770FA0121024800F02CF84D
:102300001FBD0000002C014010B50121084800F05D
:1023100044F960B1012000F0B3FB10B1012000F0DE
:10232000A5FBFFF749F80121014800F012F810BDA4
:10233000002C014021B1028842F08002028004E0BA
:1023400002884FF67F731A4002807047CA430282A8
:102350007047CA430282704721B1028842F00102ED
:10236000028004E002884FF6FE731A400280704734
:1023700010B504466848844208D10121C014FFF713
:102380009DFC0021E014FFF799FCC4E0B4F1804FFC
:1023900008D101210846FFF771FC00210120FFF759
:1023A0006DFCB8E05D48844208D101210220FFF7AE
:1023B00065FC00210220FFF761FCACE05848844234
:1023C00008D101210420FFF759FC00210420FFF768
:1023D00055FCA0E05348844208D101210820FFF7B2
:1023E0004DFC00210820FFF749FC94E04E48844250
:1023F00008D101211020FFF741FC00211020FFF738
:102400003DFC88E04948844208D101212020FFF7A3
:1024100035FC00212020FFF731FC7CE04448844259
:1024200008D101214014FFF749FC00216014FFF797
:1024300045FC70E03F48844209D10121C804FFF700
:102440003DFC00214FF40020FFF738FC63E03A48E0
:10245000844209D101210805FFF730FC00214FF427
:102460008010FFF72BFC56E03448844209D101214B
:102470004805FFF723FC00214FF40010FFF71EFC76
:1024800049E02F48844208D101214020FFF7F6FBA4
:1024900000214020FFF7F2FB3DE02A48844208D1AA
:1024A00001218020FFF7EAFB00218020FFF7E6FBF7
:1024B00031E02548844208D101218015FFF7DEFB79
:1024C0000021A015FFF7DAFB25E02048844209D15E
:1024D00001210804FFF7F2FB00214FF48030FFF7E1
:1024E000EDFB18E01A48844209D101214804FFF7A6
:1024F000E5FB00214FF40030FFF7E0FB0BE015484F
:10250000844208D101218804FFF7D8FB00214FF451
:102510008020FFF7D3FB10BD002C014000040040D9
:1025200000080040000C0040001000400014004073
:1025300000340140004C0140005001400054014073
:1025400000180040001C00400020004000400140F6
:102550000044014000480140F0B50C4615461E46B7
:102560000021002200230189028B038C4FF6F877AB
:10257000394021434FF6FC473A4040F201173A43B5
:102580004FF6DD773B404FF6FF7707EA06172F43FC
:102590003B43018102830384F0BD30B50246002035
:1025A00000230024158A05EA0103958905EA010440
:1025B00013B10CB1012000E0002030BD70B505461C
:1025C0000C46244885420ED0234885420BD0B5F1F5
:1025D000804F08D02148854205D02148854202D04D
:1025E0002048854200D100E000BF208850B92389EF
:1025F000A28861882846FFF72FFDE188284600F071
:10260000ACF925E0208804280AD12389A2886188B2
:102610002846FFF761FDE188284600F0A7F917E09A
:10262000208808280AD12389A28861882846FFF7D4
:102630009FFDE188284600F0A6F909E02389A288D9
:1026400061882846FFF7DCFDE188284600F0A4F900
:1026500070BD0000002C0140003401400004004027
:1026600000080040000C0040002101804180012151
:1026700081800021C180018170471AB183890B4399
:10268000838102E083898B438381704770B5002486
:1026900000220023058C4FF6FE7635400584028C1F
:1026A0008388048B4FF68F752C40B51E2C400D8807
:1026B0002C43751E2A400D892A434D882A43144D08
:1026C000A8420BD0134DA84208D0134DA84205D004
:1026D000124DA84202D0124DA84213D14FF6F77501
:1026E0002A404D892A434FF6FB752A408D882A439C
:1026F0004FF6FF652B404FF6FF552B408D892B433E
:10270000CD892B4383800483CD888586028470BD68
:10271000002C0140003401400040014000440140D1
:10272000004801400A460021018B4FF6F77319401B
:10273000114301837047000070B50024002200237C
:10274000058C4FF6EF7635400584028C8388048B28
:1027500048F6FF752C404FF6FF452C400D884FF68C
:10276000FF7606EA05252C434FF6DF752A400D89D2
:1027700006EA05152A434D8806EA05152A43154D34
:10278000A84202D0144DA8421DD14FF67F752A40B1
:102790004D894FF6FF7606EA05152A434FF6BF75B9
:1027A0002A408D8806EA05152A434FF6FF352B404F
:1027B0004FF2FF752B408D8906EA85052B43CD89A5
:1027C00006EA85052B4383800483CD880587028430
:1027D00070BD0000002C0140003401400A46002179
:1027E000018B4FF2FF7319404FF6FF7303EA022388
:1027F000194301837047000070B5002400220023B4
:10280000058C4FF6FF6635400584028C8388848BE7
:102810004FF68F752C404FF6FC752C400D882C43DD
:102820004FF6FF552A400D894FF6FF7606EA05253B
:102830002A434D8806EA05252A43154DA84202D0B1
:10284000144DA8421DD14FF2FF752A404D894FF615
:10285000FF7606EA05252A434FF6FF352A408D8884
:1028600006EA05252A434EF6FF752B404DF6FF7507
:102870002B408D8906EA05152B43CD8906EA0515FF
:102880002B4383808483CD888587028470BD0000BC
:10289000002C0140003401400A460021818B4FF694
:1028A000F7731940114381837047000070B500220F
:1028B00000230024058C4EF6FF7635400584038CFA
:1028C0008488828B48F6FF752A404FF6FF452A40E0
:1028D0000D884FF6FF7606EA05252A434DF6FF756B
:1028E0002B400D8906EA05352B434D8806EA053550
:1028F0002B430B4DA84202D00A4DA84208D14BF6FB
:10290000FF752C408D894FF6FF7606EA85152C431E
:1029100084808283CD88A0F84050038470BD00007D
:10292000002C0140003401400A460021818B4FF207
:10293000FF7319404FF6FF7303EA022319438183A3
:1029400070470021018041808180C18001814181E7
:102950008181C181704781847047028B4FF6F37388
:102960001A400283028B0A4302837047028B4FF2A4
:10297000FF331A400283028B4FF6FF7303EA0123F1
:102980001A4302837047828B4FF6F3731A40828397
:10299000828B0A4382837047828B4FF2FF331A4047
:1029A0008283828B4FF6FF7303EA01231A438283EB
:1029B00070470000002202881D4B98420ED01D4B2C
:1029C00098420BD0B0F1804F08D01B4B984205D0F5
:1029D0001A4B984202D01A4B984204D14FF68F738B
:1029E0001A404B881A43174B984207D0164B98420F
:1029F00004D04FF6FF431A40CB881A4302808B88DD
:102A000083850B8803850A4B98420BD0094B98426B
:102A100008D00E4B984205D00D4B984202D00D4B7A
:102A2000984201D10B7A038601238382704700000C
:102A3000002C014000340140000400400008004028
:102A4000000C004000100040001400400040014015
:102A500000440140004801404FF6FF718180002191
:102A60000180C1804180017270470000012804D1BB
:102A700002490988491E014A11807047340100202B
:102A80000146012902D10348008870474FF6FF70C4
:102A9000FBE7000034010020012801D1014A118028
:102AA000704700003401002010B586B004460121B3
:102AB00044F20400FFF7F2F84FF40070ADF8140090
:102AC00018208DF8170003208DF8160005A924485A
:102AD000FEF7C6FA4FF48060ADF8140004208DF8BC
:102AE000170005A91E48FEF7BBFA01940020ADF8B7
:102AF0000800ADF80A00ADF80C00ADF810000C208D
:102B0000ADF80E0001A9174800F0B2F9002240F21A
:102B10002771144800F086F9012240F2255111482E
:102B200000F080F940210F4800F02EF901210D48F6
:102B300000F042F94FF4A060FEF786FE25208DF8E4
:102B4000000001208DF8010003208DF80200012013
:102B50008DF803006846FEF73FFE06B010BD00008A
:102B6000000801400038014010B5044607480178CC
:102B70000078401C054A107005484454012240F278
:102B80002771044800F04EF910BD00001D0100201F
:102B9000AD0200200038014010B586B00446012186
:102BA0000820FFF77BF801218804FFF757F84FF45E
:102BB0008060ADF8140018208DF8170003208DF800
:102BC000160005A92348FEF74BFA4FF40060ADF854
:102BD000140004208DF8170005A91E48FEF740FADE
:102BE00001940020ADF80800ADF80A00ADF80C0023
:102BF000ADF810000C20ADF80E0001A9164800F049
:102C000037F9002240F22771134800F00BF9012236
:102C100040F22551104800F005F940210E4800F01F
:102C2000B3F801210C4800F0C7F84FF4A060FEF79C
:102C30000BFE27208DF8000001208DF801000420F4
:102C40008DF8020001208DF803006846FEF7C4FDF0
:102C500006B010BD000C01400048004010B504460D
:102C6000074801780078401C054A10700548445414
:102C7000012240F22771044800F0D4F810BD000092
:102C80001F010020AD0300200048004010B50024C3
:102C900040F22771164800F09BF8D8B11548027829
:102CA0000078401C134B18701348815C104800F0EA
:102CB00050F91048007811490978884205D100225E
:102CC00040F227710A4800F0ADF840F22771084839
:102CD00000F063F840F22551054800F079F830B172
:102CE000034800F031F9C4B2204600F037F910BDB6
:102CF000003801401C010020AD0200201D01002011
:102D000010B540F227711C4800F062F8E0B11B4892
:102D100002780078401C194B18701948815C1648DD
:102D200000F017F940F22771134800F036F8134805
:102D3000007814490978884217D1002240F227719F
:102D40000D4800F06FF810E040F225510A4800F0FD
:102D50003FF850B10849091D0988C8B2FDF760FF66
:102D600040F22551044800F018F84FF45871024819
:102D700000F013F810BD0000004800401E010020C4
:102D8000AD0300201F01002001F40072B2F5007FA6
:102D900000D100BFCA430280704710B50022002353
:102DA00040F66A14A14200D100BF0A1201249440E7
:102DB000A3B2DC43048010BD21B1828942F40052E9
:102DC000828104E082894DF6FF731A408281704748
:102DD00070B50246002400230025002040F66A1644
:102DE000B14200D100BFC1F3421501F01F0301261B
:102DF00006FA03F3012D02D19689334006E0022D35
:102E000002D1168A334001E0968A33400C12012623
:102E100006FA04F41688344013B10CB1012000E026
:102E2000002070BDF0B503460024002600250020D8
:102E300040F66A17B94200D100BF1846C1F34214E8
:102E400001F01F06012707FA06F5012C01D10C300D
:102E500004E0022C01D1103000E014301AB10768F0
:102E60002F43076002E00768AF430760F0BD000032
:102E70002DE9F04786B005460E460024A24600BF65
:102E8000A1460027B08900B100BF2F462C8A4CF61E
:102E9000FF700440F08804432C82AC894EF6F31096
:102EA0000440B08831890843718908430443AC81E8
:102EB000AC8A4FF6FF400440B0890443AC8201A8BD
:102EC000FEF70CFF1F48874202D1DDF810A001E099
:102ED000DDF80CA0A88900F4004040B10AEBCA005C
:102EE00000EB0A1031684900B0FBF1F807E00AEB8B
:102EF000CA0000EB0A1031688900B0FBF1F86420C9
:102F0000B8FBF0F004012009642101FB1089A889B5
:102F100000F4004040B1322000EBC900B0FBF1F0FA
:102F200000F00700044308E0322000EB09106421A0
:102F3000B0FBF1F000F00F0004432C8106B0BDE8B7
:102F4000F08700000038014001468888C0F308007F
:102F50007047C1F308028280704700003749097842
:102F600031B1012913D0022926D0032962D142E0D0
:102F7000552806D15521324A117001212F4A11706E
:102F800004E000212D4A11702D4A117053E00128F0
:102F900003D0072801D0082807D129494870022109
:102FA000264A1170274A117005E00021234A11704A
:102FB000234A117051703EE0411D234A11701146A1
:102FC00009780F290ADB00211E4A11701B4A117073
:102FD0001B4A117051701C4A11702CE01849194A93
:102FE0001278885417490978491C164A1170032130
:102FF000124A11701FE01249124A1278885411497E
:103000000978491C0F4A1170114609780E4A127846
:1030100091420EDB0C490978491E094A515CBB29D3
:1030200007D10121094A11700021064A1170034A93
:10303000117000E000BF00BF70470000A900002031
:10304000A4010020A8000020AB000020AA0000205E
:1030500002E008C8121F08C1002AFAD17047704761
:10306000002001E001C1121F002AFBD170470000BF
:1030700010B50C4800F0A6F86420FDF75FFE0A4882
:1030800000F0A0F86420FDF759FE084800F09AF817
:103090006420FDF753FE064800F094F86420FDF725
:1030A0004DFE10BDFC000020060100200B01002099
:1030B0001001002010B5094800F084F86420FDF7E5
:1030C0003DFE074800F07EF86420FDF737FE054816
:1030D00000F078F86420FDF731FE10BDFC00002000
:1030E00001010020100100200A214820FEF746FFC0
:1030F0004FF41650FFF750FD4FF4E130FFF7D4FCCA
:10310000FFF7D8FF4FF47A70FDF718FE4FF47A708E
:10311000FDF714FEFDF77AFCFDF782FFFEF736F9A6
:1031200000214FF46160FEF793FAFDF76DFEFFF7A3
:10313000B3F8FEF793FB4FF47A70FDF7FFFD01241F
:1031400033E0FEF709F950B1FEF734F80546FEF713
:10315000A7F806462946FEF7E3FBFDF749FD0120E7
:10316000FFF78EFC08BBFDF70DFDFDF701FD08B173
:10317000FDF7F4FCE11704EB91718910A4EB8101D8
:10318000491C012909D1FEF76FF9FDF7B3FBFEF7E2
:103190008BF8FDF781FCFEF70BFE641C082C00DBAE
:1031A000002401210846FFF777FCCAE70146002901
:1031B00001DA484200E008467047002101604160A2
:1031C0008160704770B50546002404E0285DFFF774
:1031D00045FD601CC4B2052CF8DB70BDFC31000855
:1031E0000000002050010000B20600083C32000838
:1031F000500100206007000060300008415DCDCC28
:10320000CC3E0802103D89142380402348431A16FF
:103210000401C6180AFFAA6988B5FFAA24010A3A60
:1032200001051A0405E1021F012D01020304040037
:0C32300009000607080902040608000057
:0400000508000131BD
:00000001FF
