:020000040800F2
:10000000C008002049010008510100085301000800
:1000100055010008570100085901000800000000C0
:100020000000000000000000000000005B0100086C
:100030005D010008000000005F0100087920000851
:100040006301000863010008630100086301000800
:1000500063010008630100086301000863010008F0
:1000600063010008630100086301000863010008E0
:1000700063010008630100086301000863010008D0
:1000800063010008630100086301000863010008C0
:1000900063010008630100086301000863010008B0
:1000A00063010008252400086301000863010008BB
:1000B0006301000863010008630100086301000890
:1000C0006301000863010008630100086301000880
:1000D00063010008A92D0008630100081D2E000817
:1000E0006301000863010008630100086301000860
:1000F0006301000863010008630100086301000850
:10010000630100086301000863010008630100083F
:10011000630100086301000863010008630100082F
:10012000630100086301000863010008630100081F
:10013000DFF810D000F09CFA0048004705320008B4
:10014000AFF30080C00800200648804706480047FB
:10015000FEE7FEE7FEE7FEE7FEE7FEE7FEE7FEE777
:10016000FEE7FEE7152100083101000880EA0102E0
:1001700010B502F00043400022D04A001FD0010E0B
:1001800001EB1261C0F35600C2F3560240F40000C6
:1001900042F40002A0FB022000047F39140400D0C6
:1001A000401C50EA124001D44000491EC2B20C0665
:1001B00004EBD010401C4008802A02D003E000204D
:1001C00010BD20F00100002900DA0020184310BD06
:1001D0002DE9FE4F81EA030404F0004421F00041C0
:1001E00000944FF0000B23F0004350EA01045ED06E
:1001F00052EA03045BD0C3F30A54C1F30A552C44FA
:10020000A4F2F3340194A0FB0254C1F3130141F4AE
:100210008011C3F3130343F4801301FB024400FB7A
:10022000034E840A970A44EA815447EA8357A4FBA1
:10023000076802958D0A05FB07854FEA932C04FB9E
:100240000C542705029D4FEA065847EA1637B5EBCE
:1002500008056EEB070C870E920E47EA811742EAFB
:100260008312A7FB0201B6EB0B0164EB00042B0D1C
:1002700043EA0C335E1844EB1C50DA465146E7FB68
:100280000201C5F313044FEA0B3343EA14534FEA58
:100290000432019C43EA0603A4F10C040294009C7E
:1002A000CDE900B400F096F903B0BDE8F08F00206E
:1002B0000146F9E72DE9F04D81EA030404F0004B13
:1002C00021F0004514464FF0000A23F0004150EAA7
:1002D000050220D054EA01021DD0C5F30A57024698
:1002E000C5F31303C1F31300C1F30A5640F480159C
:1002F00043F48013A7EB0608101BD64608F2FD381E
:1003000073EB050002D308F1010801E092185B418C
:10031000B8F1000F03DA00200146BDE8F08D00209F
:100320004FF48011064684460EE0171B73EB050759
:1003300005D3121B63EB050306434CEA010C490885
:100340004FEA300092185B4150EA0107EDD152EAC2
:10035000030012D082EA040083EA0501084305D0B5
:10036000101BAB4106D20122002306E000224FF011
:10037000004302E06FF0010253101AEB06004CEB51
:10038000085110EB0A0041EB0B01BDE8F04D00F005
:1003900012B9C10F80EAE0700844CA079623002111
:1003A00000F0DBB896230022114600F0D6B80EB557
:1003B000C10F80EAE0700844CA07002140F23343CD
:1003C0008DE80E000A460B4600F004F903B000BDAC
:1003D00000F0004220F00040C10DC0F3160040F4D0
:1003E00000007F2901DA00207047962903DCC1F163
:1003F0009601C84001E096398840002AF4D0404276
:10040000704770B5C1F30A5201F000450024C1F3F2
:10041000130140F2FF3341F480119A4201DA0020C7
:1004200070BD40F233439A42A2F2334203DC52429F
:1004300000F07AF800E090402C43F1D0404270BDCB
:10044000C1F30A5210B5C1F3130140F2FF3341F476
:1004500080119A4201DA002010BD40F233439A42E3
:10046000A2F2334203DC524200F05EF810BD90402D
:1004700010BD00F0004230F000400AD0C10D01F57F
:100480006071C0F3160042EA0151C20840071143EF
:10049000704700200146704730B5041E71F100041A
:1004A00004DB4FF00044404264EB0101141E73F181
:1004B000000405DB1C464FF00043524263EB04038B
:1004C0008B4208BF824230BD01F0004330B421F0BE
:1004D000004150EA010206D00A0DA2F56072C1F394
:1004E0001301002A02DC30BC00207047440F44EAAC
:1004F000C104C100E01830BC00EBC25000F024B8C9
:10050000002801DBC0F10040002901DBC1F10041FE
:1005100081427047002801DBC0F10040002901DB67
:10052000C1F1004188427047202A04DB203A21FAB9
:1005300002F00021704721FA02F3D040C2F12002FC
:1005400091400843194670470029A8BF7047401CD6
:10055000490008BF20F00100704710B4B0FA80FCD9
:1005600000FA0CF050EA010404BF10BC704749B116
:10057000CCF1200421FA04F411FA0CF118BF012186
:1005800021430843A3EB0C01CB1D4FEA00614FEA66
:10059000102042BF002010BC704700EBC350104435
:1005A0000029A4BF10BC7047401C490008BF20F0C0
:1005B000010010BC704710B5141E73F1000408DA76
:1005C000401C41F1000192185B411A4301D120F017
:1005D000010010BD2DE9F04D92469B4611B1B1FAD4
:1005E00081F202E0B0FA80F22032904600F052F838
:1005F00004460F4640EA0A0041EA0B0153465A46B8
:10060000084313D0114653EA010019D0C8F1400243
:100610005046FFF789FF05460E465046594642466A
:1006200000F038F8084305D0012004E020463946A0
:10063000BDE8F08D0020054346EAE0762C433743C1
:100640000A986305E40AA0EB08000022FD0A44EAC8
:1006500047540A3002D500200146E9E70105101988
:100660006941DDE9084500196941BDE8F04DA2E79F
:10067000064C074D06E0E06840F0010394E80700EF
:1006800098471034AC42F6D3FFF756FD30330008DC
:1006900050330008202A04DB203A00FA02F100203F
:1006A00070479140C2F1200320FA03F319439040B0
:1006B000704770B58C1810F8015B15F0070301D175
:1006C00010F8013B2A1106D110F8012B03E010F8B5
:1006D000016B01F8016B5B1EF9D12B0705D40023D8
:1006E000521E0DD401F8013BFAE710F8013BCB1A7A
:1006F000921C03E013F8015B01F8015B521EF9D56F
:10070000A142D8D3002070BD21B1826842F001021D
:10071000826003E0826822F001028260704700007C
:1007200010B504461248844208D10121401501F059
:1007300007FB0021601501F003FB17E00D48844220
:1007400008D10121001501F0FBFA0021201501F06C
:10075000F7FA0BE00848844208D10121C80301F0F0
:10076000EFFA00214FF4004001F0EAFA10BD00005A
:100770000024014000280140003C014001460020C7
:100780008A6802F004020AB1012000E000207047EC
:100790000146C86C80B270470246002013680B40C7
:1007A0000BB1012000E000207047014600208A685C
:1007B00002F008020AB1012000E0002070470000AA
:1007C00030B502460020002350680F4C20400D79C0
:1007D0000C6844EA05242043506090680B4C20408C
:1007E000D1E902542C434D7944EA450420439060FA
:1007F000D06A20F470000C7C641EE4B2234340EA0B
:100800000350D06230BD0000FFFEF0FFFDF7F1FFA6
:10081000F0B504460D4600200021092D11DDE068E9
:10082000A5F10A0606EB4607072606FA07F18843F4
:10083000A5F10A0606EB460603FA06F10843E06056
:100840000CE0206905EB4507072606FA07F1884307
:1008500005EB450603FA06F108432061072A0FDA83
:10086000606B561E06EB86071F2606FA07F18843C3
:10087000561E06EB860605FA06F10843606322E081
:100880000D2A0FDA206BD61F06EB86071F2606FA05
:1008900007F18843D61F06EB860605FA06F10843E2
:1008A000206310E0E06AA2F10D0606EB86071F2622
:1008B00006FA07F18843A2F10D0606EB860605FA53
:1008C00006F10843E062F0BD816841F008018160F3
:1008D000704721B1826842F4A002826003E082681E
:1008E00022F4A00282607047816841F004018160B7
:1008F000704700007CB5002000900190002528483A
:1009000000788DF8000026480088000A8DF8010064
:10091000234880788DF8020021484088000A8DF82D
:1009200003001F4800798DF804001D488088000AE4
:100930008DF80500002405E01DF804002844C5B228
:10094000601CC4B2062CF7DBE8B28DF80600552017
:1009500002F098F9032002F095F9062002F092F9CE
:100960009DF8000002F08EF99DF8010002F08AF96E
:100970009DF8020002F086F99DF8030002F082F96A
:100980009DF8040002F07EF99DF8050002F07AF966
:100990009DF8060002F076F9BB2002F073F97CBDE9
:1009A000BC0000202DE9F04107460C46002500263A
:1009B00005E0384600F002FC0544701CC6B2A642B1
:1009C000F7DBB5FBF4F080B2BDE8F08110B500F0C4
:1009D0000BF8044603492046FFF7C8FB04462046AF
:1009E00010BD00000000A04070B505210420FFF7F5
:1009F000D9FF05462846FFF7D5FC06460249FFF712
:100A0000B5FB0446204670BD3333533A00B587B07A
:100A100001214FF4017001F083F94FF4004001F01F
:100A200053F91020ADF8040000208DF8070001A94B
:100A3000174800F033FB1748FFF772FE00200290C2
:100A40008DF80C008DF80D004FF46020049000200C
:100A5000059001208DF8180002A90E48FFF7B0FE9E
:100A600001210C48FFF750FE0A48FFF72DFF00BF99
:100A70000848FFF79AFE0028FAD10648FFF734FF2E
:100A800000BF0448FFF77AFE0028FAD107B000BD86
:100A900000080140002401407CB500200090019036
:100AA0000025284800788DF8000026480088000AB4
:100AB0008DF80100234880788DF802002148408895
:100AC000000A8DF803001F4800798DF804001D48C6
:100AD0008088000A8DF80500002405E01DF8040058
:100AE0002844C5B2601CC4B2062CF7DBE8B28DF80E
:100AF0000600552002F0C6F8052002F0C3F80620D3
:100B000002F0C0F89DF8000002F0BCF89DF801006A
:100B100002F0B8F89DF8020002F0B4F89DF8030066
:100B200002F0B0F89DF8040002F0ACF89DF8050062
:100B300002F0A8F89DF8060002F0A4F8BB2002F02D
:100B4000A1F87CBDCC00002010B54FF40051024844
:100B500000F02FFB10BD0000000C014010B54FF459
:100B60000051024800F027FB10BD0000000C0140BE
:100B700001480078704700002801002070B5FFF799
:100B800025FF05462149FFF7F1FA0446FFF720FC4F
:100B90001F49086008460068FFF7FBFB04461D4933
:100BA000FFF7AEFC11D21C48006870B91B48006802
:100BB000401C1A49086008460068642822DD0120AC
:100BC00017490870144908601CE011480068FFF7D5
:100BD000E0FB04461349FFF793FC0CD2124800686F
:100BE000401C114908600846006864280ADD02209C
:100BF0000B49087006E000200949087007490860A1
:100C0000094908600648007870BD00000000C8422D
:100C10002C01002001007044380100203001002028
:100C2000280100200080F24334010020002004E06D
:100C30000021074A1154411CC8B20649097888426C
:100C4000F6DB002003490870034908707047000074
:100C5000B4010020B3000020B20000203A490A7815
:100C60000978491C384B1970384988540978552936
:100C700003D000211A4611707047334909780B29B7
:100C800000DAF9E73149497850390A2956D2DFE8C4
:100C900001F0050D151D252D353D454D2C492B4ADF
:100CA000921C13680B6052684A6047E02949274A42
:100CB000921C13680B6052684A603FE02649234A41
:100CC000921C13680B6052684A6037E023491F4A40
:100CD000921C13680B6052684A602FE020491B4A3F
:100CE000921C13680B6052684A6027E01D49174A3E
:100CF000921C13680B6052684A601FE01A49134A3D
:100D0000921C13680B6052684A6017E017490F4A3B
:100D1000921C13680B6052684A600FE014490B4A3A
:100D2000921C13680B6052684A6007E01149074A39
:100D3000921C13680B6052684A6000BF00BF00211C
:100D4000014A117000BF97E71D010020C301002078
:100D5000B4000020BC000020C4000020CC00002013
:100D6000D4000020DC000020E4000020EC00002083
:100D7000F4000020FC00002030B503464FF0E024D2
:100D8000A169254C248803FB04F200204FF0E024E5
:100D90006469B2FBF4F4214D2C704FF0E0246469D7
:100DA000B2FBF4F504FB1520814215D9081A00BFE7
:100DB0001A4C2478002CFBD10A2806D200BF4FF031
:100DC000E024A4690A2CFAD824E000BF4FF0E02404
:100DD000A4698442FAD81DE0104C2478641C0F4D9D
:100DE0002C704FF0E02464690C44201A00BF0B4CB7
:100DF0002478002CFBD10A2806D200BF4FF0E02453
:100E0000A4690A2CFAD805E000BF4FF0E024A469D9
:100E10008442FAD830BD00002001002023010020C8
:100E20000146022902D1054800687047042902D111
:100E300003480068F9E70020F7E700003C010020C4
:100E40004001002010B500F003F800F063F810BD79
:100E500000B587B00121022000F042FF01210420EB
:100E600000F05EFF4020ADF8000004208DF8030084
:100E70006946264800F012F90121042000F050FFD5
:100E80008020ADF8000004208DF8030069461F485B
:100E900000F004F904A801F06DFE0020ADF8100088
:100EA0004FF6FF70ADF814000020ADF81600ADF855
:100EB000120004A9164801F00BFE00231A46032174
:100EC000134801F0D7FB01A801F05CFC0A20ADF843
:100ED0000C0001A90E4801F0FFFB01210C4801F0B4
:100EE000C3FA012211460A4801F055FC00210848C6
:100EF00001F0BFFD47F6FF7005492431088001214C
:100F0000034801F0B7FA07B000BD00000008014037
:100F10000004004000B587B00121042000F0E0FE8D
:100F20000121082000F0FCFE4020ADF80000042064
:100F30008DF803006946264800F0B0F8012108202A
:100F400000F0EEFE8020ADF8000004208DF80300D4
:100F500069461F4800F0A2F804A801F00BFE00202B
:100F6000ADF810004FF6FF70ADF814000020ADF89A
:100F70001600ADF8120004A9164801F0A9FD0023DF
:100F80001A460321134801F075FB01A801F0FAFB92
:100F90000A20ADF80C0001A90E4801F09DFB0121CB
:100FA0000C4801F061FA012211460A4801F0F3FBF6
:100FB0000021084801F05DFD47F6FF700549243126
:100FC00008800121034801F055FA07B000BD000078
:100FD000000C01400008004001460020022902D018
:100FE000042914D109E00B4A128847F6FF739A1AB4
:100FF00010B21A46074B1A800AE0074A128847F6D1
:10100000FF739A1A10B21A46034B1A8000E000BF11
:1010100000BF7047240400402408004010B5044677
:10102000022C02D0042C12D108E00220FFF7D4FFDA
:1010300008490968081A0749086009E00420FFF711
:10104000CBFF0549096808440349086000E000BF78
:1010500000BF10BD3C0100204001002008B5012167
:10106000112000F05DFE0121092000F059FE4FF42F
:101070000050ADF8000003208DF8020010208DF81C
:1010800003006946034800F009F86946024800F089
:1010900005F808BD00100140000C01402DE9F041A9
:1010A000024600250026002000230024002791F896
:1010B00003C00CF00F0591F803C00CF0100CBCF14C
:1010C000000F03D091F802C04CEA050591F800C06A
:1010D000BCF1000F31D0146800202BE04FF0010C60
:1010E0000CFA00F3B1F800C00CEA03069E4220D1CE
:1010F00083004FF00F0C0CFA03F7BC4305FA03FC16
:101100004CEA040491F803C0BCF1280F06D14FF05B
:10111000010C0CFA00FCC2F814C00AE091F803C0FC
:10112000BCF1480F05D14FF0010C0CFA00FCC2F8DD
:1011300010C0401C0828D1D31460B1F800C0BCF125
:10114000FF0F34DD546800202EE000F1080C4FF052
:10115000010808FA0CF3B1F800C00CEA03069E423D
:1011600021D183004FF00F0C0CFA03F7BC4305FAB2
:1011700003FC4CEA040491F803C0BCF1280F05D12C
:1011800000F1080C08FA0CF8C2F8148091F803C0BA
:10119000BCF1480F07D100F1080C4FF0010808FA24
:1011A0000CF8C2F81080401C0828CED35460BDE86B
:1011B000F0814161704701617047000010B504463D
:1011C0000723012221460948FFF722FB0121074896
:1011D000FFF77FFB00BF02210448FFF7DDFA00287C
:1011E000F9D00248FFF7D4FA10BD000000240140F6
:1011F0000148007870470000B30000202DE9F04757
:10120000044689460220FFF709FF0220FFF708FE87
:10121000284908600420FFF701FF0420FFF700FEC3
:101220002549086023490968244A1268881AFFF78B
:10123000BEF80746224A234BFEF7CAFF0546FFF7D2
:10124000E0F820601C4909681F4A1268881AFFF7F5
:10125000AEF805461A4A1B4BFEF7BAFF0746FFF7E2
:10126000D0F8C9F8000013490968144A1268881AAE
:10127000FFF79DF80546154A154BFEF7A9FF154ADD
:1012800003C20D490968104A1268881AFFF78FF8DF
:1012900005460E4A0E4BFEF79BFF0F4A03C2054858
:1012A0000068064908600448006807490860BDE80E
:1012B000F0870000880000208C00002090000020B3
:1012C000F701486DE25C35409400002061380B9FC7
:1012D00042422240A0000020A800002000487047A1
:1012E000B40100207CB50020009001900025284822
:1012F00000788DF8000026480088000A8DF801006B
:10130000234880788DF8020021484088000A8DF833
:1013100003001F4800798DF804001D488088000AEA
:101320008DF80500002405E01DF804002844C5B22E
:10133000601CC4B2062CF7DBE8B28DF8060055201D
:1013400001F0A0FC042001F09DFC062001F09AFCB5
:101350009DF8000001F096FC9DF8010001F092FC60
:101360009DF8020001F08EFC9DF8030001F08AFC5C
:101370009DF8040001F086FC9DF8050001F082FC58
:101380009DF8060001F07EFCBB2001F07BFC7CBDDB
:10139000C40000200148007870470000B20000201F
:1013A00010B54FF400510248FFF705FF10BD0000D3
:1013B0000010014010B54FF400510248FFF7F9FE4C
:1013C00010BD0000001001402DE9F04106460C461A
:1013D00015461E493046FFF79DF809D31B492046A4
:1013E000FFF798F804D319492846FFF793F801D27C
:1013F000BDE8F0811648066016480460164805608E
:10140000134801684FF08940FEF7B0FE0746FEF72B
:10141000DFFF124908610F4801684FF08940FEF76D
:10142000A5FE0746FEF7D4FF0C4948610A4801684B
:101430004FF08940FEF79AFE0746FEF7C9FF0749BD
:101440008861084601F063FF00BFD1E7000020413A
:1014500024000020280000202C0000206C01002027
:1014600008B50121042000F05BFC0F20ADF800005E
:1014700018208DF8030003208DF802006946024809
:10148000FFF70CFE08BD00000008014010B521491F
:101490002148FFF7B3FE2148006810B920480068D2
:1014A00018B31E48008800B21E4908841C480088F2
:1014B00000B21D4908841848008800B219494884C0
:1014C0001448008800B218494884184818498268AE
:1014D000184800F08FFB164801681648006800F0B5
:1014E000C1F800201449086012E01049886800F033
:1014F0004FFA114800680D2804D20F480068401CBC
:101500000D4908600C480068032801D100F0FEF87E
:1015100010BD00007C00002078000020800000202A
:10152000840000206C010020900100206001002058
:101530007400002070000020980000202DE9FC417C
:10154000002000900190002500221346434903C962
:10155000FEF7A2FF12D200208DF800003F49D1E92A
:10156000007121F000413846FEF76AFF86B2F0B202
:101570008DF80100300A8DF802000EE0FF208DF892
:101580000000364903C9FEF75BFF86B2F0B28DF862
:101590000100300A8DF8020000BF002213463049D6
:1015A00003C9FEF779FF12D200208DF803002C4901
:1015B000D1E9007121F000413846FEF741FF86B2C3
:1015C000F0B28DF80400300A8DF805000EE0FF201F
:1015D0008DF80300224903C9FEF732FF86B2F0B24C
:1015E0008DF80400300A8DF8050000BF002405E0E6
:1015F0001DF804002844C5B2601CC4B2062CF7DBF9
:10160000E8B28DF80600552001F03CFB022001F005
:1016100039FB062001F036FB9DF8000001F032FB9B
:101620009DF8010001F02EFB9DF8020001F02AFB5D
:101630009DF8030001F026FB9DF8040001F022FB59
:101640009DF8050001F01EFB9DF8060001F01AFB55
:10165000BB2001F017FBBDE8FC810000A0000020CA
:10166000A800002070B504460D462146012000F078
:10167000D3F82946022000F0CFF870BD2DE9F05FC5
:1016800082460C46934699462046FEF790FE074652
:101690004FF02D321A4BFEF79BFD0546FEF7B1FECB
:1016A00004B24846FEF783FE05464FF02D32144B38
:1016B000FEF78EFD0746FEF7A4FE0FFA80F9B4F59B
:1016C000616F01DD4FF46164B9F5616F01DD4FF4C5
:1016D0006169BAF1000F03D160420A49086001E074
:1016E00008480460BBF1000F04D1C9F100000649AD
:1016F000086002E00448C0F80090BDE8F09F0000D8
:101700002D2D054080000020840000204FF46160F2
:10171000810688860887888701490880704700000D
:101720004000004030B587B005460C460121084610
:1017300000F0D6FA4FF0804000F0A8FE681E80B29C
:10174000ADF81400ADF810400020ADF81600ADF86B
:10175000120004A94FF0804001F0BAF9684601F088
:101760007EF96020ADF800000120ADF802000020F5
:10177000ADF806000220ADF808006946400701F008
:1017800013F80821C80601F05BF86020ADF80000EE
:101790000120ADF802000020ADF806000220ADF8EF
:1017A00008006946400701F055F80821C80601F015
:1017B000A3F86020ADF800000120ADF80200002081
:1017C000ADF806000220ADF808006946400701F0B8
:1017D000A1F80821C80601F0EDF86020ADF800007E
:1017E0000120ADF802000020ADF806000220ADF89F
:1017F00008006946400701F0E7F80821C80601F033
:1018000021F90121880700F023FE0121880700F05B
:1018100031FE07B030BD000070B505460C46B4F58A
:10182000616F01DD4FF4616414F5616F00DA084CFB
:10183000012D02D0022D08D103E0204600F00AF865
:1018400004E0204600F01AF800E000BF00BF70BDC1
:10185000F0F1FFFF10B50446002C05DB00204FF02F
:10186000804188860C8707E0204601F049FD4FF053
:10187000804188860020088710BD000010B504460E
:10188000002C06DB4FF080418C8700200649088041
:1018900008E000204FF080418887204601F030FDAD
:1018A0000149088010BD00004000004070B50021D3
:1018B00000230F22C47804B3154C246804F4E064B8
:1018C000C4F5E064210AC1F10403CA40447804FA73
:1018D00003F184781440214309010E4C0678A15588
:1018E000047804F01F050124AC4005786D11AD00AB
:1018F00005F1E025C5F8004109E0047804F01F0572
:101900000124AC40044D0678761145F8264070BDA0
:101910000CED00E000E400E080E100E0024901435A
:10192000024A1160704700000000FA050CED00E06B
:1019300000B5662014490861002048614FF48050CA
:1019400088614FF4E100C8600020C8830120087757
:10195000002008844884084601F0D9FC66200B4921
:101960000861002048614FF4805088614FF4E10025
:10197000C8600020C88301200877002008844884BC
:10198000084601F0C4FC00BD6C010020900100205D
:10199000024908600021024A1160704704000020DB
:1019A00020000020F0B504460D4600210023291B2D
:1019B000D2E90007CF1B166906FB0700566906FB34
:1019C00001000227566807FB161697683E44976980
:1019D00007FB06031360506890605160D06898421E
:1019E00000DAD368D0684042984201DDD0684342B3
:1019F0009812F0BD2DE9F04F89B004460D4600263F
:101A0000032003E0215C0E44411CC8B2A91E8142A0
:101A1000F8DCF6B2601910F8027CBE4202D009B0C0
:101A2000BDE8F08F2078552800D0F8E7607808905E
:101A30000898012806D007281BD0082842D009287A
:101A40007ED189E094F803A094F80580207940EADB
:101A5000082894F806B094F80890E07940EA09293B
:101A60000FFA89F35A460FFA88F15046FFF706FE3F
:101A7000BBE0E078079020790690079830B106988F
:101A800010B1FFF797FC01E0FFF78AFC94F805809E
:101A900094F80690B8F1000F07D0B9F1000F02D00A
:101AA000FFF75CF801E0FFF74FF894F807A094F80F
:101AB00008B0BAF1000F04D0BBF1000F01D001F063
:101AC00065FB92E094F80480E07840EA082894F8F6
:101AD0000690607940EA092994F808A0E07940EA84
:101AE0000A2A4046FEF75EFC0190FEF7C2FC002287
:101AF0003F4BCDE90201FEF7DDFBCDE90401FEF726
:101B0000E3FC83464846FEF74DFC0190FEF7B1FC2E
:101B10000022374BCDE90201FEF7CCFBCDE90401F1
:101B2000FEF7D2FC07905046FEF73CFC0190FEF712
:101B3000A0FC00222E4BCDE90201FEF7BBFB00E02A
:101B400052E0CDE90401FEF7BFFC06905846DDE9FE
:101B50000621FFF739FC48E094F80480E07840EA79
:101B6000082894F80690607940EA092994F808A0BA
:101B7000E07940EA0A2A4046FEF714FC0190FEF79D
:101B800078FC00221A4BCDE90201FEF793FBCDE968
:101B90000401FEF799FC83464846FEF703FC0190DA
:101BA000FEF767FC0022124BCDE90201FEF782FB33
:101BB000CDE90401FEF788FC07905046FEF7F2FBE2
:101BC0000190FEF756FC0022094BCDE90201FEF719
:101BD00071FBCDE90401FEF777FC06905846DDE97C
:101BE000062100F027F900E000BF00BF00BF16E7A4
:101BF00000408F402DE9F04106460F46904634687C
:101C00003D6842461049114800F024F80F48B0F9E9
:101C10001E0004440C48B0F91E000544B4F5616F81
:101C200001DD4FF4616414F5616F00DA084CB5F51D
:101C3000616F01DD4FF4616515F5616F00DA044DE8
:101C400034603D60BDE8F081900100206C0100200F
:101C5000F0F1FFFF70B505460C4616460020194905
:101C60000860287F01280DD1B5F92210B5F92000B0
:101C70002A46FFF797FE404212490988401A00B2EF
:101C8000E88306E00020E883284601F040FB0220BC
:101C90002877207F01280DD1B4F92210B4F9200053
:101CA0002246FFF77FFE404206490988084400B2F9
:101CB000E08306E00020E083204601F028FB0220BC
:101CC000207770BD2000002001460020034A5068A4
:101CD00020F440400843506070470000001002406C
:101CE00029B1064AD2690243044BDA6104E0034A8F
:101CF000D2698243014BDA61704700000010024054
:101D000029B1064A12690243044B1A6104E0034AEE
:101D100012698243014B1A617047000000100240B3
:101D200029B1064A92690243044B9A6104E0034ACE
:101D300092698243014B9A61704700000010024093
:101D400029B1064AD2680243044BDA6004E0034A30
:101D5000D2688243014BDA607047000000100240F5
:101D600030B500210022002400232D4D6D6805F0C0
:101D70000C0121B1042905D0082923D105E0294D02
:101D8000056022E0274D05601FE0254D6D6805F4D4
:101D90007012234D6D6805F48034022505EB9242E4
:101DA0001CB9214D554305600BE01D4D6D6805F4D0
:101DB00000351DB11C4D5543056002E0194D5543DA
:101DC000056002E0174D056000BF00BF144D6D684F
:101DD00005F0F0010909154D6B5C0568DD404560B3
:101DE0000F4D6D6805F4E061090A104D6B5C4568A4
:101DF000DD4085600A4D6D6805F46051C90A0B4DE0
:101E00006B5C4568DD40C560054D6D6805F440417B
:101E1000890B074D6B5CC568B5FBF3F5056130BDFB
:101E20000010024000127A0000093D004C01002021
:101E30005C0100202DE9F04106460C4615461E497E
:101E40003046FEF767FB09D31B492046FEF762FBCD
:101E500004D319492846FEF75DFB01D2BDE8F081A5
:101E60001648066016480460164805601348016865
:101E70004FF08940FEF77AF90746FEF7A9FA1249B2
:101E800008610F4801684FF08940FEF76FF9074677
:101E9000FEF79EFA0C4948610A4801684FF08940F4
:101EA000FEF764F90746FEF793FA0749886108468A
:101EB00001F02DFA00BFD1E70000204124000020EE
:101EC000280000202C000020900100202DE9FC417A
:101ED00000200090019000250026FEF777FD804647
:101EE0002A49FEF743F90746FEF772FA06466420D0
:101EF00096FBF0F0C0B28DF80000642096FBF0F184
:101F000000FB1160C0B28DF8010000208DF80200C6
:101F10008DF803008DF804008DF80500002405E01D
:101F20001DF804002844C5B2601CC4B2062CF7DBBF
:101F3000E8B28DF80600552000F0A4FE062000F05F
:101F4000A1FE062000F09EFE9DF8000000F09AFE23
:101F50009DF8010000F096FE9DF8020000F092FE50
:101F60009DF8030000F08EFE9DF8040000F08AFE4C
:101F70009DF8050000F086FE9DF8060000F082FE48
:101F8000BB2000F07FFEBDE8FC8100000000C842DD
:101F900010B500F001F810BD0CB5002001900090C4
:101FA0003348006840F480303149086000BF304851
:101FB000006800F4003000900198401C01900098E7
:101FC00018B90198B0F5A06FF1D12948006800F464
:101FD000003010B10120009001E000200090009836
:101FE000012843D12348006840F0100021490860CF
:101FF0000846006820F0030008600846006840F0CA
:10200000020008601A48406819494860084640685C
:1020100048600846406840F4806048600846406870
:1020200020F47C1048600846406840F4E81048609E
:102030000846006840F08070086000BF0C480068E7
:1020400000F000700028F9D00948406820F0030033
:10205000074948600846406840F00200486000BFF9
:102060000348406800F00C000828F9D10CBD0000BE
:102070000010024000200240012005490870054878
:10208000007820B103480078401E0249087070476C
:10209000220100202301002038B504460D4600200F
:1020A0004FF0E021886105FB04F000EB4001C1EB3B
:1020B000C0104FF0E021486103200861E11704EBF4
:1020C0005171C1F3C701114A11701046007800EB3D
:1020D0004001C1EBC0104FF6FF7101EAC0000C498E
:1020E00008804FF4C060FFF719FCFF208DF8000056
:1020F00003208DF8010000208DF8020001208DF8EA
:1021000003006846FFF7D2FB38BD00001E01002027
:102110002001002010B51348006840F0010011496B
:10212000086008464068104908400E494860084663
:1021300000680E4908400B4908600846006820F412
:10214000802008600846406820F4FE0048604FF494
:102150001F008860FFF71CFF4FF000600449086013
:1021600010BD0000001002400000FFF8FFFFF6FE67
:1021700008ED00E0F0B50C46154600220021068C63
:102180004FF6FE773E400684028B018C4FF60C76AC
:1021900032407E1C06EA03162E433243104EB042F4
:1021A0000ED0104EB0420BD0B0F1804F08D00E4E82
:1021B000B04205D00D4EB04202D00D4EB04206D115
:1021C0004FF6FD76314044F00106314305E04FF60D
:1021D000F576314044F00106314302830184F0BDBD
:1021E000002C014000340140000400400008004081
:1021F000000C0040F0B50C461546002200210026D8
:10220000078C4FF6EF7C07EA0C070784028B018CE2
:102210004FF6FF7707EA041640F6FF473A404FF6BD
:10222000FF7707EA03373A434FF6FF7707EA0527B8
:102230003A43114FB8420ED0104FB8420BD0B0F114
:10224000804F08D00E4FB84205D00E4FB84202D092
:102250000D4FB84206D14FF6DF77394046F01007F0
:10226000394305E04FF65F77394044F010073943B2
:1022700002830184F0BD0000002C014000340140C5
:102280000004004000080040000C0040F0B50C467F
:102290001546002200210026078C4FF6FF6C07EA46
:1022A0000C070784828B018C4FF6FF7707EA042620
:1022B0004FF60C773A404FF6FF7707EA03172F43A4
:1022C0003A43114FB8420ED0104FB8420BD0B0F184
:1022D000804F08D00E4FB84205D00E4FB84202D002
:1022E0000D4FB84206D14FF6FF57394046F480777C
:1022F000394305E04FF2FF57394044F480773943C2
:1023000082830184F0BD0000002C014000340140B4
:102310000004004000080040000C0040F0B50C46EE
:102320001546002200210026078C4EF6FF7C07EAA6
:102330000C070784828B018C4FF6FF7707EA04367F
:1023400040F6FF473A404FF6FF7707EA05273A4342
:102350004FF6FF7707EA03373A43114FB8420ED0E2
:10236000104FB8420BD0B0F1804F08D00E4FB8429A
:1023700005D00E4FB84202D00D4FB84206D14DF6EF
:10238000FF77394046F48057394305E047F6FF5759
:10239000394044F48057394382830184F0BD000002
:1023A000002C0140003401400004004000080040BF
:1023B000000C00401FB50121C802FFF7B1FC00204E
:1023C0008DF80C006320ADF8080041F61F40ADF811
:1023D00004000020ADF80A00ADF8060001A910487D
:1023E00000F076FB012211460D4800F0D4F94FF4BD
:1023F000A060FFF793FA19208DF8000002208DF8F5
:10240000010003208DF8020001208DF803006846CA
:10241000FFF74CFA0121024800F02CF81FBD000024
:10242000002C014010B50121084800F044F960B1CA
:10243000012000F0B3FB10B1012000F0A5FBFFF775
:1024400025F80121014800F012F810BD002C0140D0
:1024500021B1028842F08002028004E002884FF637
:102460007F731A4002807047CA4302827047CA4392
:102470000282704721B1028842F00102028004E02A
:1024800002884FF6FE731A400280704710B504466A
:102490006848844208D10121C014FFF751FC002193
:1024A000E014FFF74DFCC4E0B4F1804F08D10121E6
:1024B0000846FFF725FC00210120FFF721FCB8E0CA
:1024C0005D48844208D101210220FFF719FC002158
:1024D0000220FFF715FCACE05848844208D10121E6
:1024E0000420FFF70DFC00210420FFF709FCA0E009
:1024F0005348844208D101210820FFF701FC002144
:102500000820FFF7FDFB94E04E48844208D10121EA
:102510001020FFF7F5FB00211020FFF7F1FB88E00A
:102520004948844208D101212020FFF7E9FB00211E
:102530002020FFF7E5FB7CE04448844208D10121DC
:102540004014FFF7FDFB00216014FFF7F9FB70E07A
:102550003F48844209D10121C804FFF7F1FB002163
:102560004FF40020FFF7ECFB63E03A48844209D1C6
:1025700001210805FFF7E4FB00214FF48010FFF76D
:10258000DFFB56E03448844209D101214805FFF7BA
:10259000D7FB00214FF40010FFF7D2FB49E02F4892
:1025A000844208D101214020FFF7AAFB00214020EE
:1025B000FFF7A6FB3DE02A48844208D10121802094
:1025C000FFF79EFB00218020FFF79AFB31E02548B2
:1025D000844208D101218015FFF792FB0021A0154C
:1025E000FFF78EFB25E02048844209D10121080431
:1025F000FFF7A6FB00214FF48030FFF7A1FB18E0A6
:102600001A48844209D101214804FFF799FB0021AF
:102610004FF40030FFF794FB0BE01548844208D1DB
:1026200001218804FFF78CFB00214FF48020FFF785
:1026300087FB10BD002C0140000400400008004052
:10264000000C004000100040001400400034014025
:10265000004C01400050014000540140001800406F
:10266000001C0040002000400040014000440140A8
:1026700000480140F0B50C4615461E4600210022D8
:1026800000230189028B038C4FF6F87739402143F0
:102690004FF6FC473A4040F201173A434FF6DD77D8
:1026A0003B404FF6FF7707EA06172F433B43018174
:1026B00002830384F0BD30B50246002000230024CD
:1026C000158A05EA0103958905EA010413B10CB1E5
:1026D000012000E0002030BD70B505460C462448BE
:1026E00085420ED0234885420BD0B5F1804F08D0EB
:1026F0002148854205D02148854202D020488542A4
:1027000000D100E000BF208850B92389A2886188E9
:102710002846FFF72FFDE188284600F0ACF925E0B8
:10272000208804280AD12389A28861882846FFF7D7
:1027300061FDE188284600F0A7F917E02088082805
:102740000AD12389A28861882846FFF79FFDE18886
:10275000284600F0A6F909E02389A2886188284666
:10276000FFF7DCFDE188284600F0A4F970BD000009
:10277000002C0140003401400004004000080040EB
:10278000000C004000210180418001218180002156
:10279000C180018170471AB183890B43838102E0B4
:1027A00083898B438381704770B500240022002306
:1027B000058C4FF6FE7635400584028C8388048BA9
:1027C0004FF68F752C40B51E2C400D882C43751E7E
:1027D0002A400D892A434D882A43144DA8420BD024
:1027E000134DA84208D0134DA84205D0124DA8425F
:1027F00002D0124DA84213D14FF6F7752A404D89E9
:102800002A434FF6FB752A408D882A434FF6FF6511
:102810002B404FF6FF552B408D892B43CD892B4301
:1028200083800483CD888586028470BD002C01409E
:102830000034014000400140004401400048014094
:102840000A460021018B4FF6F773194011430183AB
:102850007047000070B5002400220023058C4FF65D
:10286000EF7635400584028C8388048B48F6FF752B
:102870002C404FF6FF452C400D884FF6FF7606EAB8
:1028800005252C434FF6DF752A400D8906EA05150C
:102890002A434D8806EA05152A43154DA84202D061
:1028A000144DA8421DD14FF67F752A404D894FF631
:1028B000FF7606EA05152A434FF6BF752A408D8834
:1028C00006EA05152A434FF6FF352B404FF2FF75F8
:1028D0002B408D8906EA85052B43CD8906EA8505BF
:1028E0002B4383800483CD880587028470BD00005C
:1028F000002C0140003401400A460021018B4FF2B8
:10290000FF7319404FF6FF7303EA02231943018353
:102910007047000070B5002400220023058C4FF69C
:10292000FF6635400584028C8388848B4FF68F7553
:102930002C404FF6FC752C400D882C434FF6FF556C
:102940002A400D894FF6FF7606EA05252A434D8871
:1029500006EA05252A43154DA84202D0144DA84287
:102960001DD14FF2FF752A404D894FF6FF7606EADA
:1029700005252A434FF6FF352A408D8806EA0525AE
:102980002A434EF6FF752B404DF6FF752B408D897F
:1029900006EA05152B43CD8906EA05152B438380EE
:1029A0008483CD888587028470BD0000002C01409F
:1029B000003401400A460021818B4FF6F77319401D
:1029C000114381837047000070B50022002300246A
:1029D000058C4EF6FF7635400584038C8488828B07
:1029E00048F6FF752A404FF6FF452A400D884FF6FE
:1029F000FF7606EA05252A434DF6FF752B400D8923
:102A000006EA05352B434D8806EA05352B430B4D69
:102A1000A84202D00A4DA84208D14BF6FF752C40BF
:102A20008D894FF6FF7606EA85152C4384808283D4
:102A3000CD88A0F84050038470BD0000002C0140F8
:102A4000003401400A460021818B4FF2FF73194088
:102A50004FF6FF7303EA0223194381837047002175
:102A6000018041808180C180018141818181C1815A
:102A7000704781847047028B4FF6F3731A400283CC
:102A8000028B0A4302837047028B4FF2FF331A40D6
:102A90000283028B4FF6FF7303EA01231A4302837A
:102AA0007047828B4FF6F3731A408283828B0A43FE
:102AB00082837047828B4FF2FF331A408283828B6E
:102AC0004FF6FF7303EA01231A4382837047000025
:102AD000002202881D4B98420ED01D4B98420BD00D
:102AE000B0F1804F08D01B4B984205D01A4B98424A
:102AF00002D01A4B984204D14FF68F731A404B887C
:102B00001A43174B984207D0164B984204D04FF601
:102B1000FF431A40CB881A4302808B8883850B8839
:102B200003850A4B98420BD0094B984208D00E4BB4
:102B3000984205D00D4B984202D00D4B984201D1DE
:102B40000B7A03860123838270470000002C01402A
:102B5000003401400004004000080040000C004028
:102B600000100040001400400040014000440140BB
:102B7000004801404FF6FF71818000210180C18033
:102B80004180017270470000012804D10249098880
:102B9000491E014A11807047440100200146012965
:102BA00002D10348008870474FF6FF70FBE7000032
:102BB00044010020012801D1014A11807047000022
:102BC0004401002010B586B00446012144F20400FF
:102BD000FFF7A6F84FF40070ADF8140018208DF838
:102BE000170003208DF8160005A92448FEF756FAB1
:102BF0004FF48060ADF8140004208DF8170005A98B
:102C00001E48FEF74BFA01940020ADF80800ADF81D
:102C10000A00ADF80C00ADF810000C20ADF80E0065
:102C200001A9174800F0B2F9002240F227711448B8
:102C300000F086F9012240F22551114800F080F998
:102C400040210F4800F02EF901210D4800F042F913
:102C50004FF4A060FEF762FE25208DF800000120F1
:102C60008DF8010003208DF8020001208DF803008B
:102C70006846FEF71BFE06B010BD000000080140CC
:102C80000038014010B50446074801780078401C20
:102C9000054A107005484454012240F22771044847
:102CA00000F04EF910BD000025010020BD020020FB
:102CB0000038014010B586B0044601210820FFF716
:102CC0002FF801218804FFF70BF84FF48060ADF86E
:102CD000140018208DF8170003208DF8160005A9A0
:102CE0002348FEF7DBF94FF40060ADF81400042030
:102CF0008DF8170005A91E48FEF7D0F901940020B1
:102D0000ADF80800ADF80A00ADF80C00ADF8100001
:102D10000C20ADF80E0001A9164800F037F900228A
:102D200040F22771134800F00BF9012240F22551BF
:102D3000104800F005F940210E4800F0B3F80121D9
:102D40000C4800F0C7F84FF4A060FEF7E7FD27201D
:102D50008DF8000001208DF8010004208DF802009C
:102D600001208DF803006846FEF7A0FD06B010BDF7
:102D7000000C01400048004010B5044607480178A7
:102D80000078401C054A107005484454012240F266
:102D90002771044800F0D4F810BD0000270100207E
:102DA000BD0300200048004010B5002440F2277108
:102DB000164800F09BF8D8B1154802780078401CFE
:102DC000134B18701348815C104800F050F91048FC
:102DD000007811490978884205D1002240F2277114
:102DE0000A4800F0ADF840F22771084800F063F897
:102DF00040F22551054800F079F830B1034800F061
:102E000031F9C4B2204600F037F910BD0038014056
:102E100024010020BD0200202501002010B540F251
:102E200027711C4800F062F8E0B11B480278007876
:102E3000401C194B18701948815C164800F017F9AE
:102E400040F22771134800F036F81348007814490F
:102E50000978884217D1002240F227710D4800F00E
:102E60006FF810E040F225510A4800F03FF850B1E9
:102E70000849091D0988C8B2FDF7F0FE40F2255146
:102E8000044800F018F84FF45871024800F013F8A5
:102E900010BD00000048004026010020BD030020B6
:102EA0002701002001F40072B2F5007F00D100BFBD
:102EB000CA430280704710B50022002340F66A140E
:102EC000A14200D100BF0A1201249440A3B2DC4306
:102ED000048010BD21B1828942F40052828104E055
:102EE00082894DF6FF731A408281704770B50246A1
:102EF000002400230025002040F66A16B14200D1CC
:102F000000BFC1F3421501F01F03012606FA03F3C7
:102F1000012D02D19689334006E0022D02D1168A96
:102F2000334001E0968A33400C12012606FA04F47D
:102F30001688344013B10CB1012000E0002070BDB0
:102F4000F0B50346002400260025002040F66A174D
:102F5000B94200D100BF1846C1F3421401F01F0668
:102F6000012707FA06F5012C01D10C3004E0022CF0
:102F700001D1103000E014301AB107682F43076008
:102F800002E00768AF430760F0BD00002DE9F0479D
:102F900086B005460E460024A24600BFA146002783
:102FA000B08900B100BF2F462C8A4CF6FF70044058
:102FB000F08804432C82AC894EF6F3100440B088AC
:102FC00031890843718908430443AC81AC8A4FF6C8
:102FD000FF400440B0890443AC8201A8FEF7C0FE64
:102FE0001F48874202D1DDF810A001E0DDF80CA0F7
:102FF000A88900F4004040B10AEBCA0000EB0A10B7
:1030000031684900B0FBF1F807E00AEBCA0000EBB9
:103010000A1031688900B0FBF1F86420B8FBF0F0C9
:1030200004012009642101FB1089A88900F40040F3
:1030300040B1322000EBC900B0FBF1F000F0070016
:10304000044308E0322000EB09106421B0FBF1F0EA
:1030500000F00F0004432C8106B0BDE8F0870000AB
:103060000038014001468888C0F308007047C1F36A
:1030700008028280704700003749097831B1012980
:1030800013D0022926D0032962D142E0552806D167
:103090005521324A117001212F4A117004E000219C
:1030A0002D4A11702D4A117053E0012803D00728D2
:1030B00001D0082807D1294948700221264A1170F9
:1030C000274A117005E00021234A1170234A11702C
:1030D00051703EE0411D234A1170114609780F29B5
:1030E0000ADB00211E4A11701B4A11701B4A117025
:1030F00051701C4A11702CE01849194A12788854F2
:1031000017490978491C164A11700321124A117097
:103110001FE01249124A1278885411490978491C53
:103120000F4A1170114609780E4A127891420EDB4F
:103130000C490978491E094A515CBB2907D1012174
:10314000094A11700021064A1170034A117000E00B
:1031500000BF00BF70470000B1000020B401002094
:10316000B0000020B3000020B200002002E008C838
:10317000121F08C1002AFAD170477047002001E0F1
:1031800001C1121F002AFBD17047000010B50C4886
:1031900000F0C2F86420FDF7EFFD0A4800F0BCF82B
:1031A0006420FDF7E9FD084800F0B6F86420FDF75B
:1031B000E3FD064800F0B0F86420FDF7DDFD10BD2A
:1031C000040100200E01002013010020180100203E
:1031D00010B5094800F0A0F86420FDF7CDFD0748C0
:1031E00000F09AF86420FDF7C7FD054800F094F858
:1031F0006420FDF7C1FD10BD04010020090100207D
:10320000180100200A214820FEF746FF4FF416500F
:10321000FFF750FD4FF4E130FFF7D4FCFFF7D8FF84
:103220004FF47A70FDF7A8FD4FF47A70FDF7A4FD16
:10323000FDF7ECFBFDF712FFFEF712F900214FF44A
:103240006160FEF76FFAFDF7FDFDFFF7B3F8FEF7DB
:103250006FFB4FF47A70FDF78FFD01244DE0FEF710
:1032600099F850B1FDF7C4FF0546FEF737F806465A
:103270002946FEF7BFFBFDF7D9FC0120FFF78EFCC6
:1032800000283AD1FDF77AFCFDF772FC012805D140
:10329000FDF764FC4FF4FA7018490860174800689D
:1032A000002809DD15480068401E144908600846DA
:1032B000006808B9FDF748FCFDF75AFC022801D167
:1032C000FDF74CFCE11704EB91718910A4EB81012F
:1032D000491C012909D1FEF731F9FDF70BFBFEF777
:1032E00001F8FDF7D9FBFEF7F1FD641C082C00DBAB
:1032F000002401210846FFF75DFCB0E70000002034
:103300000146002901DA484200E0084670470021E2
:10331000016041608160704770B50546002404E09B
:10332000285DFFF729FD601CC4B2052CF8DB70BDD9
:10333000503300080000002060010000B2060008C1
:103340008C33000860010020600700007C31000819
:10335000815DCDCCCC3E0802103D891423804023F2
:1033600048431A160401CA180AFFAA6988B5FFAAB9
:1033700024010A3A01051A040501362D010203044D
:0C33800004000900060708090204060802
:0400000508000131BD
:00000001FF
