:020000040800F2
:10000000D8190020490100085101000853010008D7
:1000100055010008570100085901000800000000C0
:100020000000000000000000000000005B0100086C
:100030005D010008000000005F0100087531000844
:100040006301000863010008630100086301000800
:1000500063010008630100086301000863010008F0
:1000600063010008630100086301000863010008E0
:1000700063010008630100086301000863010008D0
:1000800063010008630100086301000863010008C0
:1000900063010008630100086301000863010008B0
:1000A00063010008213500086301000863010008AE
:1000B0006301000863010008630100086301000890
:1000C0006301000863010008630100086301000880
:1000D00063010008D13D000863010008453E0008A7
:1000E0006301000863010008630100086301000860
:1000F0006301000863010008630100086301000850
:10010000630100086301000863010008630100083F
:10011000630100086301000863010008630100082F
:10012000630100086301000863010008630100081F
:10013000DFF810D000F064FC00480047E1630008DD
:10014000AFF30080D81900200648804706480047D2
:10015000FEE7FEE7FEE7FEE7FEE7FEE7FEE7FEE777
:10016000FEE7FEE7113200083101000840EA010312
:100170009B0703D009E008C9121F08C0042AFAD25D
:1001800003E011F8013B00F8013B521EF9D2704721
:10019000D2B201E000F8012B491EFBD270470022C9
:1001A000F6E710B513460A4604461946FFF7F0FF76
:1001B000204610BDF0B480EA0102D40F4200B2EB39
:1001C000410F02D20246084611464A0042D0C30DF2
:1001D000DDB2C1F3C752AD1A202D35DAC1F31601D5
:1001E00041F4000204B15242C5F1200602FA06F1C0
:1001F0002A411044B3EBD05F23D0C4B1012DA0EB52
:10020000C35009DCF0BC4FF0004202EAC352DBB23B
:1002100000F5000000F052BB400000F1807000EBE0
:10022000C350A0F1807040EAD170490009E049084C
:1002300041EAC071A0EBC35000F50000400800EB9C
:10024000C350F0BC00F031BB6142012202EB41011E
:10025000001BF6E7F0BC704781F00041AAE780F090
:100260000040A7E780EA010210B502F00043400019
:1002700022D04A001FD0010E01EB1261C0F35600DC
:10028000C2F3560240F4000042F40002A0FB022038
:1002900000047F39140400D0401C50EA124001D4FD
:1002A0004000491EC2B20C0604EBD010401C4008AE
:1002B000802A02D003E0002010BD20F001000029B8
:1002C00000DA0020184310BD30B480EA010202F0C9
:1002D000004530F0004221F0004013D090B1C30D32
:1002E000D40DC2F31601C0F31600E41A41F4000164
:1002F00040F400027D34914201D3641C00E04900C7
:10030000002C02DA30BC002070474FF400000023BC
:10031000914201D3891A034340084FEA4101F7D1C2
:1003200051B1914202D14FF0004105E002D24FF0AD
:10033000010101E06FF0010103EBC450284430BC1F
:1003400000F0B3BA2DE9FE4F804681EA0300C00FEA
:100350000C46009021F0004123F00045B8EB02006C
:10036000A94105D24046214690461C460B4602460E
:1003700023F00040104347D0270DC7F30A00C3F312
:100380000A510290401A019040286BDAC3F313001F
:1003900040F4801B0098924620B10023D2EB030A60
:1003A00063EB0B0B01985946C0F14002504600F038
:1003B0004BFA06460D4650465946019A00F063FA3C
:1003C00010EB08006141002487EA115284EAE773C8
:1003D0001A4340D0009A62B3019A012A4FEA0752A9
:1003E00015DC001B61EB02014FF0004202EA0752EC
:1003F000CDE90042001C41F5801132462B4600F049
:100400009AFA03B0BDE8F08F40462146F9E7001B99
:1004100061EB0201001C41F5801300185B412018BC
:10042000A2F5001747EB030140EAD570B6196D41FC
:1004300011E06D084FEA360645EAC0754FEA0752EB
:10044000001B61EB0201001C41F5801149084FEAD5
:1004500030000019514132462B4603B0BDE8F04F41
:1004600000F05ABA0098012240000023D0EB0202AB
:1004700063EBE073009821464FEAE074B8EB0000AC
:1004800061EB0401E9E783F000435BE781F00041A1
:1004900058E72DE9FE4F81EA030404F0004421F0FF
:1004A000004100944FF0000B23F0004350EA010498
:1004B0005ED052EA03045BD0C3F30A54C1F30A5579
:1004C0002C44A4F2F3340194A0FB0254C1F31301B1
:1004D00041F48011C3F3130343F4801301FB02447E
:1004E00000FB034E840A970A44EA815447EA835783
:1004F000A4FB076802958D0A05FB07854FEA932C3C
:1005000004FB0C542705029D4FEA065847EA1637AC
:10051000B5EB08056EEB070C870E920E47EA8117C4
:1005200042EA8312A7FB0201B6EB0B0164EB000465
:100530002B0D43EA0C335E1844EB1C50DA4651464F
:10054000E7FB0201C5F313044FEA0B3343EA1453EC
:100550004FEA0432019C43EA0603A4F10C0402941E
:10056000009CCDE900B400F0E6F903B0BDE8F08FDF
:1005700000200146F9E72DE9F04D81EA030404F07B
:10058000004B21F0004514464FF0000A23F00041D3
:1005900050EA050220D054EA01021DD0C5F30A57E3
:1005A0000246C5F31303C1F31300C1F30A5640F426
:1005B000801543F48013A7EB0608101BD64608F2FB
:1005C000FD3873EB050002D308F1010801E0921831
:1005D0005B41B8F1000F03DA00200146BDE8F08D61
:1005E00000204FF48011064684460EE0171B73EB83
:1005F000050705D3121B63EB050306434CEA010C08
:1006000049084FEA300092185B4150EA0107EDD1EA
:1006100052EA030012D082EA040083EA050108438B
:1006200005D0101BAB4106D20122002306E00022B8
:100630004FF0004302E06FF0010253101AEB060086
:100640004CEB085110EB0A0041EB0B01BDE8F04DFB
:1006500000F062B9C10F80EAE0700844CA0796232F
:10066000002100F02BB996230022114600F026B994
:100670000EB5C10F80EAE0700844CA07002140F2BD
:1006800033438DE80E000A460B4600F054F903B0E0
:1006900000BD00F0004220F00040C10DC0F3160084
:1006A00040F400007F2901DA00207047962903DC1E
:1006B000C1F19601C84001E096398840002AF4D083
:1006C0004042704770B5C1F30A5201F00045002462
:1006D000C1F3130140F2FF3341F480119A4201DA71
:1006E000002070BD40F233439A42A2F2334203DC51
:1006F000524200F0B8F800E090402C43F1D0404264
:1007000070BDC1F30A5210B5C1F3130140F2FF33BB
:1007100041F480119A4201DA002010BD40F23343C7
:100720009A42A2F2334203DC524200F09CF810BD20
:10073000904010BD00F0004230F000400AD0C10DE2
:1007400001F56071C0F3160042EA0151C20840078A
:1007500011437047002001467047000030B5041E69
:1007600071F1000404DB4FF00044404264EB0101EE
:10077000141E73F1000405DB1C464FF00043524287
:1007800063EB04038B4208BF824230BD30B5041EC8
:1007900071F1000404DB4FF00044404264EB0101BE
:1007A000141E73F1000405DB1C464FF00043524257
:1007B00063EB0403994208BF904230BD01F000434F
:1007C00030B421F0004150EA010206D00A0DA2F532
:1007D0006072C1F31301002A02DC30BC00207047B4
:1007E000440F44EAC104C100E01830BC00EBC25021
:1007F00000F05BB8002801DBC0F10040002901DBFC
:10080000C1F1004181427047002801DBC0F1004086
:10081000002901DBC1F100418842704730B50B4629
:10082000014600202022012409E021FA02F59D4220
:1008300005D303FA02F5491B04FA02F52844151EF4
:10084000A2F10102F1DC30BD202A04DB203A00FADB
:1008500002F1002070479140C2F1200320FA03F317
:10086000194390407047202A04DB203A21FA02F015
:100870000021704721FA02F3D040C2F120029140DA
:10088000084319467047202A06DBCB17203A41FA65
:1008900002F043EAE07306E041FA02F3D040C2F10D
:1008A000200291400843194670470029A8BF7047AD
:1008B000401C490008BF20F00100704710B4B0FA96
:1008C00080FC00FA0CF050EA010404BF10BC704731
:1008D00049B1CCF1200421FA04F411FA0CF118BF4B
:1008E000012121430843A3EB0C01CB1D4FEA00611A
:1008F0004FEA102042BF002010BC704700EBC350ED
:1009000010440029A4BF10BC7047401C490008BF18
:1009100020F0010010BC704710B5141E73F10004E4
:1009200008DA401C41F1000192185B411A4301D1E1
:1009300020F0010010BD2DE9F04D92469B4611B10B
:10094000B1FA81F202E0B0FA80F220329046FFF76D
:100950007BFF04460F4640EA0A0041EA0B0153467A
:100960005A46084313D0114653EA010019D0C8F182
:1009700040025046FFF777FF05460E46504659465F
:100980004246FFF761FF084305D0012004E02046FE
:100990003946BDE8F08D0020054346EAE0762C4359
:1009A00037430A986305E40AA0EB08000022FD0A19
:1009B00044EA47540A3002D500200146E9E7010520
:1009C00010196941DDE9084500196941BDE8F04D9C
:1009D000A2E770B521F0004303430CD0C1F30A55E0
:1009E0000024D5EB040564EB0403D617AD1AB3411C
:1009F00002DB0020014670BD201841EB025170BDA2
:100A0000064C074D06E0E06840F0010394E807005B
:100A100098471034AC42F6D3FFF78EFB706A00089B
:100A2000906A00082DE9F04D00231A461B1A8A41EE
:100A300003DB00200146BDE8F08DC1F30A52C1F38B
:100A4000130141F480154FF0000BD10702D10018BB
:100A50006D41521E0027044640F2FF11384601EB5B
:100A6000620A3E468046024600204FF48011FFF79E
:100A7000FAFEC2197141BB1846EB0100B4EB030C3E
:100A800075EB000C04D3E41A65EB000517460E461F
:100A9000241908F101006D4180463428E3DDF9197D
:100AA00046EB0600091BA84103D24FF0FF32134664
:100AB00001E0002213461BEB070046EB0A51BDE89C
:100AC000F04DFFF729BF70B58C1810F8015B15F0D9
:100AD000070301D110F8013B2A1106D110F8012BB0
:100AE00003E010F8016B01F8016B5B1EF9D12B07D5
:100AF00005D40023521E0DD401F8013BFAE710F88B
:100B0000013BCB1A921C03E013F8015B01F8015B77
:100B1000521EF9D5A142D8D3002070BD21B1826800
:100B200042F00102826003E0826822F001028260EA
:100B30007047000010B504461248844208D10121D4
:100B4000401502F07BF90021601502F077F917E0FB
:100B50000D48844208D10121001502F06FF90021EF
:100B6000201502F06BF90BE00848844208D10121FE
:100B7000C80302F063F900214FF4004002F05EF96F
:100B800010BD00000024014000280140003C01404D
:100B9000014600208A6802F004020AB1012000E048
:100BA000002070470146C86C80B2704702460020A2
:100BB00013680B400BB1012000E000207047014694
:100BC00000208A6802F008020AB1012000E000203B
:100BD0007047000030B502460020002350680F4CDB
:100BE00020400D790C6844EA052420435060906849
:100BF0000B4C2040D1E902542C434D7944EA450482
:100C000020439060D06A20F470000C7C641EE4B233
:100C1000234340EA0350D06230BD0000FFFEF0FFE6
:100C2000FDF7F1FFF0B504460D4600200021092D27
:100C300011DDE068A5F10A0606EB4607072606FA6D
:100C400007F18843A5F10A0606EB460603FA06F10A
:100C50000843E0600CE0206905EB4507072606FA2B
:100C600007F1884305EB450603FA06F108432061C6
:100C7000072A0FDA606B561E06EB86071F2606FA58
:100C800007F18843561E06EB860605FA06F108436F
:100C9000606322E00D2A0FDA206BD61F06EB860771
:100CA0001F2606FA07F18843D61F06EB860605FACB
:100CB00006F10843206310E0E06AA2F10D0606EB9E
:100CC00086071F2606FA07F18843A2F10D0606EBF8
:100CD000860605FA06F10843E062F0BD816841F03E
:100CE00008018160704721B1826842F4A0028260ED
:100CF00003E0826822F4A00282607047816841F0BC
:100D000004018160704700007CB5002000900190D4
:100D10000025284800788DF8000026480088000A41
:100D20008DF80100234880788DF802002148408822
:100D3000000A8DF803001F4800798DF804001D4853
:100D40008088000A8DF80500002405E01DF80400E5
:100D50002844C5B2601CC4B2062CF7DBE8B28DF89B
:100D60000600552003F01CF8032003F019F80620B4
:100D700003F016F89DF8000003F012F89DF801004A
:100D800003F00EF89DF8020003F00AF89DF8030046
:100D900003F006F89DF8040003F002F89DF8050042
:100DA00002F0FEFF9DF8060002F0FAFFBB2002F001
:100DB000F7FF7CBDE40000202DE9F04107460C461A
:100DC0000025002605E0384600F0ECFB0544701CC9
:100DD000C6B2A642F7DBB5FBF4F080B2BDE8F08105
:100DE00010B500F00BF8044603492046FFF73AFA25
:100DF0000446204610BD00000000A04070B505214B
:100E00000420FFF7D9FF05462846FFF72CFC0646CD
:100E10000249FFF727FA0446204670BD3333533AA0
:100E200000B587B001214FF4017001F0F7FF4FF4D6
:100E3000004001F0C7FF1020ADF8040000208DF83D
:100E4000070001A9174800F01DFB1748FFF772FEC5
:100E5000002002908DF80C008DF80D004FF46020FA
:100E600004900020059001208DF8180002A90E487A
:100E7000FFF7B0FE01210C48FFF750FE0A48FFF7CC
:100E80002DFF00BF0848FFF79AFE0028FAD1064858
:100E9000FFF734FF00BF0448FFF77AFE0028FAD1BD
:100EA00007B000BD00080140002401402DE9FC47C7
:100EB0000020009001900025334908683349FFF76E
:100EC000D1F98146FFF7E5FB06B22F4948682F4963
:100ED000FFF7C8F98146FFF7DCFB07B22A498868AB
:100EE0002A49FFF7BFF98146FFF7D3FB0FFA80F8D5
:100EF000F0B28DF80000300A8DF80100F8B28DF8DC
:100F00000200380A8DF8030008F0FF008DF8040095
:100F10004FEA18208DF80500002405E01DF80400B4
:100F20002844C5B2601CC4B2062CF7DBE8B28DF8C9
:100F30000600552002F034FF052002F031FF0620A4
:100F400002F02EFF9DF8000002F02AFF9DF801003C
:100F500002F026FF9DF8020002F022FF9DF8030038
:100F600002F01EFF9DF8040002F01AFF9DF8050034
:100F700002F016FF9DF8060002F012FFBB2002F0FF
:100F80000FFFBDE8FC870000200300200000C842DE
:100F900010B54FF40051024800F0FFFA10BD0000F8
:100FA000000C014010B54FF40051024800F0F7FA70
:100FB00010BD0000000C014070B515480078F8B174
:100FC000FFF70EFF05461349FFF74CF90446FFF7FC
:100FD00060FB1149086008460068FFF73BFB0446C8
:100FE0000E49FFF707FC0CD20D480068401C0C4965
:100FF000086008460068642806DD0020044908707F
:1010000002E00020064908600148007870BD000039
:10101000340100200000C842380100200100704463
:101020003C010020002004E00021074A1154411C2B
:10103000C8B2064909788842F6DB002003490870E7
:101040000349087070470000C801002073000020A9
:10105000720000203A490A780978491C384B197007
:10106000384988540978552903D000211A4611704F
:101070007047334909780B2900DAF9E73149497893
:1010800050390A2956D2DFE801F0050D151D252D2E
:10109000353D454D2C492B4A921C13680B60526814
:1010A0004A6047E02949274A921C13680B6052683E
:1010B0004A603FE02649234A921C13680B6052683D
:1010C0004A6037E023491F4A921C13680B6052683C
:1010D0004A602FE020491B4A921C13680B6052683B
:1010E0004A6027E01D49174A921C13680B6052683A
:1010F0004A601FE01A49134A921C13680B60526839
:101100004A6017E017490F4A921C13680B60526837
:101110004A600FE014490B4A921C13680B60526836
:101120004A6007E01149074A921C13680B60526835
:101130004A6000BF00BF0021014A117000BF97E75D
:10114000DD000020D7010020740000207C0000207A
:10115000840000208C000020940000209C000020CF
:10116000A4000020AC000020B4000020BC0000203F
:1011700030B503464FF0E024A169254C248803FBD9
:1011800004F200204FF0E0246469B2FBF4F4214D36
:101190002C704FF0E0246469B2FBF4F504FB1520D9
:1011A000814215D9081A00BF1A4C2478002CFBD1B3
:1011B0000A2806D200BF4FF0E024A4690A2CFAD80E
:1011C00024E000BF4FF0E024A4698442FAD81DE077
:1011D000104C2478641C0F4D2C704FF0E02464698F
:1011E0000C44201A00BF0B4C2478002CFBD10A2899
:1011F00006D200BF4FF0E024A4690A2CFAD805E01B
:1012000000BF4FF0E024A4698442FAD830BD00004A
:101210002A0100202D0100200146022902D10548A3
:1012200000687047042902D103480068F9E70020EC
:10123000F7E70000400100204401002010B500F055
:1012400003F800F05FF810BD00B587B0012102205F
:1012500001F0C4FD0121042001F0E0FD4020ADF8C3
:10126000000004208DF803006946244800F00AF9C4
:101270000121042001F0D2FD8020ADF800000420FF
:101280008DF8030069461D4800F0FCF804A802F040
:10129000FFFC0020ADF810004FF6FF70ADF8140011
:1012A0000020ADF81600ADF8120004A9144802F0B1
:1012B0009DFC00231A460321114802F06BFA01A895
:1012C00002F0F0FA0A20ADF80C0001A90C4802F077
:1012D00093FA01210A4802F057F901221146084801
:1012E00002F0E9FA47F6FF70054924310880012130
:1012F000034802F04FF907B000BD000000080140AC
:101300000004004000B587B00121042001F066FD13
:101310000121082001F082FD4020ADF800000420EA
:101320008DF803006946244800F0ACF8012108203C
:1013300001F074FD8020ADF8000004208DF803005A
:1013400069461D4800F09EF804A802F0A1FC0020A8
:10135000ADF810004FF6FF70ADF814000020ADF8A6
:101360001600ADF8120004A9144802F03FFC002357
:101370001A460321114802F00DFA01A802F092FA70
:101380000A20ADF80C0001A90C4802F035FA012141
:101390000A4802F0F9F801221146084802F08BFAD7
:1013A00047F6FF700549243108800121034802F007
:1013B000F1F807B000BD0000000C0140000800403B
:1013C00001460020022902D0042914D109E00B4A69
:1013D000128847F6FF739A1A10B21A46074B1A8002
:1013E0000AE0074A128847F6FF739A1A10B21A46A3
:1013F000034B1A8000E000BF00BF70472404004088
:101400002408004010B50446022C02D0042C12D14E
:1014100008E00220FFF7D4FF08490968081A0749C5
:10142000086009E00420FFF7CBFF0549096808447C
:101430000349086000E000BF00BF10BD400100206C
:101440004401002008B50121112001F0E7FC012131
:10145000092001F0E3FC4FF40050ADF80000032038
:101460008DF8020010208DF803006946034800F053
:1014700009F86946024800F005F808BD001001406F
:10148000000C01402DE9F041024600250026002015
:1014900000230024002791F803C00CF00F0591F8F9
:1014A00003C00CF0100CBCF1000F03D091F802C087
:1014B0004CEA050591F800C0BCF1000F31D014686A
:1014C00000202BE04FF0010C0CFA00F3B1F800C043
:1014D0000CEA03069E4220D183004FF00F0C0CFA59
:1014E00003F7BC4305FA03FC4CEA040491F803C07B
:1014F000BCF1280F06D14FF0010C0CFA00FCC2F829
:1015000014C00AE091F803C0BCF1480F05D14FF0B8
:10151000010C0CFA00FCC2F810C0401C0828D1D302
:101520001460B1F800C0BCF1FF0F34DD5468002036
:101530002EE000F1080C4FF0010808FA0CF3B1F8A6
:1015400000C00CEA03069E4221D183004FF00F0C2D
:101550000CFA03F7BC4305FA03FC4CEA040491F8C7
:1015600003C0BCF1280F05D100F1080C08FA0CF8F3
:10157000C2F8148091F803C0BCF1480F07D100F104
:10158000080C4FF0010808FA0CF8C2F81080401C53
:101590000828CED35460BDE8F081416170470161F5
:1015A0007047000010B50446072301222146094870
:1015B000FFF738FB01210748FFF795FB00BF022129
:1015C0000448FFF7F3FA0028F9D00248FFF7EAFAD7
:1015D00010BD000000240140014800787047000061
:1015E000730000202DE9F047044689460220FFF7EA
:1015F00009FF0220FFF710FE264908600420FFF7CC
:1016000001FF0420FFF708FE23490860214909680B
:10161000224A1268881AFFF72BF80746204A214B06
:10162000FEF737FF0546FFF74DF820601A490968B5
:101630001D4A1268881AFFF71BF80546184A194B0D
:10164000FEF727FF0746FFF73DF8C9F800001148ED
:10165000006812490968401A144909680844134986
:1016600008600D48006810490968401A1049096867
:1016700008440F4908600F480068401C0D49086085
:101680000448006805490860034800680649086086
:10169000BDE8F087380000203C000020400000201A
:1016A00061380B9F42422240440000204800002045
:1016B0004C0000206000002000487047C801002056
:1016C0007CB50020009001900025284800788DF816
:1016D000000026480088000A8DF801002348807821
:1016E0008DF8020021484088000A8DF803001F4849
:1016F00000798DF804001D488088000A8DF80500E7
:10170000002405E01DF804002844C5B2601CC4B2E2
:10171000062CF7DBE8B28DF80600552002F040FBFE
:10172000042002F03DFB062002F03AFB9DF8000089
:1017300002F036FB9DF8010002F032FB9DF802003A
:1017400002F02EFB9DF8030002F02AFB9DF8040036
:1017500002F026FB9DF8050002F022FB9DF8060032
:1017600002F01EFBBB2002F01BFB7CBDEA00002048
:1017700021B1028842F48062028004E002884FF6C0
:10178000FF331A400280704770B5024600240025DE
:1017900000230020958A138B1B0445EA030626F0DC
:1017A0007F4404EA01068E4201D1012000E00020BE
:1017B00070BD21B1028842F00102028004E002887B
:1017C0004FF6FE731A4002807047000010B50446C1
:1017D0000B48844209D10121480501F00FFB00218B
:1017E0004FF4001001F00AFB08E00121880501F028
:1017F00005FB00214FF4800001F000FB10BD00004C
:101800000054004021B1028842F48072028004E05A
:1018100002884FF6FF631A400280704721B10288A8
:1018200042F40072028004E002884FF6FF531A402F
:10183000028070472DE9F04385B004460D4600262E
:10184000B1460427DFF8CC80A6884FF6C07006406A
:10185000684601F003FBDDF808802F48B8FBF0F084
:101860001FFA80F946EA0906A68020884FF6FE7125
:101870000840208000262949286888420CD828681A
:101880004000B8FBF0F087B2042F00DA04273E4393
:1018900009F10100208427E0E8884BF6FF718842B7
:1018A00006D1286800EB4000B8FBF0F087B209E0F1
:1018B000286800EBC00101EB0010B8FBF0F087B224
:1018C00047F48047C7F30B0008B947F0010747F416
:1018D000004006434FF4967009FB00F04FF47A7114
:1018E00090FBF1F0401C2084A683208840F001008A
:1018F000208026884FF6F5300640A888698908437D
:1019000006432680A88929890843208105B0BDE8BF
:10191000F083000000127A0040420F00A086010010
:101920000146088AC0B2704712B141F0010102E0DD
:101930004FF6FE7319400182704701827047000024
:1019400070B5044601212148FFF75CFF20491F487C
:1019500000F042F80022D0211C48FFF7E5FF1D49A6
:101960001A4800F039F821461848FFF7E6FF1949F0
:10197000891C164800F030F801211448FFF742FF97
:101980001349124800F028F80122D0210F48FFF730
:10199000CBFF0F49491C0D4800F01EF800210B48F1
:1019A000FFF7E6FE01210948FFF738FF08493F31FC
:1019B000064800F011F80548FFF7B2FF054601217F
:1019C0000248FFF7D5FE284670BD000000580040D1
:1019D000010003008200070070B505460E464FF473
:1019E0007A7402E0641E04B905E031462846FFF728
:1019F000CBFE0128F6D100BF70BD000070B50446D3
:101A00000D4601211348FFF7FDFE13491148FFF76A
:101A1000E3FF0022D0210F48FFF786FF0F490D4852
:101A2000FFF7DAFF21460B48FFF787FF0B49891EB6
:101A30000848FFF7D1FF29460648FFF77EFF074910
:101A4000891C0448FFF7C8FF01210248FFF7E6FEA2
:101A500070BD000000580040010003008200070034
:101A600000B585B00121880501F0B8F901210820F1
:101A700001F0D4F94FF44060ADF8000003208DF878
:101A800002001C208DF8030069461148FFF7FAFC9C
:101A90001048FFF79BFE0020ADF808004BF6FF70E2
:101AA000ADF80A000920ADF80C004FF48060ADF8E5
:101AB0000E000001ADF810000748019001A905488B
:101AC000FFF7B8FE01210348FFF773FE05B000BD24
:101AD000000C014000580040801A06000FB59DB070
:101AE000FE481C90FE4800681590FD484068149020
:101AF000FB4880681390FA48C06812901599084610
:101B0000FEF7B0FB1190DDE91410FEF7ABFB10906F
:101B100013991598FEF7A6FB0F9014990846FEF747
:101B2000A1FB0E9012991498FEF79CFB0D9013994F
:101B30000846FEF797FB0C90DDE91210FEF792FBCA
:101B40000B9012990846FEF78DFB0A900020099031
:101B500023990846FEF786FB069022990846FEF771
:101B600081FB049020990846FEF77CFB03900499C2
:101B7000FEF720FB05900699FEF71CFB079003F08B
:101B80000DFC089008992098FEF76CFB20900899AE
:101B90002298FEF767FB229008992398FEF762FBD4
:101BA00023900F990D98FEF757FB4FF08041079057
:101BB000FEF758FB1B900B991098FEF7FBFA4FF0BD
:101BC00080410790FEF74EFB1A900E991198FEF790
:101BD00043FB06900C99FEF73FFB07900A99FEF72E
:101BE000E9FA19901A992398FEF73CFB0790199986
:101BF0002298FEF737FB06900799FEF72DFB189009
:101C000019992098FEF72EFB07901B992398FEF751
:101C100029FB06900799FEF71FFB17901B99229846
:101C2000FEF720FB07901A992098FEF71BFB069001
:101C30000799FEF711FB1690AA481899FEF712FBB8
:101C40000790A94801680798FEF7B4FAA64908600A
:101C5000A4481799FEF706FB0790A4480168079867
:101C6000FEF7A8FAA14908609E481699FEF7FAFA0D
:101C700007909F4801680798FEF79CFA9C49086006
:101C8000994801689B480068FEF7ECFA07909A486B
:101C900018990068FEF7E6FA05901D99FEF78AFA92
:101CA00006900799FEF786FA1D90904801689148C2
:101CB0000068FEF7D7FA07908F4817990068FEF77B
:101CC000D1FA05901E99FEF775FA06900799FEF76E
:101CD00071FA1E908648016886480068FEF7C2FACD
:101CE0000790854816990068FEF7BCFA05901F9981
:101CF000FEF760FA06900799FEF75CFA1F904FF026
:101D000080401C99FEF7AEFA03901F99FEF7AAFADD
:101D100005904FF080401C99FEF7A4FA03901F999C
:101D2000FEF7A0FA04900599FEF79CFA07904FF091
:101D300080401C99FEF796FA01901E99FEF792FAE0
:101D400003904FF080401C99FEF78CFA01901E9989
:101D5000FEF788FA02900399FEF784FA05904FF097
:101D600080401C99FEF77EFA01901D99FEF77AFAE1
:101D700003904FF080401C99FEF774FA01901D9972
:101D8000FEF770FA02900399FEF76CFA0490059939
:101D9000FEF710FA06900799FEF70CFA09901F99C2
:101DA0001298FEF75FFA04901E991398FEF75AFAFC
:101DB0000290149880F0004000901D99FEF752FAAE
:101DC00001900299FEF748FA03900499FEF744FA4D
:101DD00005901C99FEF746FA4FF08241079009984A
:101DE000FEF772FA4FF07E510490FEF738FA059034
:101DF0001599FEF737FA06900799FEF7DBF915906B
:101E00001E991298FEF72EFA04901F991398FEF768
:101E100029FA029015991D98FEF724FA019002996B
:101E2000FEF7C8F903900499FEF716FA05901C997D
:101E3000FEF718FA4FF0824107900998FEF744FA2E
:101E40004FF07E510490FEF70AFA05901499FEF7C0
:101E500009FA06900799FEF7ADF9149012991D98AA
:101E6000FEF700FA04901F991498FEF7FBF9029010
:101E70001E991598FEF7F6F901900299FEF7ECF914
:101E800003900499FEF796F905901C99FEF7EAF97C
:101E90004FF0824107900998FEF716FA4FF07E51F5
:101EA0000490FEF7DCF905901399FEF7DBF9069034
:101EB0000799FEF77FF9139013991D98FEF7D2F951
:101EC00004901E991498FEF7CDF902901F99159869
:101ED000FEF7C8F90190029910E000000AD7A33B71
:101EE0000C0100200AD7233C00010020040100203F
:101EF00008010020200100201C010020FEF75AF9F3
:101F000003900499FEF7A8F905901C99FEF7AAF929
:101F10004FF0824107900998FEF7D6F94FF07E51B5
:101F20000490FEF79CF905901299FEF79BF9069034
:101F30000799FEF73FF9129012990846FEF792F9B9
:101F4000069013990846FEF78DF9049014990846F7
:101F5000FEF788F9029015990846FEF783F901907B
:101F60000299FEF727F903900499FEF723F90590EB
:101F70000699FEF71FF9079003F010FA08900899E8
:101F80001598FEF76FF90B49086008991498FEF749
:101F900069F90849486008991398FEF763F90549FB
:101FA000886008991298FEF75DF90249C86021B06F
:101FB00000BD00000C01002004494968416003494C
:101FC0000968016001498968816070473003002019
:101FD0002DE9F04F8DB07748806876494968754C97
:101FE000CDE90010236862692169E068FFF776FD9A
:101FF000714800680B90704840680A906E4880688D
:1020000009906D48C06808904FF080400B99FEF72A
:1020100029F904900999FEF725F906904FF0404000
:102020000A99FEF71FF904900899FEF71BF905902D
:102030000699FEF7BFF80790FEF77CFB824602F098
:102040003FFB804600225D4BFEF723FA06464FF029
:1020500080425B4BFEF78FFA0446FEF7AFFB59490F
:1020600048604FF080400999FEF7FCF8019009990B
:10207000FEF7F8F802904FF040400A99FEF7F2F8A8
:1020800001900A99FEF7EEF883460299FEF7E4F80C
:102090004FF07E510390FEF78DF88246FEF74AFB23
:1020A00006460F464FF080400B99FEF7DBF8029092
:1020B0000A99FEF7D7F883464FF080400999FEF75A
:1020C000D1F802900899FEF7CDF859460390FEF733
:1020D00071F88246FEF72EFB32463B46CDE90401FD
:1020E00002F036FD0022354BCDE90601FEF7D1F9AD
:1020F00080464FF08042324BFEF73DFA0446FEF731
:102100005DFB304908604FF080400899FEF7AAF85F
:1021100001900899FEF7A6F882464FF040400999D1
:10212000FEF7A0F801900999FEF79CF88346514606
:10213000FEF792F881464FF07E51FEF73BF80446D9
:10214000FEF7F8FA074688464FF080400B99FEF7F5
:1021500089F883460899FEF785F881464FF080405C
:102160000A99FEF77FF883460999FEF77BF88246C5
:102170004946FEF71FF80446FEF7DCFA3A464346A6
:10218000CDE9020102F0E4FC054600220B4BFEF70C
:1021900080F94FF080420A4BCDE90401FEF7EBF9DC
:1021A000CDE90601FEF70AFB064988600DB0BDE8DF
:1021B000F08F00003C0300200C01002000806640EE
:1021C000FB210940300300202DE9F04F87B0044681
:1021D00089466E49D1E900514FF040426C4B284688
:1021E000FEF757F9CDE90401B4F90000FEF732FA21
:1021F00006466849FEF736F80546FEF79BFACDE934
:102200000201DDE90423FEF79DF80746FEF7D6FA42
:10221000614908605D484FF040425D4BD0E9027172
:102220003846FEF736F9CDE90201B4F90200FEF7AF
:1022300011FA80465749FEF715F80746FEF77AFA75
:102240000546DDE90223FEF77DF8CDE90401FEF73E
:10225000B5FA514948604D484FF040424C4BD0E9E7
:1022600004512846FEF715F907468846B4F90400DC
:10227000FEF7F0F906464749FDF7F4FF0546FEF77D
:1022800059FA3A464346CDE90201FEF75BF8CDE93B
:102290000401FEF793FA404988604FF0000A0AE013
:1022A0003D4951F82A00FEF745FA384A02EBCA02C6
:1022B00003C20AF1010ABAF1030FF1DB37480068E3
:1022C000FEF738FACDE90201B9F90000FEF7C2F9CC
:1022D00033490190FDF7C6FF8346FEF72BFA074608
:1022E0000022304BFEF747F90546DDE90223FEF7F1
:1022F00042F9CDE90401FEF761FA2749C860274891
:102300000068FEF717FA05460E46B9F90200FEF717
:10231000A1F923490190FDF7A5FF8346FEF70AFACC
:10232000074600221F4BFEF726F92A463346CDE921
:102330000201FEF720F9CDE90401FEF73FFA164944
:10234000086116480068FEF7F5F905460E46B9F92A
:102350000400FEF77FF912490190FDF783FF8346E1
:10236000FEF7E8F900220F4BCDE90201FEF703F971
:1023700007462A463346FEF7FEF8CDE90401FEF78C
:102380001DFA0549486107B0BDE8F08F68030020D9
:10239000CCCCE43F3333B33E3C0300202401002087
:1023A000DA0F49400080664001480078704700001D
:1023B0007200002010B54FF400510248FFF7EFF80B
:1023C00010BD00000010014010B54FF4005102484C
:1023D000FFF7E3F810BD0000001001402DE9F041C7
:1023E00006460C4615461E493046FEF70DFA09D33F
:1023F0001B492046FEF708FA04D319492846FEF780
:1024000003FA01D2BDE8F081164806601648046060
:1024100016480560134801684FF08940FDF722FF18
:102420000746FEF736F9124908610F4801684FF078
:102430008940FDF717FF0746FEF72BF90C49486165
:102440000A4801684FF08940FDF70CFF0746FEF788
:1024500020F907498861084604F0C0F800BFD1E7B9
:1024600000002041080000200C0000201000002087
:102470008001002008B50121042000F0CFFC0F20CE
:10248000ADF8000018208DF8030003208DF802003D
:1024900069460248FEF7F6FF08BD0000000801404B
:1024A00010B51E491E48FFF79DF81E48006810B978
:1024B0001D48006800B31B48008800B21B4908840F
:1024C0001948008800B21A4908841548008800B2EB
:1024D000164948841148008800B2154948841548B7
:1024E00015498268154800F0FFFB1348016813483E
:1024F000006800F0FBF810E00020104908600E4969
:102500000860084601680D48006800F0EFF80748C9
:1025100004F064F8064804F061F810BD2C000020B7
:10252000280000203000002034000020800100201E
:10253000A4010020740100202400002020000020BD
:102540002DE9FC5F62480068FEF792F804460D46EC
:1025500060480068FEF78CF880465F4A5F4BFDF7E5
:1025600098FF064622462B46FEF705F85C4A03C252
:1025700057480068FEF77CF806460F465948006841
:10258000FEF776F80446544A544BFDF782FF804626
:1025900032463B46FDF7EFFF534A03C200204C4949
:1025A00008604C4908604F490860009001908346DC
:1025B000002213464A4903C9FEF7D0F812D2002080
:1025C0008DF800004649D1E9005121F0004128462C
:1025D000FEF797F884B2E0B28DF80100200A8DF87A
:1025E00002000EE0FF208DF800003D4903C9FEF710
:1025F00088F884B2E0B28DF80100200A8DF802005C
:1026000000BF00221346384903C9FEF7A7F812D2CB
:1026100000208DF803003449D1E9005121F0004138
:102620002846FEF76EF884B2E0B28DF80400200A66
:102630008DF805000EE0FF208DF803002A4903C93C
:10264000FEF75FF884B2E0B28DF80400200A8DF83E
:10265000050000BF4FF0000A08E01DF80A005844CA
:1026600000F0FF0B0AF1010000F0FF0ABAF1060FBB
:10267000F3DB0BF0FF008DF80600552001F090FB16
:10268000022001F08DFB062001F08AFB9DF800007E
:1026900001F086FB9DF8010001F082FB9DF802002D
:1026A00001F07EFB9DF8030001F07AFB9DF8040029
:1026B00001F076FB9DF8050001F072FB9DF8060025
:1026C00001F06EFBBB2001F06BFBBDE8FC9F00003E
:1026D000600000204800002061380B9F42422240E9
:1026E000500000204C0000205800002070B5044627
:1026F0000D462146012000F0B3F82946022000F0E3
:10270000AFF870BD2DE9F04706460C4691461D46D0
:102710002046FDF7ADFF07460022114BFEF736F8C5
:1027200001D24FF4AA642846FDF7A2FF0746002213
:102730000B4BFEF72BF801D24FF4AA651EB960428D
:102740000849086001E007480460B9F1000F03D1AF
:1027500068420549086001E003480560BDE8F0876C
:1027600000409540300000203400002030B587B094
:1027700005460C460121084600F030FB4FF0804032
:1027800000F014FF681E80B2ADF81400ADF81040E0
:102790000020ADF81600ADF8120004A94FF08040FB
:1027A00001F024FA684601F0EAF96020ADF8000073
:1027B0000120ADF802000020ADF806000220ADF8BF
:1027C00008006946400701F07FF80821C80601F0BB
:1027D000C7F86020ADF800000120ADF8020000202D
:1027E000ADF806000220ADF808006946400701F088
:1027F000C1F80821C80601F00FF96020ADF800000B
:102800000120ADF802000020ADF806000220ADF86E
:1028100008006946400701F00DF90821C80601F0DB
:1028200059F96020ADF800000120ADF80200002049
:10283000ADF806000220ADF808006946400701F037
:1028400053F90821C80601F08DF90121880700F02D
:102850008FFE0121880700F09DFE07B030BD00000B
:1028600070B505460C46B4F5616F01DD4FF4616447
:1028700014F5616F00DA0B4C012D02D0022D0ED140
:1028800006E02046FDF7E6FE064600F00DF807E0FC
:102890002046FDF7DFFE064600F03CF800E000BFF2
:1028A00000BF70BDF0F1FFFF2DE9F04704460021A5
:1028B0002046FDF7A9FF12D800204FF080418886FE
:1028C0002046FDF737FF05460022114BFDF753FE6A
:1028D0000746FDF716FF4FF08041088715E02046B8
:1028E000FDF7D7FE824603F0E7FD8146FDF7C0FE07
:1028F00007460022064BFDF73EFE0546FDF701FFA9
:102900004FF08041888600200887BDE8F0870000EE
:102910000000F83F2DE9F047044600212046FDF76E
:1029200073FF11D82046FDF705FF05460022134B23
:10293000FDF721FE0746FDF7E4FE4FF08041888752
:1029400000200F49088016E000204FF08041888762
:102950002046FDF79EFE824603F0AEFD8146FDF760
:1029600087FE07460022054BFDF705FE0546FDF7ED
:10297000C8FE03490880BDE8F08700000000F83F6A
:102980004000004070B5002100230F22C47804B33A
:10299000154C246804F4E064C4F5E064210AC1F134
:1029A0000403CA40447804FA03F1847814402143B4
:1029B00009010E4C0678A155047804F01F05012486
:1029C000AC4005786D11AD0005F1E025C5F800417A
:1029D00009E0047804F01F050124AC40044D06789A
:1029E000761145F8264070BD0CED00E000E400E0F3
:1029F00080E100E002490143024A11607047000093
:102A00000000FA050CED00E000B540F23330144947
:102A1000086102204861400288614FF46110C8607B
:102A20000020C883012008770020088448840846D5
:102A300003F0D4FD40F233300A49086102204861B6
:102A4000400288614FF46110C8600020C8830120F3
:102A50000877002008844884084603F0BFFD00BDC5
:102A600080010020A40100202DE9FC5F80468946FA
:102A700014461D4600270026A9EB0807D4E90002EA
:102A8000BA1A216901FB0200616901FB07000222F9
:102A9000616802FB1171A2681144A26902FB010680
:102AA0003046FDF7D7FD00902968FDF7D5FB83463A
:102AB0006968FDF7D7FB82462968FDF77BFB01902B
:102AC000FDF7E7FD06463046FDF7C4FD28602660A9
:102AD0006068A0606760E068B04200DAE668E068BD
:102AE0004042B04201DDE0684642B012BDE8FC9FC2
:102AF0002DE9F04F89B004460D460026032003E07F
:102B0000215C0E44411CC8B2A91E8142F8DCF6B219
:102B1000601910F8027CBE4202D009B0BDE8F08F07
:102B20002078552800D0F8E794F80180B8F1010F1B
:102B300009D0B8F1070F1DD0B8F1080F3CD0B8F19B
:102B4000090F7CD182E094F803B094F805A02079B5
:102B500040EA0A2AA079089094F80890E07940EABF
:102B600009290FFA89F30FFA8AF15846089AFFF7F4
:102B7000C9FDB4E0E078089094F804B0089838B142
:102B8000BBF1000F02D0FFF71FFC01E0FFF712FCC2
:102B900094F805A094F80690BAF1000F07D0B9F1A7
:102BA000000F02D0FEF7FEF901E0FEF7F1F9E0793F
:102BB0000790207A069092E094F80490E07840EA3A
:102BC000092994F806A0607940EA0A2A94F808B026
:102BD000E07940EA0B2B4846FDF745FD0190FDF7F3
:102BE000A9FD00223F4BCDE90201FDF7C4FCCDE970
:102BF0000401FDF7E3FD08905046FDF734FD019018
:102C0000FDF798FD0022374BCDE90201FDF7B3FC3B
:102C1000CDE90401FDF7D2FD07905846FDF723FDED
:102C20000190FDF787FD00222E4BCDE90201FDF753
:102C3000A2FCCDE90401FDF7C1FD069000E04DE0E6
:102C4000DDE906210898FFF7C9FB48E094F80490F5
:102C5000E07840EA092994F806A0607940EA0A2A57
:102C600094F808B0E07940EA0B2B4846FDF7FBFCEE
:102C70000190FDF75FFD00221A4BCDE90201FDF73F
:102C80007AFCCDE90401FDF799FD08905046FDF767
:102C9000EAFC0190FDF74EFD0022124BCDE9020146
:102CA000FDF769FCCDE90401FDF788FD0790584662
:102CB000FDF7D9FC0190FDF73DFD0022094BCDE960
:102CC0000201FDF758FCCDE90401FDF777FD069000
:102CD000DDE90621089800F02BF900E000BF00BFF5
:102CE00000BF1AE700408F402DE9F04106460F462D
:102CF000904634683D6842461049114800F024F877
:102D00000F48B0F91E0004440C48B0F91E000544F9
:102D1000B4F5616F01DD4FF4616414F5616F00DAA1
:102D2000084CB5F5616F01DD4FF4616515F5616F14
:102D300000DA044D34603D60BDE8F081A40100205C
:102D400080010020F0F1FFFF70B505460C461646E5
:102D500000201A490860287F01280ED1B5F92210F9
:102D6000B5F92000164B2A46FFF77EFE4042134974
:102D70000988401A00B2E88306E00020E88328466C
:102D800003F02CFC02202877207F01280ED1B4F913
:102D90002210B4F920000A4B2246FFF765FE40429C
:102DA00006490988084400B2E08306E00020E08379
:102DB000204603F013FC0220207770BD04000020A1
:102DC0001400002001460020034A506820F44040CF
:102DD00008435060704700000010024029B1064AC5
:102DE000D2690243044BDA6104E0034AD2698243A8
:102DF000014BDA61704700000010024029B1064A19
:102E000012690243044B1A6104E0034A12698243C7
:102E1000014B1A61704700000010024029B1064AB8
:102E200092690243044B9A6104E0034A9269824327
:102E3000014B9A61704700000010024029B1064A18
:102E4000D2680243044BDA6004E0034AD26882434A
:102E5000014BDA60704700000010024030B50021DD
:102E60000022002400232D4D6D6805F00C0121B1D6
:102E7000042905D0082923D105E0294D056022E069
:102E8000274D05601FE0254D6D6805F47012234D38
:102E90006D6805F48034022505EB92421CB9214D82
:102EA000554305600BE01D4D6D6805F400351DB1FF
:102EB0001C4D5543056002E0194D5543056002E085
:102EC000174D056000BF00BF144D6D6805F0F0019F
:102ED0000909154D6B5C0568DD4045600F4D6D6857
:102EE00005F4E061090A104D6B5C4568DD408560C2
:102EF0000A4D6D6805F46051C90A0B4D6B5C45685D
:102F0000DD40C560054D6D6805F44041890B074DF6
:102F10006B5CC568B5FBF3F5056130BD0010024080
:102F200000127A0000093D005801002068010020CD
:102F30002DE9F04106460C4615461E493046FDF780
:102F400063FC09D31B492046FDF75EFC04D31949F5
:102F50002846FDF759FC01D2BDE8F081164806600D
:102F60001648046016480560134801684FF0894010
:102F7000FDF778F90746FDF78CFB124908610F4809
:102F800001684FF08940FDF76DF90746FDF781FBB9
:102F90000C4948610A4801684FF08940FDF762F921
:102FA0000746FDF776FB07498861084603F016FBE4
:102FB00000BFD1E700002041080000200C000020E5
:102FC00010000020A40100202DE9FC410020009009
:102FD000019000250026FDF703FF80462A49FDF7F2
:102FE00041F90746FDF755FB0646642096FBF0F0D5
:102FF000C0B28DF80000642096FBF0F100FB116078
:10300000C0B28DF8010000208DF802008DF8030099
:103010008DF804008DF80500002405E01DF804007B
:103020002844C5B2601CC4B2062CF7DBE8B28DF8A8
:103030000600552000F0B4FE062000F0B1FE062088
:1030400000F0AEFE9DF8000000F0AAFE9DF8010021
:1030500000F0A6FE9DF8020000F0A2FE9DF803001D
:1030600000F09EFE9DF8040000F09AFE9DF8050019
:1030700000F096FE9DF8060000F092FEBB2000F0E6
:103080008FFEBDE8FC8100000000C84210B500F0D2
:1030900001F810BD0CB50020019000903348006885
:1030A00040F480303149086000BF3048006800F4C7
:1030B000003000900198401C0190009818B90198C8
:1030C000B0F5A06FF1D12948006800F4003010B1CC
:1030D0000120009001E0002000900098012843D1D9
:1030E0002348006840F01000214908600846006845
:1030F00020F0030008600846006840F00200086005
:103100001A484068194948600846406848600846BF
:10311000406840F4806048600846406820F47C10B5
:1031200048600846406840F4E81048600846006877
:1031300040F08070086000BF0C48006800F000702C
:103140000028F9D00948406820F00300074948608A
:103150000846406840F00200486000BF03484068ED
:1031600000F00C000828F9D10CBD0000001002404E
:10317000002002400120054908700548007820B170
:1031800003480078401E0249087070472C01002057
:103190002D01002038B504460D4600204FF0E021F7
:1031A000886105FB04F000EB4001C1EBC0104FF05B
:1031B000E021486103200861E11704EB5171C1F37C
:1031C000C701114A11701046007800EB4001C1EBB5
:1031D000C0104FF6FF7101EAC0000C4908804FF49F
:1031E000C060FFF707FCFF208DF8000003208DF87A
:1031F000010000208DF8020001208DF803006846D0
:10320000FFF7C0FB38BD0000280100202A01002084
:1032100010B51348006840F00100114908600846E5
:103220004068104908400E494860084600680E4949
:1032300008400B4908600846006820F480200860B8
:103240000846406820F4FE0048604FF41F00886084
:10325000FFF71CFF4FF000600449086010BD00003C
:10326000001002400000FFF8FFFFF6FE08ED00E04E
:10327000F0B50C46154600220021068C4FF6FE776D
:103280003E400684028B018C4FF60C7632407E1C49
:1032900006EA03162E433243104EB0420ED0104EB3
:1032A000B0420BD0B0F1804F08D00E4EB04205D0E6
:1032B0000D4EB04202D00D4EB04206D14FF6FD7613
:1032C000314044F00106314305E04FF6F5763140D8
:1032D00044F00106314302830184F0BD002C01401B
:1032E000003401400004004000080040000C004091
:1032F000F0B50C461546002200210026078C4FF63B
:10330000EF7C07EA0C070784028B018C4FF6FF77EE
:1033100007EA041640F6FF473A404FF6FF7707EA00
:1033200003373A434FF6FF7707EA05273A43114F31
:10333000B8420ED0104FB8420BD0B0F1804F08D039
:103340000E4FB84205D00E4FB84202D00D4FB842D2
:1033500006D14FF6DF77394046F01007394305E0D4
:103360004FF65F77394044F01007394302830184F8
:10337000F0BD0000002C014000340140000400407A
:1033800000080040000C0040F0B50C461546002235
:1033900000210026078C4FF6FF6C07EA0C07078414
:1033A000828B018C4FF6FF7707EA04264FF60C77E5
:1033B0003A404FF6FF7707EA03172F433A43114F7E
:1033C000B8420ED0104FB8420BD0B0F1804F08D0A9
:1033D0000E4FB84205D00E4FB84202D00D4FB84242
:1033E00006D14FF6FF57394046F48077394305E060
:1033F0004FF2FF57394044F4807739438283018488
:10340000F0BD0000002C01400034014000040040E9
:1034100000080040000C0040F0B50C4615460022A4
:1034200000210026078C4EF6FF7C07EA0C07078474
:10343000828B018C4FF6FF7707EA043640F6FF4790
:103440003A404FF6FF7707EA05273A434FF6FF77F2
:1034500007EA03373A43114FB8420ED0104FB84233
:103460000BD0B0F1804F08D00E4FB84205D00E4FB0
:10347000B84202D00D4FB84206D14DF6FF77394021
:1034800046F48057394305E047F6FF57394044F486
:103490008057394382830184F0BD0000002C014035
:1034A000003401400004004000080040000C0040CF
:1034B0001FB50121C802FFF7B1FC00208DF80C00F8
:1034C0006320ADF8080041F61F40ADF8040000206D
:1034D000ADF80A00ADF8060001A9104800F086FB1F
:1034E000012211460D4800F0E6F94FF4A060FFF705
:1034F00081FA19208DF8000002208DF801000320C8
:103500008DF8020001208DF803006846FFF73AFAB3
:103510000121024800F03EF81FBD0000002C0140D0
:1035200010B501210E4800F056F9B8B10D480068F9
:10353000401C0C4908600C48007810B901200B4968
:103540000870012000F0B8FB10B1012000F0AAFBC8
:10355000FEF7A6FF0121024800F019F810BD000097
:10356000002C01406C000020000000200100002021
:1035700021B1028842F08002028004E002884FF606
:103580007F731A4002807047CA4302827047CA4361
:103590000282704721B1028842F00102028004E0F9
:1035A00002884FF6FE731A400280704710B5044639
:1035B0006848844208D10121C014FFF73FFC002174
:1035C000E014FFF73BFCC4E0B4F1804F08D10121C7
:1035D0000846FFF713FC00210120FFF70FFCB8E0BD
:1035E0005D48844208D101210220FFF707FC002139
:1035F0000220FFF703FCACE05848844208D10121C7
:103600000420FFF7FBFB00210420FFF7F7FBA0E0FD
:103610005348844208D101210820FFF7EFFB002125
:103620000820FFF7EBFB94E04E48844208D10121CB
:103630001020FFF7E3FB00211020FFF7DFFB88E0FD
:103640004948844208D101212020FFF7D7FB0021FF
:103650002020FFF7D3FB7CE04448844208D10121BD
:103660004014FFF7EBFB00216014FFF7E7FB70E06D
:103670003F48844209D10121C804FFF7DFFB002144
:103680004FF40020FFF7DAFB63E03A48844209D1A7
:1036900001210805FFF7D2FB00214FF48010FFF74E
:1036A000CDFB56E03448844209D101214805FFF79B
:1036B000C5FB00214FF40010FFF7C0FB49E02F4885
:1036C000844208D101214020FFF798FB00214020CF
:1036D000FFF794FB3DE02A48844208D10121802075
:1036E000FFF78CFB00218020FFF788FB31E02548A5
:1036F000844208D101218015FFF780FB0021A0152D
:10370000FFF77CFB25E02048844209D10121080411
:10371000FFF794FB00214FF48030FFF78FFB18E098
:103720001A48844209D101214804FFF787FB002190
:103730004FF40030FFF782FB0BE01548844208D1BC
:1037400001218804FFF77AFB00214FF48020FFF766
:1037500075FB10BD002C0140000400400008004033
:10376000000C0040001000400014004000340140F4
:10377000004C01400050014000540140001800403E
:10378000001C004000200040004001400044014077
:1037900000480140F0B50C4615461E4600210022A7
:1037A00000230189028B038C4FF6F87739402143BF
:1037B0004FF6FC473A4040F201173A434FF6DD77A7
:1037C0003B404FF6FF7707EA06172F433B43018143
:1037D00002830384F0BD30B502460020002300249C
:1037E000158A05EA0103958905EA010413B10CB1B4
:1037F000012000E0002030BD70B505460C4624488D
:1038000085420ED0234885420BD0B5F1804F08D0B9
:103810002148854205D02148854202D02048854272
:1038200000D100E000BF208850B92389A2886188B8
:103830002846FFF71DFDE188284600F0AAF925E09B
:10384000208804280AD12389A28861882846FFF7A6
:103850004FFDE188284600F0A5F917E020880828E8
:103860000AD12389A28861882846FFF78DFDE18867
:10387000284600F0A4F909E02389A2886188284637
:10388000FFF7CAFDE188284600F0A2F970BD0000EC
:10389000002C0140003401400004004000080040BA
:1038A000000C004000210180418001218180002125
:1038B000C180018170471AB183890B43838102E083
:1038C00083898B438381704770B5002400220023D5
:1038D000058C4FF6FE7635400584028C8388048B78
:1038E0004FF68F752C40B51E2C400D882C43751E4D
:1038F0002A400D892A434D882A43144DA8420BD0F3
:10390000134DA84208D0134DA84205D0124DA8422D
:1039100002D0124DA84213D14FF6F7752A404D89B7
:103920002A434FF6FB752A408D882A434FF6FF65E0
:103930002B404FF6FF552B408D892B43CD892B43D0
:1039400083800483CD888586028470BD002C01406D
:103950000034014000400140004401400048014063
:103960000A460021018B4FF6F7731940114301837A
:103970007047000070B5002400220023058C4FF62C
:10398000EF7635400584028C8388048B48F6FF75FA
:103990002C404FF6FF452C400D884FF6FF7606EA87
:1039A00005252C434FF6DF752A400D8906EA0515DB
:1039B0002A434D8806EA05152A43154DA84202D030
:1039C000144DA8421DD14FF67F752A404D894FF600
:1039D000FF7606EA05152A434FF6BF752A408D8803
:1039E00006EA05152A434FF6FF352B404FF2FF75C7
:1039F0002B408D8906EA85052B43CD8906EA85058E
:103A00002B4383800483CD880587028470BD00002A
:103A1000002C0140003401400A460021018B4FF286
:103A2000FF7319404FF6FF7303EA02231943018322
:103A30007047000070B5002400220023058C4FF66B
:103A4000FF6635400584028C8388848B4FF68F7522
:103A50002C404FF6FC752C400D882C434FF6FF553B
:103A60002A400D894FF6FF7606EA05252A434D8840
:103A700006EA05252A43154DA84202D0144DA84256
:103A80001DD14FF2FF752A404D894FF6FF7606EAA9
:103A900005252A434FF6FF352A408D8806EA05257D
:103AA0002A434EF6FF752B404DF6FF752B408D894E
:103AB00006EA05152B43CD8906EA05152B438380BD
:103AC0008483CD888587028470BD0000002C01406E
:103AD000003401400A460021818B4FF6F7731940EC
:103AE000114381837047000070B500220023002439
:103AF000058C4EF6FF7635400584038C8488828BD6
:103B000048F6FF752A404FF6FF452A400D884FF6CC
:103B1000FF7606EA05252A434DF6FF752B400D89F1
:103B200006EA05352B434D8806EA05352B430B4D38
:103B3000A84202D00A4DA84208D14BF6FF752C408E
:103B40008D894FF6FF7606EA85152C4384808283A3
:103B5000CD88A0F84050038470BD0000002C0140C7
:103B6000003401400A460021818B4FF2FF73194057
:103B70004FF6FF7303EA0223194381837047002144
:103B8000018041808180C180018141818181C18129
:103B90007047028B4FF6F3731A400283028B0A437D
:103BA00002837047028B4FF2FF331A400283028B6D
:103BB0004FF6FF7303EA01231A4302837047828B97
:103BC0004FF6F3731A408283828B0A4382837047D5
:103BD000828B4FF2FF331A408283828B4FF6FF7342
:103BE00003EA01231A4382837047000000220288FF
:103BF0001D4B98420ED01D4B98420BD0B0F1804F18
:103C000008D01B4B984205D01A4B984202D01A4B51
:103C1000984204D14FF68F731A404B881A43174BC2
:103C2000984207D0164B984204D04FF6FF431A40F3
:103C3000CB881A4302808B8883850B8803850A4BC7
:103C400098420BD0094B984208D00E4B984205D0B1
:103C50000D4B984202D00D4B984201D10B7A03864E
:103C60000123838270470000002C01400034014092
:103C70000004004000080040000C0040001000401C
:103C80000014004000400140004401400048014051
:103C90004FF6FF71818000210180C1804180017257
:103CA00070470000012804D102490988491E014AD1
:103CB00011807047480100200146012902D10348C4
:103CC000008870474FF6FF70FBE7000048010020B6
:103CD000012801D1014A11807047000048010020ED
:103CE00010B586B00446012144F20400FFF796F8AF
:103CF0004FF40070ADF8140018208DF81700032061
:103D00008DF8160005A92448FDF7BCFB4FF4806030
:103D1000ADF8140004208DF8170005A91E48FDF722
:103D2000B1FB01940020ADF80800ADF80A00ADF831
:103D30000C00ADF810000C20ADF80E0001A91748DA
:103D400000F038F9002240F22771144800F00CF915
:103D5000012240F22551114800F006F940210F4898
:103D600000F0B4F801210D4800F0C8F84FF4A0604D
:103D7000FEF740FE25208DF8000001208DF801009F
:103D800003208DF8020001208DF803006846FEF73D
:103D9000F9FD06B010BD00000008014000380140E8
:103DA00010B50446074801780078401C054A107099
:103DB00005484454012240F22771044800F0D4F829
:103DC00010BD00002F0100208003002000380140BA
:103DD00010B5002440F22771164800F09BF8D8B1C6
:103DE000154802780078401C134B18701348815C0A
:103DF000104800F050F910480078114909788842BD
:103E000005D1002240F227710A4800F0ADF840F2D7
:103E10002771084800F063F840F22551054800F08A
:103E200079F830B1034800F031F9C4B2204600F00F
:103E300037F910BD003801402E010020800300201A
:103E40002F01002010B540F227711C4800F062F8E5
:103E5000E0B11B4802780078401C194B18701948D3
:103E6000815C164800F017F940F22771134800F002
:103E700036F81348007814490978884217D100228F
:103E800040F227710D4800F06FF810E040F2255124
:103E90000A4800F03FF850B10849091D0988C8B226
:103EA000FDF7D8F840F22551044800F018F84FF417
:103EB0005871024800F013F810BD0000004800409F
:103EC00030010020800400203101002001F4007244
:103ED000B2F5007F00D100BFCA430280704710B521
:103EE0000022002340F66A14A14200D100BF0A124A
:103EF00001249440A3B2DC43048010BD21B1828927
:103F000042F40052828104E082894DF6FF731A4028
:103F10008281704770B502460024002300250020EE
:103F200040F66A16B14200D100BFC1F3421501F05C
:103F30001F03012606FA03F3012D02D196893340AF
:103F400006E0022D02D1168A334001E0968A334002
:103F50000C12012606FA04F41688344013B10CB191
:103F6000012000E0002070BDF0B5034600240026CB
:103F70000025002040F66A17B94200D100BF18465C
:103F8000C1F3421401F01F06012707FA06F5012CC0
:103F900001D10C3004E0022C01D1103000E01430CB
:103FA0001AB107682F43076002E00768AF43076054
:103FB000F0BD00002DE9F04786B005460E4600240E
:103FC000A24600BFA1460027B08900B100BF2F461E
:103FD0002C8A4CF6FF700440F08804432C82AC8994
:103FE0004EF6F3100440B0883189084371890843C4
:103FF0000443AC81AC8A4FF6FF400440B0890443CF
:10400000AC8201A8FEF72AFF1F48874202D1DDF8E3
:1040100010A001E0DDF80CA0A88900F4004040B138
:104020000AEBCA0000EB0A1031684900B0FBF1F856
:1040300007E00AEBCA0000EB0A1031688900B0FB08
:10404000F1F86420B8FBF0F004012009642101FBC1
:104050001089A88900F4004040B1322000EBC9006B
:10406000B0FBF1F000F00700044308E0322000EB61
:1040700009106421B0FBF1F000F00F0004432C8123
:1040800006B0BDE8F087000000380140014688888E
:10409000C0F308007047C1F3080282807047000037
:1040A00010B504463F48007830B1012813D00228EB
:1040B00026D0032873D142E0552C06D155203A4929
:1040C000087001203749087004E000203549087065
:1040D0003549087064E0012C03D0072C01D0082C6E
:1040E00007D13148447002202E4908702F490870CA
:1040F00005E000202B4908702B49087048704FE0FC
:10410000601D2B490870084600780F280ADB002044
:1041100026490870234908702349087048702449CB
:1041200008703DE020482149097844541F48007830
:10413000401C1E49087003201A49087030E01A48D4
:104140001A490978445419480078401C17490870E6
:10415000084600781649097888420FDB1448007831
:10416000401E1149085CBB2808D101201149087084
:1041700000200E4908700B4908700EE00B480078CB
:104180000B490978884208DB0F210748FCF707F83C
:104190000020064908700349087001E0FFE700BFEE
:1041A00000BF10BD71000020C80100207000002079
:1041B00073000020720000200FB4054B10B503A956
:1041C000044A029800F09AF810BC5DF814FB000055
:1041D000354F00086C010020490050EAC12018BF8B
:1041E00004204A0D18BF40F0010040F2FF72B2EB0C
:1041F000515F08BF40F00200012808BF052070474A
:104200002DE9F0414F1E00EBC7010446D1E9000142
:1042100015461E4637F006020DD02A463346FCF7F7
:1042200038F97F1E04EBC703D3E90023FCF78AF8B3
:1042300037F00602F1D1022F25D0042F13D0062F1C
:1042400018BFBDE8F0812A463346FCF722F9D4E9CD
:104250000A23FCF777F82A463346FCF71AF9D4E923
:104260000823FCF76FF82A463346FCF712F9D4E925
:104270000623FCF767F82A463346FCF70AF9D4E927
:104280000423FCF75FF82A463346FCF702F9D4E929
:104290000223FCF757F82A463346FCF7FAF8D4E92C
:1042A0000023BDE8F041FCF74DB80122FCF791BBBB
:1042B000FCF748B80022134610461146FCF75BB9DC
:1042C000024A00201107FCF784BB000001FDFFFF3C
:1042D00002E008C8121F08C1002AFAD170477047CF
:1042E000002001E001C1121F002AFBD1704700002D
:1042F0000149086070470000700100202DE9FF4F60
:104300008BB088460546002606E025280BD0DDE95F
:104310000D1290476D1C761C28780028F5D10FB03F
:104320003046BDE8F08F0024A146A2460122AE49E6
:1043300000E0044315F8013F203B02FA03F0084275
:10434000F7D128782A2810D06FF02F022878A0F112
:104350003001092915D809EB890102EB410144F02C
:10436000020400EB01096D1CF0E758F8041B5FEA3A
:10437000010903D544F40054C9F1000944F00204D2
:104380006D1C28782E2817D115F8010F44F004046D
:104390002A280ED06FF02F022878A0F130010929C9
:1043A0000AD80AEB8A0102EB410100EB010A6D1CFD
:1043B000F2E758F804AB6D1C28786C280FD006DCA7
:1043C0004C2817D068280DD06A2814D104E074282E
:1043D00010D07A280FD10DE044F400140AE044F420
:1043E000801401E044F440146978814202D104F55C
:1043F00080146D1C6D1C2878692865D006DC0028A7
:104400008DD0632827D0642806D15DE06E2808D0BF
:1044100073282AD0752877D0DDE90D129047761CD5
:10442000E0E0C4F30250022809D003280DD0D8F8E8
:10443000001004280DD00E6008F10408D2E0D8F86E
:104440000010F217C1E90062F6E7D8F800100E80FC
:10445000F2E70E70F0E718F8041B8DF8001000204A
:104460008DF80100EB46012003E058F804BB4FF043
:10447000FF3061074FF0000701D40AE07F1C574569
:104480000DDA8742FADB1BF807100029F6D106E0A7
:104490007F1C8742FCDB1BF807100029F8D1DDE9FF
:1044A0000D23A9EB07008146214600F0B1F8304406
:1044B000C61904E0DDE90D121BF8010B90477F1EC1
:1044C000F8D22146484688E058F8040BC4F302515C
:1044D0004FF00A0B032900D100B2042900D140B2E9
:1044E000002802DA40422D2102E0210505D52B21CA
:1044F0008DF82410012104E006E0E10710D020210E
:10450000F6E708AF089113E058F8040BC4F3025122
:104510004FF00A0B032900D180B2042900D1C0B2A8
:104520000021EEE75946FCF779F9303107F8011D13
:104530000028F7D1ADEB070000F1200B600702D592
:1045400024F4803401E04FF0010ADA4502DDAAEBE1
:104550000B0000E00020824600EB0B0108980144AC
:10456000A9EB01000A90E00306D4DDE90D23214602
:104570000A9800F04DF806444FF0000908E009A938
:1045800011F80900DDE90D12904709F10109761CC7
:1045900008998945F3DBE0030CD5DDE90D232146BD
:1045A0000A9800F035F8064404E0DDE90D123020E9
:1045B0009047761CBAF10001AAF1010AF5DC05E08A
:1045C000DDE90D1217F8010B9047761CBBF10001D5
:1045D000ABF1010BF4DC0A982146DDE90D2300F074
:1045E00005F806446D1C97E6092801002DE9F04105
:1045F000044600251E461746880404D405E03946C3
:104600002020B0476D1C641EF9D52846BDE8F08116
:104610002DE9F041044600251E469046C80301D509
:10462000302700E02027880404D505E041463846BD
:10463000B0476D1C641EF9D52846BDE8F0810146DF
:104640000920C8291BD008DC0C2910D0192910D04A
:10465000322910D064291AD10FE0B1F5C87F10D0EB
:10466000B1F5487F0FD0B1F5C86F10D10DE00C2027
:104670000EE00B200CE00A200AE0092008E00820E8
:1046800006E0072004E0062002E0052000E000BF6D
:1046900000BF704701460020022906D0042906D039
:1046A000082906D0102908D105E0602006E0402046
:1046B00004E0202002E0002000E000BF00BF7047BF
:1046C0002DE9F04D8D4F21F0004A86B005460C468D
:1046D000BA452ADBAAEB070028430AD0884882455E
:1046E00001DC1AD1CDB106B02846BDE8F04DFFF788
:1046F000DCBD844A844B2846FBF7CBFE07460E46BA
:10470000824A834B28462146FBF7C3FE06B03A4651
:104710003346BDE8F04DFBF715BE0120FFF7E8FD7D
:1047200006B0BDE8F04DFFF7C5BD7A48824542DAD4
:10473000BAF1795F0BDA2846FFF74EFD042808BF6F
:10474000FFF7BEFD284606B02146BDE8F08D2A469B
:104750000B461046FBF79DFE834602466E480E460A
:104760000B4606217844FFF74BFD5A463346FBF7CC
:1047700090FE804669488A465A463346042178446A
:10478000FFF73EFD5A463346FBF783FE00223B46C9
:10479000FBF7D8FD02460B4640465146FBF7EBFEC1
:1047A0002A462346FBF775FE06B02A462346BDE897
:1047B000F04DFBF7C7BD284624F0004100223D46DE
:1047C0003B46FBF763FE4FF0FF32FCF702F906466B
:1047D000024653480F460B4606217844FFF710FD6A
:1047E00032463B46FBF755FECDE900014D483246C7
:1047F0003B4604217844FFF703FD32463B46FBF776
:1048000048FE00222B46FBF79DFD83460291304671
:10481000394601F0E5FF804643480D46504517DC18
:10482000DDE900015A46029BFBF7A5FE42462B46F6
:10483000FBF72FFE42462B46FBF784FD0122FCF7D7
:10484000C8F8304A304BFBF71EFE304A304B4CE084
:104850004FF0000A52460B464046FBF773FDCDE988
:10486000031052462B4610461946FBF712FE3246FD
:104870003B46FBF70BFEDDE90332FBF77CFE064609
:104880000F46DDE900015A46029BFBF774FE8346A2
:104890000091012230463946FCF79BF8194A1A4B21
:1048A000FBF7F4FD06460F46012240462946FCF779
:1048B00090F85A46009BFBF7ECFD32463B46FBF76F
:1048C000E2FD06460F46012250462946FCF781F8D4
:1048D0000E4DDFF858802A464346FBF7D7FD324697
:1048E0003B46FBF7D3FD2A464346FBF7CFFD002CA2
:1048F000D8BF81F0004106B0BDE8F08D0000F03F68
:104900000000F07F075C143326A6913C182D445418
:10491000FB21F93F0000E03F182200002E2200009A
:10492000A2210000B82100003333EF3FFB21E93F13
:104930002DE9F84F04460D4621F0004000917349DF
:10494000814211DC7249884201DC06D12CB120463B
:104950002946BDE8F84FFFF7A8BC6E48002DCCBF34
:104960006D496E49BDE8F88F6D49814211DD6D4991
:104970008142D8BF4FF0FF366DDD20462946FFF754
:104980002BFC042808BFFFF79BFC20462946BDE806
:10499000F88F6549654F25F00045814233DD644954
:1049A000814219DD002632464FF0804320462946D9
:1049B000FBF7C8FC80468A46012220462946FCF7C0
:1049C00008F800223B46FBF75EFD42465346FBF7E4
:1049D000D2FD04460D463EE001260022BA463B4683
:1049E00020462946FBF7AEFC80460F460022534680
:1049F00020462946FBF747FD42463B46FBF7BBFDF9
:104A000004460D4627E04B4981421BDDDFF828A113
:104A100002260022534620462946FBF73AFD002293
:104A20003B46FBF78FFC80460F460022534620464C
:104A30002946FBF728FD42463B46FBF79CFD044612
:104A40000D4608E0032622462B4600203B49FBF793
:104A500092FD04460D4622462B4610461946FBF7AA
:104A600018FD8B46824602460B46FBF712FD0746B1
:104A70000246334888460B4606217844FFF7C0FBC0
:104A800052465B46FBF705FD82462E488B463A466A
:104A9000434605217844FFF7B3FB3A464346FBF70C
:104AA000F8FC02460B46002E504659460CDAFBF73E
:104AB00049FC22462B46FBF7ECFC01B022462B4674
:104AC000BDE8F04FFBF7E2BCFBF73CFC22462B466F
:104AD000FBF7DFFC1C4A7A4402EBC603D3E9002350
:104AE000FBF7D1FC22462B46FBF7CDFC174A7A4454
:104AF00002EBC603D3E90023FBF7C8FC009A002AA7
:104B0000B8BF81F00041BDE8F88F000000001044FC
:104B10000000F07F182D4454FB21F93FFB21F9BF21
:104B20000000DC3F0000203E0000F33F0000F03FAB
:104B30000000E63F008003400000F83F0000F0BFA7
:104B4000BA1F0000781F0000161F0000DE1E0000C4
:104B50002DE9F04D9446CCF1000423F000464CEAD8
:104B60000404594F46EAD4749A46884621F000421C
:104B7000BC4206D8454240EA050442EAD474BC422D
:104B800004D9BDE8F04D6246FFF792BBAAF140554B
:104B9000A5F17F6555EA0C040BD0022404EAAA743F
:104BA0004A4DDFF82CE144EAD87452EA000B04D0F5
:104BB0000CE0BDE8F04DFFF7BBBE002C14BF012C8C
:104BC000BDE8F08D022C30D0032C32D056EA0C0B0D
:104BD0000AD0BE4220D1BA4209D126F0804622F046
:104BE00080423346114617E000291ADB25E0DFF842
:104BF000E4B0FB44002C04BFDBE90001BDE8F08D0C
:104C0000012C02BFDBE9000181F00041BDE8F08D1D
:104C1000022C0AD0032C0CD0BA4212D1B8F1000FEA
:104C20000BDA2A482C49BDE8F08D28462B49BDE80F
:104C3000F08D28467146BDE8F08D24482849BDE82E
:104C4000F08D921B12153C2AC4BF204F244E10DC5D
:104C5000BAF1000FBEBF12F13C0F00273E4608DB41
:104C60006246FBF788FC21F00041FFF761FE074632
:104C70000E4694B1012C08BF86F000460DD0194AAB
:104C8000194B022C3846314615D0FBF7FCFB2A465F
:104C9000BDE8F04D114BFBF7F6BB0022134638463A
:104CA0003146FBF75BFD04BF0220FFF721FB3846CE
:104CB0003146BDE8F08DFBF7E6FB2A46BDE8F04D36
:104CC000064BFBF7E3BB00000000F07F182D4454B7
:104CD000FB2109C0721E0000FB21F9BFFB21094026
:104CE000FB21F93F075C143326A6A13C33B581B004
:104CF000054600246B4601221421284600F0AFFF30
:104D000004439DF8000000F0C00010B16FF00B00EC
:104D10003EBD6B4601221321284600F0A0FF04434C
:104D20009DF8000020F0400000909DF8000020F069
:104D3000380000909DF8000020F0070000909DF8DA
:104D400008009DF80010084300909DF8000040F016
:104D5000380000909DF8000040F0070000906B467E
:104D600001221321284601F005FB04432046CFE72A
:104D700038B505460024002000906B4601222949E1
:104D8000284601F0F7FA04436B4601222549C91E63
:104D9000284601F0EFFA04436869A8B96B4601227E
:104DA00020494639284600F05AFF04439DF8000088
:104DB00020F00C0000906B4601221A494639284623
:104DC00001F0D8FA04432BE06869012802D10420DD
:104DD000009008E06869022802D10020009002E0FB
:104DE0006FF00A0038BD6B4601224FF001112846D2
:104DF00001F0C0FA04436B4601220A4947392846AC
:104E000000F02DFF04439DF8000040F003000090E7
:104E10006B46012203494739284601F0ABFA0443A7
:104E20002046DFE77C00010070B504460D460748C8
:104E30000078401C0549087029462046FDF7C4F952
:104E4000FDF7C6F80248FDF7B7F870BDFF00002077
:104E50002003002030B503464FF0E024A169254C23
:104E6000247803FB04F200204FF0E0246469B2FBD5
:104E7000F4F4214D2C704FF0E0246469B2FBF4F59A
:104E800004FB1520814215D9081A00BF1A4C24785A
:104E9000002CFBD10A2806D200BF4FF0E024A46901
:104EA0000A2CFAD824E000BF4FF0E024A469844221
:104EB000FAD81DE0104C2478641C0F4D2C704FF074
:104EC000E02464690C44201A00BF0B4C2478002CA9
:104ED000FBD10A2806D200BF4FF0E024A4690A2CB7
:104EE000FAD805E000BF4FF0E024A4698442FAD864
:104EF00030BD0000280100202D01002010B504461F
:104F00001C22214602480068FBF730F910BD000062
:104F10005001002010B5102804D14B780C7843EADA
:104F2000042303E00B784C7843EA04231BB213807C
:104F300010BD000000BF054A128802F04002002A9E
:104F4000F9D0C2B2014B1B1D1A80704700380140D6
:104F500010B504462CB104480460044800F00CFD70
:104F600010BD4FF0FF30FBE750010020800500200E
:104F700010B50848FFF7ECFF07480649D1F80620AE
:104F800002604989818005480249CA680260098A2D
:104F9000818010BD04030020E4000020EA0000200E
:104FA00010B55B48B0F90000142846DA584800886C
:104FB000401C00B256490880FFF7DAFF5448B0F9A8
:104FC0000000022800DC10BD5248008852490988C0
:104FD000084400B24F490880084640884E49498835
:104FE000084400B24B494880084680884A4989886D
:104FF000084400B2474988804548B0F900001428A9
:105000001ADB0846B0F90000122190FBF1F000B263
:10501000404908800846B0F90200122190FBF1F0E7
:1050200000B23C4948800846B0F90400122190FBC8
:10503000F1F000B23749888067E0FFF799FF374801
:105040000088374908803548408848803348808840
:105050008880314800882F490988401A00B23049B9
:10506000C8802D4840882B494988401A01B22C48F5
:1050700001812948808827498988401A01B2284837
:1050800041812848007870B90120264908702448D9
:10509000C0882549C88022480189234801812048C9
:1050A0004189214841811E49C9881F4AD288891AED
:1050B00008B200F0E9F81D49088019490A891A491F
:1050C0000989511A08B200F0DFF8184948801449DC
:1050D0004A8915494989511A08B200F0D5F813498F
:1050E00088800846B0F90000102809DC0846B0F9AD
:1050F0000200102804DC0846B0F90400102804DD82
:105100000749891D881FFFF78FFE00BF5BE700007E
:10511000FC000020F0000020EA000020E400002055
:10512000D4020020FE000020EC020020DE0000205F
:1051300002460B46114609B9002070478BB1A3F512
:1051400080301F3820B1012805D002280CD105E09D
:1051500001F11800F1E701F11900EEE701F11A0081
:10516000EBE701F11B00E8E70020E6E70146092034
:10517000C8291BD008DC0C2910D0192910D03229DD
:1051800010D064291AD10FE0B1F5C87F10D0B1F565
:10519000487F0FD0B1F5C86F10D10DE00C200EE0A4
:1051A0000B200CE00A200AE0092008E0082006E0B5
:1051B000072004E0062002E0052000E000BF00BF59
:1051C000704701460020FA2909D0B1F5FA7F08D0CE
:1051D000B1F57A7F07D0B1F5FA6F08D105E060200C
:1051E00006E0402004E0202002E0002000E000BFB4
:1051F00000BF704710B588B0002400200190FCF774
:105200002FFC002007901C4803901C4804900020AD
:1052100002904FF4806005900690002202A9184881
:1052200000F048FC044614B160B208B010BD154847
:105230001349086201A9124800F030FC044614B179
:105240006FF00100F1E79DF80400672802D06FF0CD
:105250000200EAE701F0C8F904460421642001F0E5
:10526000E5FA4FF4FA61642001F000FB6420FBF7DB
:105270007FFF60B2D9E70000C7640008EF64000850
:1052800080050020FD4E00080146002902DA484250
:1052900000B270470846FCE730B585B005460024EB
:1052A00000200090019002900390284600F012FA2E
:1052B00004430821284600F0A5FF044304AB012263
:1052C0003549284600F0CBFC04439DF8100020F03F
:1052D000020004909DF8100040F00200049004AB1E
:1052E00001222D49284601F045F8044304AB012270
:1052F0002949284600F0B3FC04439DF8100020F033
:10530000010004909DF8100040F00100049004ABEF
:1053100001222149284601F02DF8044300208DF890
:1053200000008DF8010001208DF8020000208DF8AA
:10533000030001208DF804008DF805008DF80600AB
:105340008DF807008DF808008DF809008DF80A0027
:105350008DF80B008DF80C006946284600F04EFED3
:1053600004430121284600F03FF8044304AB012226
:105370000221284600F073FC04439DF8100040F021
:105380000100049004AB01220221284600F0F2FF44
:105390000443204605B030BD060001002DE9F0476A
:1053A00004464FF07C512046FAF75CFF81462546C3
:1053B0002E460C48A0EB6606354629464846FAF7C5
:1053C00051FF82462946FAF74DFF80464FF07F5144
:1053D000FAF745FF07462946FAF744FF05462846EF
:1053E000BDE8F087DF59375F70B586B006460D46D9
:1053F00000240020019002900390049041F24700A5
:105400008555304600F058FF002D7DD0012D7CD110
:1054100005AB01227949304600F021FC04439DF898
:10542000140020F0600005909DF8140040F040004A
:10543000059005AB01227149304600F09BFF044303
:1054400005AB01226D490D39304600F008FC0443DC
:105450009DF8140020F0030005909DF8140040F022
:105460000200059005AB012264490D39304600F079
:1054700081FF044305AB01220021304600F0EFFB21
:1054800004439DF8140020F0010005909DF81400DD
:1054900040F00100059005AB01220021304600F0EC
:1054A00069FF044305AB01221146304600F0D7FBEB
:1054B00004439DF8140020F0010005909DF81400AD
:1054C00020F0080005909DF8140020F002000590DF
:1054D0009DF8140020F0040005909DF8140040F0A1
:1054E000020005909DF8140040F0040005909DF81E
:1054F000140040F0010005909DF8140040F02000D9
:10550000059005AB012201E01DE06CE0114630463C
:1055100000F030FF04430120059005AB012237491C
:105520000C39304600F026FF044301A9304600F054
:10553000C5F9044300208DF8050001A9304600F0AC
:105540005DFD044352E005AB01222C490D39304684
:1055500000F085FB04439DF8140020F00100059045
:105560009DF8140040F00100059005AB012223498D
:105570000D39304600F0FEFE044305AB0122114612
:10558000304600F06CFB04439DF8140020F001004D
:1055900005909DF8140020F0020005909DF814007D
:1055A00020F0040005909DF8140005909DF814006B
:1055B00040F0040005909DF81400059005AB012211
:1055C0001146304600F0D6FE044301A9304600F0F3
:1055D00075F9044301208DF8050001A9304600F05B
:1055E0000DFD044302E04FF0FF3400BF00BF304622
:1055F00000F02CFE0443204606B070BD35000100CB
:105600000146481F0B2822D2DFE800F006090C0FE4
:105610001215181B1D1F220040F27120704740F226
:10562000E240FBE740F6C410F8E741F28830F5E7C6
:1056300042F21070F2E744F62060EFE749F640408E
:10564000ECE70448EAE70448E8E70448E6E700BF77
:105650000348E3E7803801000071020000E2040023
:1056600000C4090038B505460024002000906B46B0
:1056700001221749284600F07DFE04436B460122B3
:105680001349C91E284600F075FE044310200090FF
:105690006B4601220E497A39284600F06BFE04431E
:1056A0004FF47A7000F0CBFD2846FFF761FB04430E
:1056B0006B46012206494239284600F0D0FA0443DD
:1056C0009DF80000102801D064F00B04204638BD7E
:1056D0007C00010038B505460024284600F0ECFDAA
:1056E00004436B4601220321284600F0B8FA044324
:1056F0009DF8000020F0700000909DF800000090E0
:105700006B4601220321284600F034FE04436B4619
:1057100001220021284600F0A2FA04439DF800006F
:1057200020F0020000909DF8000000906B460122DE
:105730000021284600F01EFE0443284600F086FDA6
:105740000443204638BD00002DE9FC4705460024EF
:1057500001AB01222949284600F081FA04439DF853
:10576000040000F003069DF8040000F00C07022E70
:105770001AD10FB1042F17D16B4601221F49891C82
:10578000284600F06CFA04439DF8000000F00F0872
:105790004046FFF735FF8146284601F001F80443F3
:1057A000484600F04CFD00BF01AB012213492846DA
:1057B00000F055FA04439DF8040020F00300019026
:1057C0009DF8040040F00300019001AB01220B4959
:1057D000284600F0CFFD0443C82000F030FD56B944
:1057E00041F24700405D30B100F04CF941F2500207
:1057F0005051101D41512046BDE8FC871F0001009B
:105800002DE9FC470546002401AB01222A49284620
:1058100000F025FA04439DF8040000F003089DF809
:10582000040000F00C06B8F1020F1AD10EB1042EDC
:1058300017D16B4601222049891C284600F00FFA37
:1058400004439DF8000000F00F073846FFF7D8FE2C
:105850008146284600F0A4FF0443484600F0EFFCD0
:1058600000BF01AB01221449284600F0F8F90443B7
:105870009DF8040020F00C0001909DF8040040F019
:105880000C00019001AB01220B49284600F072FD8B
:105890000443C82000F0D3FC56B941F24700405DF4
:1058A00030B100F0EFF841F248025051101D415163
:1058B0002046BDE8FC8700001F000100F8B5064641
:1058C0000C4600256B4601222A49304600F0C7F9F4
:1058D00005439DF80000C0F3801020709DF8000083
:1058E000C0F3C00060709DF80000C0F38000A0709D
:1058F0009DF80000C0F34000E0706B4601221D4996
:10590000491C304600F0ABF905439DF80000C0F398
:10591000C00020719DF8000000F0010060719DF84A
:105920000000C0F34000A0719DF80000C0F38000AB
:10593000E0716B4601222F21304600F090F90543BB
:105940009DF80000C00920729DF80000C0F380108F
:1059500060729DF80000C0F34010A0729DF8000036
:10596000C0F30010E0729DF80000C0F3C000207387
:105970002846F8BD2B00010030B58DB00446002547
:105980000CAB01223349204600F069F92843051E7B
:1059900002D028460DB030BD9DF8300000F0010067
:1059A000002854D06B4602222A493039204600F0A4
:1059B00056F9054341F24501085D0DF116026946AD
:1059C000FFF7A8FA0AAB062222492E39204600F03A
:1059D00046F9054341F24501085D0DF10A020AA9A5
:1059E000FFF798FA41F24501085D03AA0DF12A017B
:1059F000FFF790FA41F24501085D0DF10E020BA987
:105A0000FFF788FA08AB062212492839204600F031
:105A100026F9054341F24501085D04AA08A9FFF7EC
:105A200079FA41F24501085D0DF112020DF12201F2
:105A3000FFF770FA41F24501085D05AA09A9FFF7D1
:105A400069FA206A10B101A8216A884700BF284678
:105A5000A0E700003900010038B5054600246B4678
:105A600001220749284600F0FAF8044334B99DF8AA
:105A7000000000F0100141F245004155204638BDBC
:105A8000350001000448006800EB800040004FF43E
:105A90007A714843002170476C00002070B50546BC
:105AA0000C46234601220249284600F0D8F870BD72
:105AB000750001002DE9F04105460E461746002409
:105AC00041F258012846FAF76AFB1EB1706808B126
:105AD000B06818B94FF0FF30BDE8F08118223146A8
