:020000040800F2
:10000000E04D0020E1010008E9010008EB010008D3
:10001000ED010008EF010008F101000800000000F8
:10002000000000000000000000000000490100087E
:10003000F5010008000000008D010008792000088B
:10004000FB010008FB010008FB010008FB010008A0
:10005000FB010008FB010008FB010008FB01000890
:10006000FB010008FB010008FB010008FB01000880
:10007000FB010008FB010008FB010008FB01000870
:10008000FB010008FB010008FB010008FB01000860
:10009000FB010008FB010008FB010008FB01000850
:1000A000FB01000815240008FB010008FB01000803
:1000B000FB010008FB010008FB010008FB01000830
:1000C000FB010008FB010008FB010008FB01000820
:1000D000FB010008892D0008FB010008FD2D000828
:1000E000FB010008FB010008FB010008FB01000800
:1000F000FB010008FB010008FB010008FB010008F0
:10010000FB010008FB010008FB010008FB010008DF
:10011000FB010008FB010008FB010008FB010008CF
:10012000FB010008FB010008FB010008FB010008BF
:10013000DFF810D000F0E8FA004800470D3300085F
:10014000AFF30080E04D0020224B19680868B0E84A
:10015000F00F80F30988BFF36F8F4FF0000080F33A
:1001600011884EF00D0E7047000000000648006830
:10017000006880F3088862B661B6BFF34F8FBFF3A3
:100180006F8F00DF00BF00BF08ED00E0EFF30980D4
:10019000BFF36F8F0F4B1A6820E9F00F106008B59E
:1001A0004FF0BF0080F31188BFF34F8FBFF36F8F05
:1001B00003F01CFD4FF0000080F31188BDE80840FB
:1001C00019680868B0E8F00F80F30988BFF36F8FF3
:1001D000704700BF58010020EFF305807047000012
:1001E0000648804706480047FEE7FEE7FEE7FEE7D1
:1001F000FEE7FEE7FEE7FEE7FEE7FEE70521000873
:100200003101000880EA010210B502F0004340000D
:1002100022D04A001FD0010E01EB1261C0F356003C
:10022000C2F3560240F4000042F40002A0FB022098
:1002300000047F39140400D0401C50EA124001D45D
:100240004000491EC2B20C0604EBD010401C40080E
:10025000802A02D003E0002010BD20F00100002918
:1002600000DA0020184310BD2DE9FE4F81EA030497
:1002700004F0004421F0004100944FF0000B23F003
:10028000004350EA01045ED052EA03045BD0C3F39A
:100290000A54C1F30A552C44A4F2F3340194A0FB90
:1002A0000254C1F3130141F48011C3F3130343F467
:1002B000801301FB024400FB034E840A970A44EAC0
:1002C000815447EA8357A4FB076802958D0A05FB12
:1002D00007854FEA932C04FB0C542705029D4FEA37
:1002E000065847EA1637B5EB08056EEB070C870E84
:1002F000920E47EA811742EA8312A7FB0201B6EB8E
:100300000B0164EB00042B0D43EA0C335E1844EB45
:100310001C50DA465146E7FB0201C5F313044FEACD
:100320000B3343EA14534FEA0432019C43EA0603B9
:10033000A4F10C040294009CCDE900B400F096F9FD
:1003400003B0BDE8F08F00200146F9E72DE9F04D3C
:1003500081EA030404F0004B21F0004514464FF0FD
:10036000000A23F0004150EA050220D054EA0102BD
:100370001DD0C5F30A570246C5F31303C1F313009A
:10038000C1F30A5640F4801543F48013A7EB060826
:10039000101BD64608F2FD3873EB050002D308F1B6
:1003A000010801E092185B41B8F1000F03DA002068
:1003B0000146BDE8F08D00204FF4801106468446CA
:1003C0000EE0171B73EB050705D3121B63EB050348
:1003D00006434CEA010C49084FEA300092185B4191
:1003E00050EA0107EDD152EA030012D082EA04007C
:1003F00083EA0501084305D0101BAB4106D2012258
:10040000002306E000224FF0004302E06FF00102FB
:1004100053101AEB06004CEB085110EB0A0041EBAD
:100420000B01BDE8F04D00F012B9C10F80EAE07099
:100430000844CA079623002100F0DBB89623002267
:10044000114600F0D6B80EB5C10F80EAE07008443E
:10045000CA07002140F233438DE80E000A460B46DE
:1004600000F004F903B000BD00F0004220F00040AD
:10047000C10DC0F3160040F400007F2901DA00200E
:100480007047962903DCC1F19601C84001E0963916
:100490008840002AF4D04042704770B5C1F30A5238
:1004A00001F000450024C1F3130140F2FF3341F491
:1004B00080119A4201DA002070BD40F233439A4223
:1004C000A2F2334203DC524200F07AF800E090409E
:1004D0002C43F1D0404270BDC1F30A5210B5C1F3B4
:1004E000130140F2FF3341F480119A4201DA0020F7
:1004F00010BD40F233439A42A2F2334203DC52422F
:1005000000F05EF810BD904010BD00F0004230F0E9
:1005100000400AD0C10D01F56071C0F3160042EA37
:100520000151C2084007114370470020014670473F
:1005300030B5041E71F1000404DB4FF0004440426A
:1005400064EB0101141E73F1000405DB1C464FF03F
:100550000043524263EB04038B4208BF824230BD2A
:1005600001F0004330B421F0004150EA010206D00E
:100570000A0DA2F56072C1F31301002A02DC30BC3F
:1005800000207047440F44EAC104C100E01830BCA9
:1005900000EBC25000F024B8002801DBC0F100409D
:1005A000002901DBC1F1004181427047002801DBD5
:1005B000C0F10040002901DBC1F1004188427047D1
:1005C000202A04DB203A21FA02F00021704721FAA8
:1005D00002F3D040C2F1200291400843194670470F
:1005E0000029A8BF7047401C490008BF20F0010047
:1005F000704710B4B0FA80FC00FA0CF050EA010425
:1006000004BF10BC704749B1CCF1200421FA04F4B6
:1006100011FA0CF118BF012121430843A3EB0C018F
:10062000CB1D4FEA00614FEA102042BF002010BCF2
:10063000704700EBC35010440029A4BF10BC7047A2
:10064000401C490008BF20F0010010BC704710B5E5
:10065000141E73F1000408DA401C41F100019218E5
:100660005B411A4301D120F0010010BD2DE9F04D8E
:1006700092469B4611B1B1FA81F202E0B0FA80F2E3
:100680002032904600F052F804460F4640EA0A0035
:1006900041EA0B0153465A46084313D0114653EA28
:1006A000010019D0C8F140025046FFF789FF054606
:1006B0000E4650465946424600F038F8084305D0E9
:1006C000012004E020463946BDE8F08D00200543B6
:1006D00046EAE0762C4337430A986305E40AA0EB28
:1006E00008000022FD0A44EA47540A3002D50020DF
:1006F0000146E9E7010510196941DDE908450019DE
:100700006941BDE8F04DA2E7064C074D06E0E06800
:1007100040F0010394E8070098471034AC42F6D348
:10072000FFF70AFD443F0008643F0008202A04DB6D
:10073000203A00FA02F1002070479140C2F12003F4
:1007400020FA03F319439040704770B58C1810F8E5
:10075000015B15F0070301D110F8013B2A1106D106
:1007600010F8012B03E010F8016B01F8016B5B1E20
:10077000F9D12B0705D40023521E0DD401F8013BFB
:10078000FAE710F8013BCB1A921C03E013F8015B67
:1007900001F8015B521EF9D5A142D8D3002070BDEB
:1007A00021B1826842F00102826003E0826822F097
:1007B000010282607047000010B50446124884426E
:1007C00008D10121401501F0BBFA0021601501F0AC
:1007D000B7FA17E00D48844208D10121001501F055
:1007E000AFFA0021201501F0ABFA0BE00848844273
:1007F00008D10121C80301F0A3FA00214FF4004001
:1008000001F09EFA10BD00000024014000280140C4
:10081000003C0140014600208A6802F004020AB14F
:10082000012000E0002070470146C86C80B270478C
:100830000246002013680B400BB1012000E00020AD
:100840007047014600208A6802F008020AB10120C0
:1008500000E000207047000030B502460020002371
:1008600050680F4C20400D790C6844EA0524204361
:10087000506090680B4C2040D1E902542C434D79D4
:1008800044EA450420439060D06A20F470000C7C58
:10089000641EE4B2234340EA0350D06230BD00003E
:1008A000FFFEF0FFFDF7F1FFF0B504460D46002016
:1008B0000021092D11DDE068A5F10A0606EB4607C7
:1008C000072606FA07F18843A5F10A0606EB460655
:1008D00003FA06F10843E0600CE0206905EB4507E8
:1008E000072606FA07F1884305EB450603FA06F1E9
:1008F00008432061072A0FDA606B561E06EB860755
:100900001F2606FA07F18843561E06EB860605FAEF
:1009100006F10843606322E00D2A0FDA206BD61F30
:1009200006EB86071F2606FA07F18843D61F06EB5B
:10093000860605FA06F10843206310E0E06AA2F19A
:100940000D0606EB86071F2606FA07F18843A2F17B
:100950000D0606EB860605FA06F10843E062F0BDD7
:10096000816841F008018160704721B1826842F4DA
:10097000A002826003E0826822F4A00282607047D5
:10098000816841F004018160704700007CB500205F
:10099000009001900025284800788DF80000264836
:1009A0000088000A8DF80100234880788DF8020045
:1009B00021484088000A8DF803001F4800798DF80F
:1009C00004001D488088000A8DF80500002405E019
:1009D0001DF804002844C5B2601CC4B2062CF7DB25
:1009E000E8B28DF80600552002F03CF9032002F031
:1009F00039F9062002F036F99DF8000002F032F9CC
:100A00009DF8010002F02EF99DF8020002F02AF98B
:100A10009DF8030002F026F99DF8040002F022F987
:100A20009DF8050002F01EF99DF8060002F01AF983
:100A3000BB2002F017F97CBDBC0000202DE9F0417D
:100A400007460C460025002605E0384600F0B6FBB8
:100A50000544701CC6B2A642F7DBB5FBF4F080B2C9
:100A6000BDE8F08110B500F00BF8044603492046BC
:100A7000FFF7C8FB0446204610BD00000000A04060
:100A800070B505210420FFF7D9FF05462846FFF77A
:100A9000D5FC06460249FFF7B5FB0446204670BD6B
:100AA0003333533A00B587B001214FF4017001F0A0
:100AB00037F94FF4004001F007F91020ADF80400B9
:100AC00000208DF8070001A9174800F0E7FA174841
:100AD000FFF772FE002002908DF80C008DF80D00DB
:100AE0004FF4602004900020059001208DF818003C
:100AF00002A90E48FFF7B0FE01210C48FFF750FE97
:100B00000A48FFF72DFF00BF0848FFF79AFE0028AC
:100B1000FAD10648FFF734FF00BF0448FFF77AFE1A
:100B20000028FAD107B000BD0008014000240140B0
:100B30007CB50020009001900025284800788DF8B1
:100B4000000026480088000A8DF8010023488078BC
:100B50008DF8020021484088000A8DF803001F48E4
:100B600000798DF804001D488088000A8DF8050082
:100B7000002405E01DF804002844C5B2601CC4B27E
:100B8000062CF7DBE8B28DF80600552002F06AF873
:100B9000052002F067F8062002F064F89DF80000D6
:100BA00002F060F89DF8010002F05CF89DF8020088
:100BB00002F058F89DF8030002F054F89DF8040084
:100BC00002F050F89DF8050002F04CF89DF8060080
:100BD00002F048F8BB2002F045F87CBDCC000020B4
:100BE00010B54FF40051024800F0E3FA10BD0000C8
:100BF000000C014010B54FF40051024800F0DBFA40
:100C000010BD0000000C01400348007808B9012025
:100C100070470020FCE700002801002070B515484F
:100C20000078F8B1FFF71EFF05461349FFF7EAFA0F
:100C30000446FFF719FC1149086008460068FFF7F1
:100C4000F4FB04460E49FFF7A7FC0CD20D480068E0
:100C5000401C0C49086008460068642806DD002036
:100C60000449087002E00020064908600148007845
:100C700070BD0000280100200000C8422C010020A7
:100C80000100704430010020002004E00021074AE8
:100C90001154411CC8B2064909788842F6DB00208D
:100CA00003490870034908707047000008020020DB
:100CB000B3000020B20000203A490A780978491CA4
:100CC000384B1970384988540978552903D00021C8
:100CD0001A4611707047334909780B2900DAF9E791
:100CE0003149497850390A2956D2DFE801F0050D1B
:100CF000151D252D353D454D2C492B4A921C136859
:100D00000B6052684A6047E02949274A921C1368E1
:100D10000B6052684A603FE02649234A921C1368E0
:100D20000B6052684A6037E023491F4A921C1368DF
:100D30000B6052684A602FE020491B4A921C1368DE
:100D40000B6052684A6027E01D49174A921C1368DD
:100D50000B6052684A601FE01A49134A921C1368DC
:100D60000B6052684A6017E017490F4A921C1368DB
:100D70000B6052684A600FE014490B4A921C1368DA
:100D80000B6052684A6007E01149074A921C1368D9
:100D90000B6052684A6000BF00BF0021014A117019
:100DA00000BF97E71D01002017020020B4000020BB
:100DB000BC000020C4000020CC000020D400002093
:100DC000DC000020E4000020EC000020F400002003
:100DD000FC00002070B5044602F09CFF012811D0F1
:100DE0000E480088844206DB0C48008894FBF0F52E
:100DF000284602F041FE0948008894FBF0F100FB10
:100E0000114084B204EB4401C1EBC4114FF6FF72F0
:100E100002EAC10002F0F0F970BD000020010020DC
:100E20000146022902D1054800687047042902D111
:100E300003480068F9E70020F7E7000034010020CC
:100E40003801002010B500F003F800F063F810BD81
:100E500000B587B00121022000F042FF01210820E7
:100E600000F05EFF4020ADF8000004208DF8030084
:100E70006946264800F012F90121082000F050FFD1
:100E80008020ADF8000004208DF8030069461F485B
:100E900000F004F904A801F065FE0020ADF8100090
:100EA0004FF6FF70ADF814000020ADF81600ADF855
:100EB000120004A9164801F003FE00231A4603217C
:100EC000134801F0CFFB01A801F054FC0A20ADF853
:100ED0000C0001A90E4801F0F7FB01210C4801F0BC
:100EE000BBFA012211460A4801F04DFC00210848D6
:100EF00001F0B7FD47F6FF70054924310880012154
:100F0000034801F0AFFA07B000BD0000000C01403B
:100F10000004004000B587B00121042000F0E0FE8D
:100F20000121082000F0FCFE4020ADF80000042064
:100F30008DF803006946264800F0B0F8012108202A
:100F400000F0EEFE8020ADF8000004208DF80300D4
:100F500069461F4800F0A2F804A801F003FE002033
:100F6000ADF810004FF6FF70ADF814000020ADF89A
:100F70001600ADF8120004A9164801F0A1FD0023E7
:100F80001A460321134801F06DFB01A801F0F2FBA2
:100F90000A20ADF80C0001A90E4801F095FB0121D3
:100FA0000C4801F059FA012211460A4801F0EBFB06
:100FB0000021084801F055FD47F6FF70054924312E
:100FC00008800121034801F04DFA07B000BD000080
:100FD000000C01400008004001460020022902D018
:100FE000042914D109E00B4A128847F6FF739A1AB4
:100FF00010B21A46074B1A800AE0074A128847F6D1
:10100000FF739A1A10B21A46034B1A8000E000BF11
:1010100000BF7047240400402408004010B5044677
:10102000022C02D0042C12D108E00220FFF7D4FFDA
:1010300008490968081A0749086009E00420FFF711
:10104000CBFF0549096808440349086000E000BF78
:1010500000BF10BD340100203801002008B5012177
:10106000112000F05DFE0121092000F059FE4FF42F
:101070000050ADF8000003208DF8020010208DF81C
:1010800003006946034800F009F86946024800F089
:1010900005F808BD00100140000C01402DE9F041A9
:1010A000024600250026002000230024002791F896
:1010B00003C00CF00F0591F803C00CF0100CBCF14C
:1010C000000F03D091F802C04CEA050591F800C06A
:1010D000BCF1000F31D0146800202BE04FF0010C60
:1010E0000CFA00F3B1F800C00CEA03069E4220D1CE
:1010F00083004FF00F0C0CFA03F7BC4305FA03FC16
:101100004CEA040491F803C0BCF1280F06D14FF05B
:10111000010C0CFA00FCC2F814C00AE091F803C0FC
:10112000BCF1480F05D14FF0010C0CFA00FCC2F8DD
:1011300010C0401C0828D1D31460B1F800C0BCF125
:10114000FF0F34DD546800202EE000F1080C4FF052
:10115000010808FA0CF3B1F800C00CEA03069E423D
:1011600021D183004FF00F0C0CFA03F7BC4305FAB2
:1011700003FC4CEA040491F803C0BCF1280F05D12C
:1011800000F1080C08FA0CF8C2F8148091F803C0BA
:10119000BCF1480F07D100F1080C4FF0010808FA24
:1011A0000CF8C2F81080401C0828CED35460BDE86B
:1011B000F0814161704701617047000010B504463D
:1011C0000723012221460948FFF76EFB012107484A
:1011D000FFF7CBFB00BF02210448FFF729FB0028E3
:1011E000F9D00248FFF720FB10BD000000240140A9
:1011F0000148007870470000B30000202DE9F04757
:10120000044689460220FFF709FF0220FFF708FE87
:10121000284908600420FFF701FF0420FFF700FEC3
:101220002549086023490968244A1268881AFFF78B
:101230000AF90746224A234BFFF716F80546FFF73F
:101240002CF920601C4909681F4A1268881AFFF7A8
:10125000FAF805461A4A1B4BFFF706F80746FFF750
:101260001CF9C9F8000013490968144A1268881A61
:10127000FFF7E9F80546154A154BFEF7F5FF154A45
:1012800003C20D490968104A1268881AFFF7DBF893
:1012900005460E4A0E4BFEF7E7FF0F4A03C205480C
:1012A0000068064908600448006807490860BDE80E
:1012B000F0870000880000208C00002090000020B3
:1012C000F701486DE25C35409400002061380B9FC7
:1012D00042422240A0000020A800002000487047A1
:1012E000080200207CB500200090019000252848CD
:1012F00000788DF8000026480088000A8DF801006B
:10130000234880788DF8020021484088000A8DF833
:1013100003001F4800798DF804001D488088000AEA
:101320008DF80500002405E01DF804002844C5B22E
:10133000601CC4B2062CF7DBE8B28DF8060055201D
:1013400001F090FC042001F08DFC062001F08AFCE5
:101350009DF8000001F086FC9DF8010001F082FC80
:101360009DF8020001F07EFC9DF8030001F07AFC7C
:101370009DF8040001F076FC9DF8050001F072FC78
:101380009DF8060001F06EFCBB2001F06BFC7CBDFB
:10139000C40000200148007870470000B20000201F
:1013A00010B54FF400510248FFF705FF10BD0000D3
:1013B0000010014010B54FF400510248FFF7F9FE4C
:1013C00010BD0000001001402DE9F04106460C461A
:1013D00015461E493046FFF7E9F809D31B49204658
:1013E000FFF7E4F804D319492846FFF7DFF801D2E4
:1013F000BDE8F0811648066016480460164805608E
:10140000134801684FF08940FEF7FCFE0746FFF7DE
:101410002BF8124908610F4801684FF08940FEF728
:10142000F1FE0746FFF720F80C4948610A480168B9
:101430004FF08940FEF7E6FE0746FFF715F807492B
:101440008861084602F004FA00BFD1E7000020419D
:10145000280000202C00002030000020C0010020C7
:1014600008B50121042000F05BFC0F20ADF800005E
:1014700018208DF8030003208DF802006946024809
:10148000FFF70CFE08BD00000008014010B521491F
:101490002148FFF7B3FE2148006810B920480068D2
:1014A00018B31E48008800B21E4908841C480088F2
:1014B00000B21D4908841848008800B219494884C0
:1014C0001448008800B218494884184818498268AE
:1014D000184800F08FFB164801681648006800F0B5
:1014E000C1F800201449086012E01049886800F033
:1014F0004FFA114800680D2804D20F480068401CBC
:101500000D4908600C480068032801D100F0FEF87E
:1015100010BD00007C00002078000020800000202A
:1015200084000020C0010020E4010020B40100205C
:101530007400002070000020980000202DE9FC417C
:10154000002000900190002500221346434903C962
:10155000FEF7EEFF12D200208DF800003F49D1E9DE
:10156000007121F000413846FEF7B6FF86B2F0B2B6
:101570008DF80100300A8DF802000EE0FF208DF892
:101580000000364903C9FEF7A7FF86B2F0B28DF816
:101590000100300A8DF8020000BF002213463049D6
:1015A00003C9FEF7C5FF12D200208DF803002C49B5
:1015B000D1E9007121F000413846FEF78DFF86B277
:1015C000F0B28DF80400300A8DF805000EE0FF201F
:1015D0008DF80300224903C9FEF77EFF86B2F0B200
:1015E0008DF80400300A8DF8050000BF002405E0E6
:1015F0001DF804002844C5B2601CC4B2062CF7DBF9
:10160000E8B28DF80600552001F02CFB022001F015
:1016100029FB062001F026FB9DF8000001F022FBCB
:101620009DF8010001F01EFB9DF8020001F01AFB7D
:101630009DF8030001F016FB9DF8040001F012FB79
:101640009DF8050001F00EFB9DF8060001F00AFB75
:10165000BB2001F007FBBDE8FC810000A0000020DA
:10166000A800002070B504460D462146012000F078
:10167000D3F82946022000F0CFF870BD2DE9F05FC5
:1016800082460C46934699462046FEF7DCFE074606
:101690004FF02D321A4BFEF7E7FD0546FEF7FDFE33
:1016A00004B24846FEF7CFFE05464FF02D32144BEC
:1016B000FEF7DAFD0746FEF7F0FE0FFA80F9B4F503
:1016C000616F01DD4FF46164B9F5616F01DD4FF4C5
:1016D0006169BAF1000F03D160420A49086001E074
:1016E00008480460BBF1000F04D1C9F100000649AD
:1016F000086002E00448C0F80090BDE8F09F0000D8
:101700002D2D054080000020840000204FF46160F2
:10171000810688860887888701490880704700000D
:101720004000004030B587B005460C460121084610
:1017300000F0D6FA4FF0804000F0A0FE681E80B2A4
:10174000ADF81400ADF810400020ADF81600ADF86B
:10175000120004A94FF0804001F0B2F9684601F090
:1017600076F96020ADF800000120ADF802000020FD
:10177000ADF806000220ADF808006946400701F008
:101780000BF80821C80601F053F86020ADF80000FE
:101790000120ADF802000020ADF806000220ADF8EF
:1017A00008006946400701F04DF80821C80601F01D
:1017B0009BF86020ADF800000120ADF80200002089
:1017C000ADF806000220ADF808006946400701F0B8
:1017D00099F80821C80601F0E5F86020ADF800008E
:1017E0000120ADF802000020ADF806000220ADF89F
:1017F00008006946400701F0DFF80821C80601F03B
:1018000019F90121880700F01BFE0121880700F06B
:1018100029FE07B030BD000070B505460C46B4F592
:10182000616F01DD4FF4616414F5616F00DA084CFB
:10183000012D02D0022D08D103E0204600F00AF865
:1018400004E0204600F01AF800E000BF00BF70BDC1
:10185000F0F1FFFF10B50446002C05DB00204FF02F
:10186000804188860C8707E0204601F075FD4FF027
:10187000804188860020088710BD000010B504460E
:10188000002C06DB4FF080418C8700200649088041
:1018900008E000204FF080418887204601F05CFD81
:1018A0000149088010BD00004000004070B50021D3
:1018B00000230F22C47804B3154C246804F4E064B8
:1018C000C4F5E064210AC1F10403CA40447804FA73
:1018D00003F184781440214309010E4C0678A15588
:1018E000047804F01F050124AC4005786D11AD00AB
:1018F00005F1E025C5F8004109E0047804F01F0572
:101900000124AC40044D0678761145F8264070BDA0
:101910000CED00E000E400E080E100E0024901435A
:10192000024A1160704700000000FA050CED00E06B
:1019300000B5662014490861002048614FF48050CA
:1019400088614FF4E100C8600020C8830120087757
:10195000002008844884084601F07AFF66200B497D
:101960000861002048614FF4805088614FF4E10025
:10197000C8600020C88301200877002008844884BC
:10198000084601F065FF00BDC0010020E401002011
:10199000024908600021024A1160704708000020D7
:1019A00024000020F0B504460D4600210023291B29
:1019B000D2E90007CF1B166906FB0700566906FB34
:1019C00001000227566807FB161697683E44976980
:1019D00007FB06031360506890605160D06898421E
:1019E00000DAD368D0684042984201DDD0684342B3
:1019F0009812F0BD2DE9F04F89B004460D4600263F
:101A0000032003E0215C0E44411CC8B2A91E8142A0
:101A1000F8DCF6B2601910F8027CBE4202D009B0C0
:101A2000BDE8F08F2078552800D0F8E7607808905E
:101A30000898012806D007281BD0082842D009287A
:101A40007ED189E094F803A094F80580207940EADB
:101A5000082894F806B094F80890E07940EA09293B
:101A60000FFA89F35A460FFA88F15046FFF706FE3F
:101A7000BBE0E078079020790690079830B106988F
:101A800010B1FFF797FC01E0FFF78AFC94F805809E
:101A900094F80690B8F1000F07D0B9F1000F02D00A
:101AA000FFF7A8F801E0FFF79BF894F807A094F877
:101AB00008B0BAF1000F04D0BBF1000F01D001F063
:101AC000DBFB92E094F80480E07840EA082894F880
:101AD0000690607940EA092994F808A0E07940EA84
:101AE0000A2A4046FEF7AAFC0190FEF70EFD0022EE
:101AF0003F4BCDE90201FEF729FCCDE90401FEF7D9
:101B00002FFD83464846FEF799FC0190FEF7FDFC49
:101B10000022374BCDE90201FEF718FCCDE90401A4
:101B2000FEF71EFD07905046FEF788FC0190FEF779
:101B3000ECFC00222E4BCDE90201FEF707FC00E091
:101B400052E0CDE90401FEF70BFD06905846DDE9B1
:101B50000621FFF739FC48E094F80480E07840EA79
:101B6000082894F80690607940EA092994F808A0BA
:101B7000E07940EA0A2A4046FEF760FC0190FEF751
:101B8000C4FC00221A4BCDE90201FEF7DFFBCDE9D0
:101B90000401FEF7E5FC83464846FEF74FFC019042
:101BA000FEF7B3FC0022124BCDE90201FEF7CEFB9B
:101BB000CDE90401FEF7D4FC07905046FEF73EFC49
:101BC0000190FEF7A2FC0022094BCDE90201FEF7CD
:101BD000BDFBCDE90401FEF7C3FC06905846DDE9E4
:101BE000062100F027F900E000BF00BF00BF16E7A4
:101BF00000408F402DE9F04106460F46904634687C
:101C00003D6842461049114800F024F80F48B0F9E9
:101C10001E0004440C48B0F91E000544B4F5616F81
:101C200001DD4FF4616414F5616F00DA084CB5F51D
:101C3000616F01DD4FF4616515F5616F00DA044DE8
:101C400034603D60BDE8F081E4010020C001002067
:101C5000F0F1FFFF70B505460C4616460020194905
:101C60000860287F01280DD1B5F92210B5F92000B0
:101C70002A46FFF797FE404212490988401A00B2EF
:101C8000E88306E00020E883284601F0E1FD022019
:101C90002877207F01280DD1B4F92210B4F9200053
:101CA0002246FFF77FFE404206490988084400B2F9
:101CB000E08306E00020E083204601F0C9FD022019
:101CC000207770BD2400002001460020034A5068A0
:101CD00020F440400843506070470000001002406C
:101CE00029B1064AD2690243044BDA6104E0034A8F
:101CF000D2698243014BDA61704700000010024054
:101D000029B1064A12690243044B1A6104E0034AEE
:101D100012698243014B1A617047000000100240B3
:101D200029B1064A92690243044B9A6104E0034ACE
:101D300092698243014B9A61704700000010024093
:101D400029B1064AD2680243044BDA6004E0034A30
:101D5000D2688243014BDA607047000000100240F5
:101D600030B500210022002400232D4D6D6805F0C0
:101D70000C0121B1042905D0082923D105E0294D02
:101D8000056022E0274D05601FE0254D6D6805F4D4
:101D90007012234D6D6805F48034022505EB9242E4
:101DA0001CB9214D554305600BE01D4D6D6805F4D0
:101DB00000351DB11C4D5543056002E0194D5543DA
:101DC000056002E0174D056000BF00BF144D6D684F
:101DD00005F0F0010909154D6B5C0568DD404560B3
:101DE0000F4D6D6805F4E061090A104D6B5C4568A4
:101DF000DD4085600A4D6D6805F46051C90A0B4DE0
:101E00006B5C4568DD40C560054D6D6805F440417B
:101E1000890B074D6B5CC568B5FBF3F5056130BDFB
:101E20000010024000127A0000093D004401002029
:101E3000540100202DE9F04106460C4615461E4986
:101E40003046FEF7B3FB09D31B492046FEF7AEFB35
:101E500004D319492846FEF7A9FB01D2BDE8F08159
:101E60001648066016480460164805601348016865
:101E70004FF08940FEF7C6F90746FEF7F5FA12491A
:101E800008610F4801684FF08940FEF7BBF907462B
:101E9000FEF7EAFA0C4948610A4801684FF08940A8
:101EA000FEF7B0F90746FEF7DFFA074988610846F2
:101EB00001F0CEFC00BFD1E7000020412800002047
:101EC0002C00002030000020E40100202DE9FC411E
:101ED00000200090019000250026FEF7C3FD8046FB
:101EE0002A49FEF78FF90746FEF7BEFA0646642038
:101EF00096FBF0F0C0B28DF80000642096FBF0F184
:101F000000FB1160C0B28DF8010000208DF80200C6
:101F10008DF803008DF804008DF80500002405E01D
:101F20001DF804002844C5B2601CC4B2062CF7DBBF
:101F3000E8B28DF80600552000F094FE062000F06F
:101F400091FE062000F08EFE9DF8000000F08AFE53
:101F50009DF8010000F086FE9DF8020000F082FE70
:101F60009DF8030000F07EFE9DF8040000F07AFE6C
:101F70009DF8050000F076FE9DF8060000F072FE68
:101F8000BB2000F06FFEBDE8FC8100000000C842ED
:101F900010B500F001F810BD0CB5002001900090C4
:101FA0003348006840F480303149086000BF304851
:101FB000006800F4003000900198401C01900098E7
:101FC00018B90198B0F5A06FF1D12948006800F464
:101FD000003010B10120009001E000200090009836
:101FE000012843D12348006840F0100021490860CF
:101FF0000846006820F0030008600846006840F0CA
:10200000020008601A48406819494860084640685C
:1020100048600846406840F4806048600846406870
:1020200020F47C1048600846406840F4E81048609E
:102030000846006840F08070086000BF0C480068E7
:1020400000F000700028F9D00948406820F0030033
:10205000074948600846406840F00200486000BFF9
:102060000348406800F00C000828F9D10CBD0000BE
:10207000001002400020024010B501F04BFE012884
:1020800001D001F0FDFD10BD38B504460D4600201D
:102090004FF0E021886105FB04F000EB4001C1EB4B
:1020A000C0104FF0E021486103200861E11704EB04
:1020B0005171C1F3C701114A11701046007800EB4D
:1020C0004001C1EBC0104FF6FF7101EAC0000C499E
:1020D00008804FF4C060FFF721FCFF208DF800005E
:1020E00003208DF8010000208DF8020001208DF8FA
:1020F00003006846FFF7DAFB38BD00001E01002030
:102100002001002010B51348006840F0010011497B
:10211000086008464068104908400E494860084673
:1021200000680E4908400B4908600846006820F422
:10213000802008600846406820F4FE0048604FF4A4
:102140001F008860FFF724FF4FF00060044908601B
:1021500010BD0000001002400000FFF8FFFFF6FE77
:1021600008ED00E0F0B50C46154600220021068C73
:102170004FF6FE773E400684028B018C4FF60C76BC
:1021800032407E1C06EA03162E433243104EB04204
:102190000ED0104EB0420BD0B0F1804F08D00E4E92
:1021A000B04205D00D4EB04202D00D4EB04206D125
:1021B0004FF6FD76314044F00106314305E04FF61D
:1021C000F576314044F00106314302830184F0BDCD
:1021D000002C014000340140000400400008004091
:1021E000000C0040F0B50C461546002200210026E8
:1021F000078C4FF6EF7C07EA0C070784028B018CF3
:102200004FF6FF7707EA041640F6FF473A404FF6CD
:10221000FF7707EA03373A434FF6FF7707EA0527C8
:102220003A43114FB8420ED0104FB8420BD0B0F124
:10223000804F08D00E4FB84205D00E4FB84202D0A2
:102240000D4FB84206D14FF6DF77394046F0100700
:10225000394305E04FF65F77394044F010073943C2
:1022600002830184F0BD0000002C014000340140D5
:102270000004004000080040000C0040F0B50C468F
:102280001546002200210026078C4FF6FF6C07EA56
:102290000C070784828B018C4FF6FF7707EA042630
:1022A0004FF60C773A404FF6FF7707EA03172F43B4
:1022B0003A43114FB8420ED0104FB8420BD0B0F194
:1022C000804F08D00E4FB84205D00E4FB84202D012
:1022D0000D4FB84206D14FF6FF57394046F480778C
:1022E000394305E04FF2FF57394044F480773943D2
:1022F00082830184F0BD0000002C014000340140C5
:102300000004004000080040000C0040F0B50C46FE
:102310001546002200210026078C4EF6FF7C07EAB6
:102320000C070784828B018C4FF6FF7707EA04368F
:1023300040F6FF473A404FF6FF7707EA05273A4352
:102340004FF6FF7707EA03373A43114FB8420ED0F2
:10235000104FB8420BD0B0F1804F08D00E4FB842AA
:1023600005D00E4FB84202D00D4FB84206D14DF6FF
:10237000FF77394046F48057394305E047F6FF5769
:10238000394044F48057394382830184F0BD000012
:10239000002C0140003401400004004000080040CF
:1023A000000C00401FB50121C802FFF7B9FC002056
:1023B0008DF80C006320ADF8080041F61F40ADF821
:1023C00004000020ADF80A00ADF8060001A910488D
:1023D00000F076FB012211460D4800F0D4F94FF4CD
:1023E000A060FFF79BFA19208DF8000002208DF8FD
:1023F000010003208DF8020001208DF803006846DB
:10240000FFF754FA0121024800F02CF81FBD00002C
:10241000002C014010B50121084800F044F960B1DA
:10242000012000F0B3FB10B1012000F0A5FBFFF785
:102430002DF80121014800F012F810BD002C0140D8
:1024400021B1028842F08002028004E002884FF647
:102450007F731A4002807047CA4302827047CA43A2
:102460000282704721B1028842F00102028004E03A
:1024700002884FF6FE731A400280704710B504467A
:102480006848844208D10121C014FFF759FC00219B
:10249000E014FFF755FCC4E0B4F1804F08D10121EE
:1024A0000846FFF72DFC00210120FFF729FCB8E0CA
:1024B0005D48844208D101210220FFF721FC002160
:1024C0000220FFF71DFCACE05848844208D10121EE
:1024D0000420FFF715FC00210420FFF711FCA0E009
:1024E0005348844208D101210820FFF709FC00214C
:1024F0000820FFF705FC94E04E48844208D10121F2
:102500001020FFF7FDFB00211020FFF7F9FB88E00A
:102510004948844208D101212020FFF7F1FB002126
:102520002020FFF7EDFB7CE04448844208D10121E4
:102530004014FFF705FC00216014FFF701FC70E078
:102540003F48844209D10121C804FFF7F9FB00216B
:102550004FF40020FFF7F4FB63E03A48844209D1CE
:1025600001210805FFF7ECFB00214FF48010FFF775
:10257000E7FB56E03448844209D101214805FFF7C2
:10258000DFFB00214FF40010FFF7DAFB49E02F4892
:10259000844208D101214020FFF7B2FB00214020F6
:1025A000FFF7AEFB3DE02A48844208D1012180209C
:1025B000FFF7A6FB00218020FFF7A2FB31E02548B2
:1025C000844208D101218015FFF79AFB0021A01554
:1025D000FFF796FB25E02048844209D10121080439
:1025E000FFF7AEFB00214FF48030FFF7A9FB18E0A6
:1025F0001A48844209D101214804FFF7A1FB0021B8
:102600004FF40030FFF79CFB0BE01548844208D1E3
:1026100001218804FFF794FB00214FF48020FFF78D
:102620008FFB10BD002C014000040040000800405A
:10263000000C004000100040001400400034014035
:10264000004C01400050014000540140001800407F
:10265000001C0040002000400040014000440140B8
:1026600000480140F0B50C4615461E4600210022E8
:1026700000230189028B038C4FF6F8773940214300
:102680004FF6FC473A4040F201173A434FF6DD77E8
:102690003B404FF6FF7707EA06172F433B43018184
:1026A00002830384F0BD30B50246002000230024DD
:1026B000158A05EA0103958905EA010413B10CB1F5
:1026C000012000E0002030BD70B505460C462448CE
:1026D00085420ED0234885420BD0B5F1804F08D0FB
:1026E0002148854205D02148854202D020488542B4
:1026F00000D100E000BF208850B92389A2886188FA
:102700002846FFF72FFDE188284600F0ACF925E0C8
:10271000208804280AD12389A28861882846FFF7E7
:1027200061FDE188284600F0A7F917E02088082815
:102730000AD12389A28861882846FFF79FFDE18896
:10274000284600F0A6F909E02389A2886188284676
:10275000FFF7DCFDE188284600F0A4F970BD000019
:10276000002C0140003401400004004000080040FB
:10277000000C004000210180418001218180002166
:10278000C180018170471AB183890B43838102E0C4
:1027900083898B438381704770B500240022002316
:1027A000058C4FF6FE7635400584028C8388048BB9
:1027B0004FF68F752C40B51E2C400D882C43751E8E
:1027C0002A400D892A434D882A43144DA8420BD034
:1027D000134DA84208D0134DA84205D0124DA8426F
:1027E00002D0124DA84213D14FF6F7752A404D89F9
:1027F0002A434FF6FB752A408D882A434FF6FF6522
:102800002B404FF6FF552B408D892B43CD892B4311
:1028100083800483CD888586028470BD002C0140AE
:1028200000340140004001400044014000480140A4
:102830000A460021018B4FF6F773194011430183BB
:102840007047000070B5002400220023058C4FF66D
:10285000EF7635400584028C8388048B48F6FF753B
:102860002C404FF6FF452C400D884FF6FF7606EAC8
:1028700005252C434FF6DF752A400D8906EA05151C
:102880002A434D8806EA05152A43154DA84202D071
:10289000144DA8421DD14FF67F752A404D894FF641
:1028A000FF7606EA05152A434FF6BF752A408D8844
:1028B00006EA05152A434FF6FF352B404FF2FF7508
:1028C0002B408D8906EA85052B43CD8906EA8505CF
:1028D0002B4383800483CD880587028470BD00006C
:1028E000002C0140003401400A460021018B4FF2C8
:1028F000FF7319404FF6FF7303EA02231943018364
:102900007047000070B5002400220023058C4FF6AC
:10291000FF6635400584028C8388848B4FF68F7563
:102920002C404FF6FC752C400D882C434FF6FF557C
:102930002A400D894FF6FF7606EA05252A434D8881
:1029400006EA05252A43154DA84202D0144DA84297
:102950001DD14FF2FF752A404D894FF6FF7606EAEA
:1029600005252A434FF6FF352A408D8806EA0525BE
:102970002A434EF6FF752B404DF6FF752B408D898F
:1029800006EA05152B43CD8906EA05152B438380FE
:102990008483CD888587028470BD0000002C0140AF
:1029A000003401400A460021818B4FF6F77319402D
:1029B000114381837047000070B50022002300247A
:1029C000058C4EF6FF7635400584038C8488828B17
:1029D00048F6FF752A404FF6FF452A400D884FF60E
:1029E000FF7606EA05252A434DF6FF752B400D8933
:1029F00006EA05352B434D8806EA05352B430B4D7A
:102A0000A84202D00A4DA84208D14BF6FF752C40CF
:102A10008D894FF6FF7606EA85152C4384808283E4
:102A2000CD88A0F84050038470BD0000002C014008
:102A3000003401400A460021818B4FF2FF73194098
:102A40004FF6FF7303EA0223194381837047002185
:102A5000018041808180C180018141818181C1816A
:102A6000704781847047028B4FF6F3731A400283DC
:102A7000028B0A4302837047028B4FF2FF331A40E6
:102A80000283028B4FF6FF7303EA01231A4302838A
:102A90007047828B4FF6F3731A408283828B0A430E
:102AA00082837047828B4FF2FF331A408283828B7E
:102AB0004FF6FF7303EA01231A4382837047000035
:102AC000002202881D4B98420ED01D4B98420BD01D
:102AD000B0F1804F08D01B4B984205D01A4B98425A
:102AE00002D01A4B984204D14FF68F731A404B888C
:102AF0001A43174B984207D0164B984204D04FF612
:102B0000FF431A40CB881A4302808B8883850B8849
:102B100003850A4B98420BD0094B984208D00E4BC4
:102B2000984205D00D4B984202D00D4B984201D1EE
:102B30000B7A03860123838270470000002C01403A
:102B4000003401400004004000080040000C004038
:102B500000100040001400400040014000440140CB
:102B6000004801404FF6FF71818000210180C18043
:102B70004180017270470000012804D10249098890
:102B8000491E014A118070473C010020014601297D
:102B900002D10348008870474FF6FF70FBE7000042
:102BA0003C01002010B586B00446012144F2040027
:102BB000FFF7B6F84FF40070ADF8140018208DF848
:102BC000170003208DF8160005A92448FEF766FAC1
:102BD0004FF48060ADF8140004208DF8170005A9AB
:102BE0001E48FEF75BFA01940020ADF80800ADF82E
:102BF0000A00ADF80C00ADF810000C20ADF80E0086
:102C000001A9174800F0B2F9002240F227711448D8
:102C100000F086F9012240F22551114800F080F9B8
:102C200040210F4800F02EF901210D4800F042F933
:102C30004FF4A060FEF772FE25208DF80000012001
:102C40008DF8010003208DF8020001208DF80300AB
:102C50006846FEF72BFE06B010BD000000080140DC
:102C60000038014010B50446074801780078401C40
:102C7000054A107005484454012240F22771044867
:102C800000F04EF910BD00002501002011030020C6
:102C90000038014010B586B0044601210820FFF736
:102CA0003FF801218804FFF71BF84FF48060ADF86E
:102CB000140018208DF8170003208DF8160005A9C0
:102CC0002348FEF7EBF94FF40060ADF81400042040
:102CD0008DF8170005A91E48FEF7E0F901940020C1
:102CE000ADF80800ADF80A00ADF80C00ADF8100022
:102CF0000C20ADF80E0001A9164800F037F90022AB
:102D000040F22771134800F00BF9012240F22551DF
:102D1000104800F005F940210E4800F0B3F80121F9
:102D20000C4800F0C7F84FF4A060FEF7F7FD27202D
:102D30008DF8000001208DF8010004208DF80200BC
:102D400001208DF803006846FEF7B0FD06B010BD07
:102D5000000C01400048004010B5044607480178C7
:102D60000078401C054A107005484454012240F286
:102D70002771044800F0D4F810BD0000270100209E
:102D8000110400200048004010B5002440F22771D3
:102D9000164800F09BF8D8B1154802780078401C1E
:102DA000134B18701348815C104800F050F910481C
:102DB000007811490978884205D1002240F2277134
:102DC0000A4800F0ADF840F22771084800F063F8B7
:102DD00040F22551054800F079F830B1034800F081
:102DE00031F9C4B2204600F037F910BD0038014077
:102DF00024010020110300202501002010B540F21D
:102E000027711C4800F062F8E0B11B480278007896
:102E1000401C194B18701948815C164800F017F9CE
:102E200040F22771134800F036F81348007814492F
:102E30000978884217D1002240F227710D4800F02E
:102E40006FF810E040F225510A4800F03FF850B109
:102E50000849091D0988C8B2FDF72EFF40F2255127
:102E6000044800F018F84FF45871024800F013F8C5
:102E700010BD000000480040260100201104002081
:102E80002701002001F40072B2F5007F00D100BFDD
:102E9000CA430280704710B50022002340F66A142E
:102EA000A14200D100BF0A1201249440A3B2DC4326
:102EB000048010BD21B1828942F40052828104E075
:102EC00082894DF6FF731A408281704770B50246C1
:102ED000002400230025002040F66A16B14200D1EC
:102EE00000BFC1F3421501F01F03012606FA03F3E8
:102EF000012D02D19689334006E0022D02D1168AB7
:102F0000334001E0968A33400C12012606FA04F49D
:102F10001688344013B10CB1012000E0002070BDD0
:102F2000F0B50346002400260025002040F66A176D
:102F3000B94200D100BF1846C1F3421401F01F0688
:102F4000012707FA06F5012C01D10C3004E0022C10
:102F500001D1103000E014301AB107682F43076028
:102F600002E00768AF430760F0BD00002DE9F047BD
:102F700086B005460E460024A24600BFA1460027A3
:102F8000B08900B100BF2F462C8A4CF6FF70044078
:102F9000F08804432C82AC894EF6F3100440B088CC
:102FA00031890843718908430443AC81AC8A4FF6E8
:102FB000FF400440B0890443AC8201A8FEF7D0FE74
:102FC0001F48874202D1DDF810A001E0DDF80CA017
:102FD000A88900F4004040B10AEBCA0000EB0A10D7
:102FE00031684900B0FBF1F807E00AEBCA0000EBDA
:102FF0000A1031688900B0FBF1F86420B8FBF0F0EA
:1030000004012009642101FB1089A88900F4004013
:1030100040B1322000EBC900B0FBF1F000F0070036
:10302000044308E0322000EB09106421B0FBF1F00A
:1030300000F00F0004432C8106B0BDE8F0870000CB
:103040000038014001468888C0F308007047C1F38A
:1030500008028280704700003749097831B10129A0
:1030600013D0022926D0032962D142E0552806D187
:103070005521324A117001212F4A117004E00021BC
:103080002D4A11702D4A117053E0012803D00728F2
:1030900001D0082807D1294948700221264A117019
:1030A000274A117005E00021234A1170234A11704C
:1030B00051703EE0411D234A1170114609780F29D5
:1030C0000ADB00211E4A11701B4A11701B4A117045
:1030D00051701C4A11702CE01849194A1278885412
:1030E00017490978491C164A11700321124A1170B8
:1030F0001FE01249124A1278885411490978491C74
:103100000F4A1170114609780E4A127891420EDB6F
:103110000C490978491E094A515CBB2907D1012194
:10312000094A11700021064A1170034A117000E02B
:1031300000BF00BF70470000B1000020080200205F
:10314000B0000020B3000020B2000020014A024974
:1031500000F013B841320008B001002002E008C8B6
:10316000121F08C1002AFAD170477047002001E001
:1031700001C1121F002AFBD170472DE9F04116460C
:103180000F460446002503E03946B047641C6D1C19
:1031900020780028F8D12846BDE8F08110B50A2132
:1031A0004820FEF771FF4FF41650FFF773FD4FF400
:1031B000E130FFF7F7FC00F081F8FDF773FCFDF755
:1031C0004DFFFEF74DF900214FF46160FEF7AAFABA
:1031D000FDF738FEFFF7E6F8FEF7AAFB10BD00BFCB
:1031E000FDF71CFDFDF710FD08B1FDF703FD6420A0
:1031F00000F042FCF4E7000070B5034600224FF0F7
:10320000E02675690D4E367803FB06F44FF0E02694
:10321000B16910E04FF0E026B06988420BD08842D7
:1032200002D20E1A324402E02E1A0E4432440146F3
:10323000A24200D300E0EDE700BF70BD1E010020F8
:1032400000BF054A128802F04002002AF9D0C2B23B
:10325000014B1B1D1A8070470038014010B500F06B
:1032600059FD012802D000F065FD10BD014800683D
:10327000FBE700000400002010B50C4800F0EDFA58
:103280006420FDF7A7FD0A4800F0E7FA6420FDF787
:10329000A1FD084800F0E1FA6420FDF79BFD064817
:1032A00000F0DBFA6420FDF795FD10BD040100205D
:1032B0000E010020130100201801002010B509485C
:1032C00000F0CBFA6420FDF785FD074800F0C5FA51
:1032D0006420FDF77FFD054800F0BFFA6420FDF78C
:1032E00079FD10BD04010020090100201801002013
:1032F00000BFFEF75FF84FF47A7000F0BDFBFEF7F9
:103300004FF84FF47A7000F0B7FBF2E71CB5FFF707
:1033100045FF0AA0FFF71AFF094804210023802275
:10332000CDE9001007A10A4800F0C4FC00F024FC1D
:1033300008A0FFF70BFF00201CBD000030000000BC
:103340000000002073746172745F7461736B00001D
:1033500075380008390000000146002901DA4842AA
:1033600000E00846704700002DE9F04105460E4692
:103370001C4807681C480068001D00F0E0FA50B9BE
:103380001948006890F82C100120884017490968F6
:10339000814316480160681C38B936B1124801688B
:1033A000091D134800F009FB1AE07C190E4800685B
:1033B0004460BC4207D20C480168091D0D480068F2
:1033C00000F0E1FA0CE008480168091D0A480068AD
:1033D00000F0D9FA09480068844201D20748046025
:1033E000BDE8F0816C010020580100207001002030
:1033F000C8050020600100205C0100208801002039
:1034000010B5044600F0E6FA23480068401C224943
:1034100008602248006840B92048046008460068F7
:1034200001280DD100F00CF90AE01D48006838B9F8
:103430001A480068C06AE16A884201D817480460E7
:1034400018480068401C1749086094F82C100120A7
:10345000884015490968084313490860E16A01EB8F
:103460008101124A02EB8100211D00F0A6FA00F052
:10347000C3FA0B48006868B108480068C06AE16A8E
:10348000884207D24FF0805009490860BFF34F8F40
:10349000BFF36F8F10BD00006801002058010020AD
:1034A0007401002084010020700100201405002018
:1034B00004ED00E010B516E000F08CFA0C48C0688E
:1034C000C468201D00F03BFA0A480068401E094904
:1034D000086009480068401E0749086000F08CFA3F
:1034E000204600F00BF8044800680028E4D110BD25
:1034F000B4050020680100206401002010B50446D6
:10350000206B00F089FA204600F086FA10BD00001A
:1035100030B54FF48843174800F007042CB1C01DA4
:1035200020F00700134C041B1B1B0246124C2260A8
:103530000024114D6C60D018083820F007000F4CA3
:10354000206000240D4D2D686C600C4D2D682C60A2
:103550001146441A4C60094C24680C60084D4C68B4
:103560002C60084D4C682C604FF00044064D2C60D8
:1035700030BD0000DC050020940100209C010020EB
:10358000A4010020A0010020A801002000BFFFF737
:1035900091FF064800680128F9D94FF0805004498E
:1035A0000860BFF34F8FBFF36F8FF0E71405002063
:1035B00004ED00E02DE9FF5F80460E469146DDE90F
:1035C0000E7A109CA9F10100216B01EB800B2BF00E
:1035D000070B86B1002507E0715D04F13400415509
:1035E000705D00B902E06D1C102DF5D300BF002105
:1035F0004320015502E0002084F83400052F00D359
:103600000427E762201D00F0BBF904F1180000F068
:10361000B7F92461C7F10500A0616462002060640D
:1036200084F8480041465846039A00F0FFF82060AD
:10363000BAF1000F01D0CAF80040BDE8FF9F0000BA
:1036400010B5002407E004EB84010F4A02EB81006F
:1036500000F089F9641C052CF5D30C4800F083F9BF
:103660000B4800F080F90B4800F07DF90A4800F0A3
:103670007AF90A4800F077F90448094908600448D3
:103680000849086010BD00001405002078050020DE
:103690008C050020A0050020B4050020C8050020EE
:1036A0005C0100206001002010B50146164800E0D2
:1036B000006803688B42FBD30246436813448B4285
:1036C00004D143684C682344436001460A464B6872
:1036D00013440468A34211D10C4C03682468A3422C
:1036E00008D04B680468646823444B6003681B6817
:1036F0000B6005E0054B1B680B6001E003680B6085
:10370000884200D0016010BD940100209C0100207F
:103710000A490968096809B9012100E0002121B1BD
:103720004FF0FF31064A116006E004490968C96894
:10373000C868034A41681160704700005C010020BE
:103740008801002000BFBF2080F31188BFF34F8F96
:10375000BFF36F8F00BF00BFFEE700002DE9F0410F
:1037600005464FF0000800F039FA2B48006808B908
:10377000FFF7CEFE294800682840002847D145B110
:10378000083505F0070020B105F00700C0F108007A
:103790000544002D3BD022480068854237D8214E91
:1037A0003046046801E0264624686068A84202D2D8
:1037B00020680028F7D118480068844227D0306874
:1037C00000F10808206830606068401B102807D9A5
:1037D00067196068401B786065603846FFF764FFD2
:1037E0000F4960680968081A0D49086008460068B2
:1037F0000D490968884203D2094800680A490860EF
:10380000064960680968084360600020206000F095
:1038100025FB4046BDE8F0819C010020A801002066
:10382000A001002094010020A4010020001F4FF0FF
:1038300080730360001F21F001030360001F034B2E
:1038400003601438026020387047000045370008D4
:103850000021016041608160704770B50546002419
:1038600004E0285DFFF778FA601CC4B2052CF8DB91
:1038700070BD00001CB5044600F0ACF80020022129
:1038800003464FF47A72CDE9001010A1124800F0FF
:1038900011FA0020032103464FF47A72CDE900109B
:1038A0000EA1114800F006FA0020042103464FF44F
:1038B0007A72CDE900100DA10F4800F0FBF90F4816
:1038C000006800F0F3F800F097F81CBD6C65645FC9
:1038D0007461736B00000000F132000862757A7A3F
:1038E00065725F7461736B00DF310008756172741B
:1038F0005F7461736B320000013900080000002022
:10390000FFF7ACFC00BFFDF745FD50B1FDF770FCC3
:103910000446FDF7E3FC05462146FEF76BF8FDF78C
:10392000B3F9FDF70BFEFDF731F8FDF7DBFCFDF712
:10393000FFF8FEF7CBFA642000F09EF8E3E70146BB
:103940000A69D1E901309860D1E9010358605068F3
:10395000884201D188685060002008611068401ECC
:1039600010601068704700F1080141604FF0FF31AE
:10397000816000F10801C1600161002101607047B0
:1039800000210161704710B502460B685C1C0CB940
:10399000106907E002F1080000E04068446824680C
:1039A0009C42FAD944684C604C68A16088604160D0
:1039B0000A611468641C146010BD42684A60936810
:1039C0008B60936859609160086103685B1C0360B9
:1039D0007047000000BFBF2080F31188BFF34F8FF6
:1039E000BFF36F8F00BF03480068401C01490860A7
:1039F00070470000AC01002006480068401E0549E1
:103A000008600846006820B9002080F3118800BFD4
:103A100000BF7047AC01002070B506463546D6B1F0
:103A2000083D2C460C4960680968084098B1206838
:103A300088B90949606809688843606000F0CEF879
:103A40000649606809680844044908602046FFF791
:103A50002BFE00F003FA70BDA8010020A001002099
:103A600000204FF0E021086188610248486107208A
:103A7000086170473F19010070B50446002544B144
:103A800000F0ACF800212046FFF76EFC00F0E6F9EC
:103A900005463DB94FF0805003490860BFF34F8F92
:103AA000BFF36F8F70BD000004ED00E070B50546F8
:103AB000FFF790FF15B92748006800E02846044644
:103AC000201DFFF73CFF78B9E06A00EB8000224937
:103AD00051F8200040B994F82C10012088401F496B
:103AE000096881431D480160A06A18B104F11800FB
:103AF000FFF725FF1A480068401C1949086015485F
:103B00000068844209D1211D1648FFF756FF164868
:103B10000068401C1449086009E014480068401E11
:103B2000124908602046FFF7E9FCFFF7F1FDFFF7B7
:103B300063FF0F48006858B106480068844207D107
:103B40004FF080500B490860BFF34F8FBFF36F8F6A
:103B500070BD0000580100201405002070010020F5
:103B600084010020B40500206401002068010020C9
:103B70007401002004ED00E01CB5114800210B4643
:103B80008022CDE900100FA1104800F093F8044600
:103B9000012C14D100BFBF2080F31188BFF34F8FD9
:103BA000BFF36F8F00BF4FF0FF300949086001205D
:103BB0000849086000200849086000F047F81CBD6B
:103BC0008C01002049444C45000000008D35000860
:103BD00088010020740100206C0100200248006868
:103BE000401C01490860704790010020124800689D
:103BF00018B10120114908601DE000200F4908603C
:103C00000F480068B0FA80F0C0F11F0101EB81029B
:103C10000C4B03EB820042685268426000F10802DC
:103C20004368934202D14268526842604268D26857
:103C3000054B1A6000BF7047900100207C010020F6
:103C400070010020140500205801002010B50A481A
:103C5000006840F47F00084908600846006840F0AA
:103C60007F400860FFF7FCFE002004490860FCF775
:103C70007DFA002010BD000020ED00E0AC01002026
:103C800010B500BFBF2080F31188BFF34F8FBFF383
:103C90006F8F00BF00F054F818B14FF08050044906
:103CA000086000BF002080F3118800BF10BD000035
:103CB00004ED00E02DE9FF4F85B0804689461746A8
:103CC000DDE912ABB800FFF749FD064656B14C20BE
:103CD000FFF744FD04460CB1266304E03046FFF7CD
:103CE0009BFE00E000247CB10020CDE900ABCDE9D3
:103CF00002403A4649464046089BFFF75BFC204697
:103D0000FFF77EFB012501E04FF0FF35284609B0A3
:103D1000BDE8F08F0549096809B9012005E00449AB
:103D2000096809B9022000E00020704774010020F2
:103D30009001002001490868704700006C010020D4
:103D40002DE9F04100273A480068002863D139483E
:103D50000068451C374805608DB93748D0F80080A9
:103D600036480068344908603448C0F80080344858
:103D70000068401C32490860FFF7CAFC00BF3148A8
:103D8000006885423BD300BF2B480068006808B933
:103D9000012000E0002020B14FF0FF3029490860E9
:103DA0002CE025480068C068C4686668B54202D245
:103DB0002448066022E0201DFFF7C1FDA06A18B16B
:103DC00004F11800FFF7BBFD94F82C100120884087
:103DD0001D49096808431C490860E16A01EB81013B
:103DE0001A4A02EB8100211DFFF7E7FD1849E06A3E
:103DF0000968C96A8842C7D30127C5E700BF1448CC
:103E00000068C06A00EB8000104951F820000128CA
:103E100000D9012704E00F480068401C0D490860E4
:103E20000D48006800B101273846BDE8F081000068
:103E3000900100206C0100205C0100206001002046
:103E4000800100208801002070010020140500205E
:103E500058010020780100207C01002070B500246A
:103E60000026FFF7B7FD2E480068401E2C49086069
:103E70000846006800284FD12A48006800284BD027
:103E800024E02948C068C46804F11800FFF757FD12
:103E9000201DFFF754FD94F82C1001208840234981
:103EA0000968084321490860E16A01EB8101204A61
:103EB00002EB8100211DFFF780FD1E49E06A0968C1
:103EC000C96A884202D301201B490860164800686D
:103ED00008B9012000E000200028D2D00CB1FFF783
:103EE00017FC1648056865B100BFFFF729FF10B140
:103EF0000120114908606D1E002DF6D100200F49E8
:103F000008600D48006838B1012630070C49086088
:103F1000BFF34F8FBFF36F8FFFF76EFD304670BD5D
:103F20009001002068010020A00500207001002001
:103F300014050020580100207C0100207801002099
:103F400004ED00E0643F000800000020B401000020
:103F50004A070008A83F0008B40100202C4C0000CC
:103F60006C310008C15DCDCCCC3E0802103D8914F7
:103F70002380402348431A160401C6180AFFAA6981
:103F800088B5FFAA24010A3A01051A0405E1021FB7
:103F9000012D010203040400095406070809020464
:083FA00006081AAA0141000005
:0400000508000131BD
:00000001FF
